:100000000C9484000C94AC000C94AC000C94AC00E8
:100010000C94AC000C94AC000C94AC000C94AC00B0
:100020000C94AC000C94AC000C94AC000C94AC00A0
:100030000C94AC000C94AC000C94AC000C94AC0090
:100040000C9495080C94AC000C9405090C94DF08F2
:100050000C94AC000C94AC000C94AC000C94AC0070
:100060000C94AC000C94AC000000000023002600AF
:10007000290050494420696E697469616C697A6528
:10008000642E205461726765743A2038352E302012
:1000900043005049442048656174657220436F6E87
:1000A00074726F6C20496E697469616C697A696EEB
:1000B000672E2E2E0000000008000201000003043D
:1000C00007000000000000000000000000250028DC
:1000D000002B0000000000240027002A0004040474
:1000E00004040404040202020202020303030303E1
:1000F00003010204081020408001020408102001BE
:10010000020408102000FE0D11241FBECFEFD8E01E
:10011000DEBFCDBF11E0A0E0B1E0E0EFF4E202C04D
:1001200005900D92AA36B107D9F722E0AAE6B1E010
:1001300001C01D92AF31B207E1F710E0C4E8D0E092
:1001400004C02197FE010E944D0EC338D107C9F7A4
:100150000E9437090C9476120C94000090E0FC0188
:10016000EF50FF4F249183529F4FFC0184918823CD
:1001700099F090E0880F991FFC01ED52FF4FA59177
:10018000B491FC01E753FF4F859194918FB7F89498
:10019000EC91E22BEC938FBF0895833081F028F42B
:1001A000813099F08230A9F008958730A9F0883025
:1001B000C9F08430B1F4809180008F7D03C08091BC
:1001C00080008F7780938000089584B58F7784BDF9
:1001D000089584B58F7DFBCF8091B0008F77809399
:1001E000B00008958091B0008F7DF9CF1F93CF9319
:1001F000DF93282F30E0F901EB54FF4F8491F90190
:10020000EF50FF4FD491F901E352FF4FC491CC233B
:10021000A9F0162F81110E94CD00EC2FF0E0EE0F17
:10022000FF1FE753FF4FA591B4918FB7F894EC915E
:10023000111108C0D095DE23DC938FBFDF91CF91E1
:100240001F910895DE2BF8CF3FB7F8948091780185
:1002500090917901A0917A01B0917B0126B5A89B7C
:1002600005C02F3F19F00196A11DB11D3FBFBA2F48
:10027000A92F982F8827BC01CD01620F711D811D08
:10028000911D42E0660F771F881F991F4A95D1F78D
:1002900008958F929F92AF92BF92CF92DF92EF928A
:1002A000FF924B015C010E9424016B017C010E94C2
:1002B00024016C197D098E099F09683E73408105F0
:1002C0009105A8F321E0821A9108A108B10888EEEF
:1002D000C80E83E0D81EE11CF11C81149104A10416
:1002E000B10429F7FF90EF90DF90CF90BF90AF90CF
:1002F0009F908F900895682F88E00C94F600AF923D
:10030000BF92CF92DF92EF92FF920F931F93CF9302
:10031000DF936C017B018B01040F151FEB015E0164
:10032000AE18BF08C017D10759F06991D601ED91F9
:10033000FC910190F081E02DC6010995892B79F798
:10034000C501DF91CF911F910F91FF90EF90DF904A
:10035000CF90BF90AF900895FC01538D448D252F11
:1003600030E0842F90E0821B930B541710F0CF964F
:10037000089501970895FC01918D828D981761F081
:10038000A28DAE0FBF2FB11D5D968C91928D9F5F98
:100390009F73928F90E008958FEF9FEF0895FC0177
:1003A000918D828D981731F0828DE80FF11D858D2A
:1003B00090E008958FEF9FEF0895FC01918D228DBD
:1003C000892F90E0805C9F4F821B91098F73992742
:1003D00008958CE791E00E94DD0121E0892B09F46A
:1003E00020E0822F089580E090E0892B29F00E9480
:1003F000E90181110C9400000895FC01A48DA80F5F
:10040000B92FB11DA35ABF4F2C91848D90E0019656
:100410008F739927848FA689B7892C93A089B18976
:100420008C91837080648C93938D848D981306C017
:100430000288F389E02D80818F7D80830895EF927B
:10044000FF920F931F93CF93DF93EC0181E0888F8E
:100450009B8D8C8D98131AC0E889F989808185FF5E
:1004600015C09FB7F894EE89FF896083E889F98900
:1004700080818370806480839FBF81E090E0DF9102
:10048000CF911F910F91FF90EF900895F62E0B8D55
:1004900010E00F5F1F4F0F731127E02E8C8D8E1110
:1004A0000CC00FB607FCFACFE889F989808185FF77
:1004B000F5CFCE010E94FD01F1CFEB8DEC0FFD2FAA
:1004C000F11DE35AFF4FF0829FB7F8940B8FEA8932
:1004D000FB8980818062CFCFCF93DF93EC01888D41
:1004E0008823B9F0AA89BB89E889F9898C9185FDAF
:1004F00003C0808186FD0DC00FB607FCF7CF8C913D
:1005000085FFF2CF808185FFEDCFCE010E94FD01F6
:10051000E9CFDF91CF910895682F660F692F661F8D
:1005200081E090E06F3F11F490E080E008958FB794
:10053000F89480916A018FBF08958EBD00000DB4BC
:1005400007FEFDCF8EB508958CBD9DBD08950F9318
:100550001F93FC0100E012E12AE730E090E0401731
:1005600051076207730740F436952795179507954D
:100570009F5F9630A1F797E0292F286A2695208360
:100580009095917091831F910F910895CF92DF9272
:10059000EF92FF920F931F93CF93DF9300D0CDB7CD
:1005A000DEB72091190230911A0221303105D1F5C0
:1005B0007A018B01D82EC0900E0160E08C2D0E9434
:1005C000F60040910A0150910B0160910C0170916D
:1005D0000D01CE0101960E94A70289819A810E9495
:1005E000A4028D2D0E949D0280E00E949D02F801D0
:1005F0008083EA94EF2829F080E00E949D02F801B0
:10060000818361E08C2D0E94F60090E080E00F90E5
:100610000F90DF91CF911F910F91FF90EF90DF909E
:10062000CF9008958EEF9FEFF2CFFC010190002054
:10063000E9F73197AF01481B590BBC018CE791E0FA
:100640000C947F010F931F93CF93DF938C01D0E025
:10065000C0E0F801EC0FFD1F6491662341F08CE7C8
:1006600091E00E941F02892B11F02196F2CF82E4C3
:1006700091E00E9415038C0F9D1FDF91CF911F9178
:100680000F9108958F929F92AF92BF920F931F93F5
:10069000CF93DF93CDB7DEB7A1970FB6F894DEBF47
:1006A0000FBECDBF19A2423008F44AE08E010F5DA3
:1006B0001F4F842E912CB12CA12CA50194010E94D6
:1006C0002B0EE62FB901CA01EA30F4F4E05DD8013F
:1006D000EE938D01232B242B252B79F790E080E0DE
:1006E000109719F0CD010E941503A1960FB6F8944A
:1006F000DEBF0FBECDBFDF91CF911F910F91BF9095
:10070000AF909F908F900895E95CE1CF4F925F92F8
:100710006F927F928F929F92AF92BF92CF92DF9211
:10072000EF92FF920F931F93CF936B017C01742E76
:10073000AC019B010E941411882399F085E491E09B
:10074000CF911F910F91FF90EF90DF90CF90BF90CE
:10075000AF909F908F907F906F905F904F900C9490
:10076000150346015701E894B7F82FEF3FEF4FE725
:100770005FE7C501B4010E94141181110DC02FEF74
:100780003FEF4FE75FE7C501B4010E94C00E1816A6
:100790001CF489E491E0D4CF2FEF3FEF4FE75FE403
:1007A000C701B6010E941F1018161CF48DE491E0D9
:1007B000C7CF2FEF3FEF4FE75FECC701B6010E94B5
:1007C000C00E87FDF3CF20E030E0A901C701B601DC
:1007D0000E94C00E10E000E087FF0AC06DE28CE7C7
:1007E00091E00E941F028C01F7FAF094F7F8F09460
:1007F000C0E060E070E080E09FE37C1641F020E024
:1008000030E040E251E40E94C50ECF5FF6CFA70171
:1008100096010E94540E2B013C010E943E0F4B0199
:100820005C014AE00E9442037C01E00EF11ECC23F1
:10083000C1F1C501B4010E946D0F9B01AC01C30160
:10084000B2010E94530E4B015C016EE28CE791E015
:100850000E941F02E80EF91EC15018F120E030E09E
:1008600040E251E4C501B4010E9461102B013C013A
:100870000E943E0F4B01B12CA12C4AE0C501B401EE
:100880000E944203E80EF91EC501B4010E946D0FDB
:100890009B01AC01C301B2010E94530E4B015C01EC
:1008A000DBCFC701CF911F910F91FF90EF90DF90A9
:1008B000CF90BF90AF909F908F907F906F905F9000
:1008C0004F9008952F923F924F925F926F927F9236
:1008D0008F929F92AF92BF92CF92DF92EF92FF9250
:1008E0000F931F93CF93DF9300D01F92CDB7DEB746
:1008F000E0911902F0911A02329709F0BCC0A09061
:100900000E01B0900F01B7FCB9C000910401109125
:10091000050117FDB3C0409006015090070157FC38
:10092000ADC0E0910801F0910901FB83EA83F7FD76
:10093000A5C03901252E342E6B01192F982E60E0A9
:100940008A2D0E94F600E92CF12ECE0CDF1C502ED1
:10095000F70181907F0107E010E0912CB401002E97
:1009600002C0759567950A94E2F761707727842D28
:100970000E94F60060E0852D0E94F60061E0852D62
:100980000E94F6000150110948F7EC14FD0401F72C
:10099000032D122D600E711E8A819B8199279B83E6
:1009A0008A838B549F4F4C01EA81FB81EF50FF4FAC
:1009B0006F018A819B8183529F4F9B838A8360163C
:1009C000710609F43CC0212C97E0E92EF12C60E07F
:1009D000842D0E94F60060E0852D0E94F600F4014F
:1009E0008491F601F491F983EA81FB8134903320FC
:1009F00021F181110E94CD00E32DF0E0EE0FFF1FE9
:100A0000E859FF4FA591B4918C91F9818F2331E082
:100A100009F430E0832F0E2C01C0880F0A94EAF706
:100A2000282A61E0852D0E94F60081E0E81AF1088D
:100A300070F6F80121928F01C2CF80E0ECCF61E027
:100A40008A2D0E94F60090E080E00F900F900F90AA
:100A5000DF91CF911F910F91FF90EF90DF90CF909A
:100A6000BF90AF909F908F907F906F905F904F90CE
:100A70003F902F9008958FEF9FEFE7CF8EEF9FEF7E
:100A8000E4CF4F925F926F927F928F929F92AF923C
:100A9000BF92CF92DF92EF92FF920F931F93CF936B
:100AA000DF93CDB7DEB76B970FB6F894DEBF0FBEFE
:100AB000CDBF8091190290911A02029709F05AC095
:100AC00081E08B8322E030E0AE014F5F5F4F61E059
:100AD00070E0CE0103960E946204892B09F053C096
:100AE00069817A817627672776278B011695079586
:100AF00020E030E040E058E3609118017091190166
:100B000080911A0190911B010E9461106B017C0180
:100B1000B80190E080E00E946D0F9B01AC01C7011D
:100B2000B6010E9461106C837D838E839F836C81EC
:100B30007D818E819F810E948C02892B69F560E006
:100B400070E080EC9FE76B960FB6F894DEBF0FBEA7
:100B5000CDBFDF91CF911F910F91FF90EF90DF906C
:100B6000CF90BF90AF909F908F907F906F905F904D
:100B70004F90089542E050E0BE016F5F7F4F81E0EB
:100B80000E94C602AACF80E090E0A0ECBFE78C8371
:100B90009D83AE83BF83CBCF8091190290911A02BF
:100BA000029709F0B4C187E0898321E030E0AE010B
:100BB0004D5F5F4F61E070E0CE0101960E946204DC
:100BC000892B19F48B818111BACF20E030E0A90183
:100BD0006C817D818E819F810E94C00E18160CF061
:100BE000A6C18091140190911501A0911601B091B8
:100BF00017018C879D87AE87BF879C01AD016C81F3
:100C00007D818E819F810E94C50E9B01AC0160E0B9
:100C100070E080E89FE30E94530E2FE735E04BE140
:100C200056EB0E9461109B01AC0166E672E280E81F
:100C300097E30E94530E6B017C0120E030E0A90194
:100C40000E941F1087FD6CC1C701B6010E94D4101D
:100C50006B017C0122E331E140E85BE30E94530E2B
:100C60002FE735E04BE955EB0E94C50E2B013C0107
:100C70002DEB37E346E855EB0E941F1087FF1CC1A0
:100C8000A701960162E371E180E89BEB0E94530E9D
:100C90002FE735E04BE955EB0E94C50E2B013C01D7
:100CA00020E030E0A9010E94C00E87FF39C10EE1AB
:100CB00010E0A3019201C301B2010E9461106B0117
:100CC0007C0122E331E140E85BE3C301B2010E9411
:100CD000611020E030E040E85FE30E94540E4B01D9
:100CE0005C012FE735E04BE155EBC701B6010E94EF
:100CF00061109B01AC01C501B4010E94540E4B016F
:100D00005C0120E030E048EC52E4C301B2010E94F3
:100D1000530E2DE13DE243E95CEA0E9461106887D1
:100D200079878A879B87A3019201C701B6010E9438
:100D300061109B01AC01688579858A859B850E943D
:100D400061109B01AC01C501B4010E94540E2C85B9
:100D50003D854E855F850E946110688779878A8707
:100D60009B872C813D814E815F810E94530E688B51
:100D7000798B8A8B9B8B9F772DEB37E346E855E386
:100D80000E94C00E87FD98C027E137EB41ED58E384
:100D9000C301B2010E94540E6B017C01AC019B01A6
:100DA0000E9461106C8B7D8B8E8B9F8B22E331E1D7
:100DB00040E85BE3C701B6010E94611020E030E02B
:100DC00040E85FE30E94540E4B015C012FE735E0E1
:100DD0004BE155EB6C897D898E899F890E9461105A
:100DE0009B01AC01C501B4010E94540E688F798F3C
:100DF0008A8F9B8F20E030E048EC52E4C701B601B7
:100E00000E94530E2DE13DE243E95CEA0E9461102D
:100E10004B015C012C893D894E895F89C701B60170
:100E20000E9461109B01AC01C501B4010E946110D8
:100E30009B01AC01688D798D8A8D9B8D0E94540E2B
:100E40002C853D854E855F850E94611028853985FA
:100E50004A855B850E94530E27E137EB41ED58E34D
:100E60000E94C50E6B017C0120E030E0A9010E94C8
:100E7000C00E882309F1A7019601688979898A89BA
:100E80009B890E94C50E6B017C01AC019B01C301D3
:100E9000B2010E94530E2B013C01C701B6019F779E
:100EA0002DEB37E346E855E30E94C00E87FD04C0F2
:100EB0000150110909F0FDCEC301B2010E948C025C
:100EC000892B09F43CCE20E030E048EC52E4C30129
:100ED000B2010E9461106B017C0120E030E0A901A9
:100EE0000E941F1020E030E040E05FE387FD26C055
:100EF000C701B6010E94540E0E94370F0E946F0F67
:100F000020E030E048EC52E40E94C50E1CCE41E0E7
:100F100050E0BE016D5F7F4F87E00E94C60250CE59
:100F2000412C512C98E4692E92EC792EC0CE412CA4
:100F3000512C80EC682E8FE7782EBECFC701B6010A
:100F40000E94530ED9CFCF92DF92EF92FF920F9370
:100F50001F93CF93DF930E9441058B01D82FC92F98
:100F60000E948C02C0900001D0900101E09002012B
:100F7000F0900301892B41F562E370E080E090E09E
:100F80000E9449010E9441058B01D82FC92F0E9460
:100F90008C02892BC9F49601A701B601C7010E94F2
:100FA0001411882331F0C12CD12C80ECE82E9FE75E
:100FB000F92EB601C701DF91CF911F910F91FF90DC
:100FC000EF90DF90CF900895B601C7010E948C0288
:100FD000892B81F19601A701B8018D2F9C2F0E94CA
:100FE000530E9F7720E030E040E251E40E941F1052
:100FF000181604F562E370E080E090E00E94490179
:101000000E9441058B01D82FC92F0E948C02892B89
:1010100081F29601A701B8018D2F9C2F0E94530EDB
:101020009F7720E030E040E251E40E94C00E1816A5
:101030000CF4BFCFC801AD2FBC2F8093000190935B
:101040000101A0930201B09303016801ED2EFC2E73
:10105000B0CFCF93DF931F92CDB7DEB720911902A7
:1010600030911A022230310571F4198221E030E00A
:10107000AC0161E070E0CE0101960E9462040F9025
:10108000DF91CF91089541E050E0BC0180E00E94E3
:10109000C602F5CF0F931F93CF93DF9300D0CDB748
:1010A000DEB7082F8091190290911A0282309105C3
:1010B000A1F480E889830A8330E020E050E040E03A
:1010C00062E070E0CE0101960E9462040F900F90E2
:1010D000DF91CF911F910F910895019719F510910C
:1010E0000E0160E0812F0E94F60040910A015091AC
:1010F0000B0160910C0170910D01CE0101960E94CF
:10110000A70289819A810E94A40280E80E949D0220
:10111000802F0E949D0261E0812F0E94F60090E0E6
:1011200080E0D4CF8FEF9FEFD1CF1F920F920FB6F9
:101130000F9211242F933F938F939F93AF93BF935D
:101140008091740190917501A0917601B091770121
:101150003091730123E0230F2D3758F50196A11D1F
:10116000B11D209373018093740190937501A09336
:101170007601B09377018091780190917901A091E7
:101180007A01B0917B010196A11DB11D8093780178
:1011900090937901A0937A01B0937B01BF91AF91B5
:1011A0009F918F913F912F910F900FBE0F901F90A5
:1011B000189526E8230F0296A11DB11DD2CF1F92CC
:1011C0000F920FB60F9211242F933F934F935F937B
:1011D0006F937F938F939F93AF93BF93EF93FF93FF
:1011E0008CE791E00E94FD01FF91EF91BF91AF91DB
:1011F0009F918F917F916F915F914F913F912F912F
:101200000F900FBE0F901F9018951F920F920FB660
:101210000F9211242F938F939F93EF93FF93E0915D
:101220008C01F0918D018081E0919201F091930108
:1012300082FD1BC09081809195018F5F8F732091FB
:101240009601821741F0E0919501F0E0E458FE4FDD
:10125000958F80939501FF91EF919F918F912F91A1
:101260000F900FBE0F901F9018958081F4CFCF93F1
:10127000DF93CDB7DEB7EA970FB6F894DEBF0FBEA7
:10128000CDBF789484B5826084BD84B5816084BD0F
:1012900085B5826085BD85B5816085BD80916E0014
:1012A000816080936E001092810080918100826045
:1012B0008093810080918100816080938100809182
:1012C00080008160809380008091B1008460809371
:1012D000B1008091B00081608093B00080917A006D
:1012E000846080937A0080917A00826080937A0093
:1012F00080917A00816080937A0080917A00806882
:1013000080937A001092C100E0918C01F0918D01E0
:1013100082E08083E0918801F09189011082E09160
:101320008A01F0918B0180E1808310929401E09119
:101330009001F091910186E08083E0918E01F0911F
:101340008F01808180618083E0918E01F0918F0117
:10135000808188608083E0918E01F0918F0180818F
:1013600080688083E0918E01F0918F0180818F7D74
:10137000808382E990E00E94220310921A02109268
:1013800019028FEF9FEF90930901809308019093CA
:1013900007018093060190930501809304018AE080
:1013A00090E090930F0180930E0180E492E4AFE00F
:1013B000B0E080930A0190930B01A0930C01B093CD
:1013C0000D018AE00E94AE0061E08AE00E94F60012
:1013D0001FB7F89480916B01811124C0E7EEF0E013
:1013E0008491EBEFF0E09491E82FF0E0EE0FFF1F17
:1013F000ED52FF4FA591B491EC91E92321F461E006
:101400008AE00E94F6008AE00E94AE008CB58061FE
:101410008CBD8CB580648CBD8DE00E94AE008BE0ED
:101420000E94AE0080916B018F5F80936B011FBFA4
:1014300080910A0190910B01A0910C01B0910D01D6
:101440000097A105B10521F480E492E4AFE0B0E09B
:1014500080930A0190930B01A0930C01B0930D01AE
:1014600081E090E090931A028093190280E090E06E
:10147000A8ECB2E48093140190931501A093160197
:10148000B093170180E090E0A7EDB3E480931801DA
:1014900090931901A0931A01B0931B01CE010196FC
:1014A0000E942908892B29F48981806189830E94FF
:1014B0004A08CE0101960E942908892B29F48981C6
:1014C0008E7F89830E944A08CE0101960E942908D6
:1014D000892B31F489818F7D806C89830E944A0831
:1014E00088E00E94AE0080E00E947B0169E370E02A
:1014F00081E090E00E942E11009709F441C0DC01C8
:1015000092961D921D921D921C929597FC0116A217
:1015100017A210A611A613A612A65E961D921D92E2
:101520001D921C9291979C961C929C9740E050E0D3
:1015300060E87FE3408351836283738314961D9236
:101540001D921D921C921797108611861286138683
:1015500021E030E0358724879D961D921D921D92D3
:101560001C92D09711AA12AA13AA14AA40E050E024
:1015700060EC7FE7D5964D935D936D937C93D89700
:1015800090936D0180936C012EE0E2E2F1E0DE01C8
:101590001F9601900D922A95E1F72EE0FE013F96ED
:1015A000DE01119601900D922A95E1F70097A9F1BD
:1015B0002EE0FE013196DC0101900D922A95E1F7B3
:1015C00021E030E0FC0137872687318B208B138A9E
:1015D000128A24E630E0358B248B48EB5BE060E038
:1015E00070E0468B578B608F718F428F538F648F63
:1015F000758F12A213A214A215A216A217A210A6EA
:1016000011A613A612A621E024A740E050E06AEA42
:1016100072E4468F578F60A371A382E790E00E9427
:1016200022030E94A3076B017C010E948C02892B7C
:1016300041F0C0921001D0921101E0921201F0929B
:1016400013012FB7F8948091740190917501A091C6
:101650007601B09177012FBF80936E0190936F0157
:10166000A0937001B09371018FB7F8942091740129
:1016700030917501409176015091770129A33AA3E9
:101680004BA35CA38FBF80917201811125C0809113
:101690006E0190916F01A0917001B0917101281BB2
:1016A000390B4A0B5B0BDA01C901C297A105B105E1
:1016B00098F00E94A3076B017C010E948C02892B89
:1016C00041F0C0921001D0921101E0921201F0920B
:1016D000130131E03093720120906C0130906D0164
:1016E0002114310409F445C24090100150901101B9
:1016F0006090120170901301C301B2010E948C022C
:10170000892B39F0D101D5964D925D926D927C92E4
:10171000D897F101C5A8D6A8E7A8F0ACC701B601D3
:101720000E948C02892B19F4C12CD12C7601F10175
:1017300085A596A5A7A5B0A929A13AA14BA15CA111
:10174000281B390B4A0B5B0BDA01C901228D338D43
:10175000448D558D29AB3AAB4BAB5CAB10E0821797
:101760009307A407B50708F490C1228933893E8FF7
:101770002D8F84A5882309F431C266897789808DED
:10178000918D812C912C5401611571058105910574
:1017900099F00E946D0F20E030E04AE754E40E9487
:1017A000C50E4B015C0120E030E040E752E40E94AE
:1017B0001F1018160CF4F0C1A7019601D1015E9616
:1017C0006D917D918D919C9191970E94530E6DA387
:1017D0007EA38FA398A7F10120813181428153819B
:1017E0000E94611069A77AA78BA79CA7D101929646
:1017F000CD90DD90ED90FC9095971E960D911C91EB
:101800001F970115110509F4CEC1C8010197029770
:10181000C0F414962D913D914D915C9117976DA157
:101820007EA18FA198A50E946110A50194010E943C
:1018300061109B01AC01C701B6010E94540E6B01FF
:101840007C010230110509F0AEC120E030E0A901B1
:10185000C501B4010E941F1018160CF0A4C1F101BB
:1018600026A137A140A551A56DA17EA18FA198A564
:101870000E94530ED10118962D913D914D915C918E
:101880001B970E946110A50194010E94C50E4B0197
:101890005C0129A53AA54BA55CA5C701B6010E942C
:1018A000540EA50194010E94540E6FAB78AF89AF1E
:1018B0009AAFED8DFE8DBF01FF0F880B990B0E9433
:1018C0006F0F6F8F78A38C01D10154960D90BC914E
:1018D000A02DBEABADABBD01BB0F880B990B0E9419
:1018E0006F0F6DA77EA78FA798AB9B01AC016FA967
:1018F00078AD89AD9AAD0E941F1018160CF057C133
:1019000029A53AA54BA55CA56DA57EA58FA598A98F
:101910000E94530EA50194010E94530E6B017C019D
:10192000A701960169A57AA58BA59CA50E94540ED6
:10193000A50194010E94540E4B015C019B01AC0176
:101940006F8D78A1C8010E941F10181684F09401B1
:10195000A5016DA57EA58FA598A90E94C00E87FF41
:1019600039C1BDA5BF8FEEA5E8A30FA518A9D10168
:101970009296CD92DD92ED92FC9295972DA13EA18B
:101980004FA158A596962D933D934D935C939997AF
:101990006F8D78A1C8010E942410ED8DFE8D6E1709
:1019A0007F070CF41BC14DA95EA9641775070CF4E1
:1019B000AB012D8D3E8D241735070CF49A01D10112
:1019C00054960D911C917801201731070CF4790180
:1019D000ED8DFE8DE017F1070CF003C1B7016E1B12
:1019E0007F0B072E000C880B990B0E946F0F4B0189
:1019F0005C01B8012D8D3E8D621B730B072E000C10
:101A0000880B990B0E946F0F9B01AC01C501B401BB
:101A10000E94C50E4B015C0120E030E0A9010E944C
:101A2000C00E87FDDEC020E030E040E85FE3C50186
:101A3000B4010E941F1018160CF4D7C069A97AA926
:101A40008BA99CA90E946D0FA50194010E946110B1
:101A50000E942410D1019B96FC92EE929A97F1017C
:101A600061AB72AB83AB94AB29A13AA14BA15CA152
:101A70009D962D933D934D935C93D09780E00E946B
:101A80007B0111E080E090E0DC01F10141A952A965
:101A900063A974A9411551056105710509F4ACC02C
:101AA00084179507A607B70708F0A6C081E00E9433
:101AB0007B01112309F45DC0A3019201C301B201AE
:101AC0000E941411882319F0412C512C3201D101AC
:101AD0009A96CD90DC9083E591E00E94150369A170
:101AE0007AA18BA19CA10E946D0F20E030E04AE713
:101AF00054E40E94C50E41E00E94860386E591E011
:101B00000E94150342E0C301B2010E94860380E6F1
:101B100091E00E9415030D2C000CEE08FF084AE02E
:101B2000C701B601F7FE0DC06DE28CE791E00E949F
:101B30001F0266277727CB016C197D098E099F0943
:101B40004AE00E94420381E591E00E94150382E48D
:101B500091E00E94150329A13AA14BA15CA1209319
:101B60006E0130936F014093700150937101109298
:101B7000720161E070E080E090E00E94490140E085
:101B800050E0452B09F470CD0E94E901882309F447
:101B90006BCD0E94000068CD812C912C90E7A92E7E
:101BA00092E4B92E09CE812C912C540172CE2F8D46
:101BB00038A1A8016FA978AD89AD9AAD0E94C00E79
:101BC00087FFAECE29A53AA54BA55CA56F8D78A160
:101BD000C8019ECE8F8E98A28501C9CE4D8D5E8D97
:101BE000E8CE812C912C540129CF812C912C80E8B6
:101BF000A82E8FE3B82E22CF80E059CFECE7F1E09A
:101C00001382128288EE93E0A0E0B0E08483958393
:101C1000A683B78384E391E09183808385EC90E091
:101C20009587848784EC90E09787868780EC90E0A6
:101C3000918B808B81EC90E0938B828B82EC90E097
:101C4000958B848B86EC90E0978B868B118E128E11
:101C5000138E148E0895A1E21A2EAA1BBB1BFD0140
:101C60000DC0AA1FBB1FEE1FFF1FA217B307E4077B
:101C7000F50720F0A21BB30BE40BF50B661F771FD3
:101C8000881F991F1A9469F76095709580959095B3
:101C90009B01AC01BD01CF010895EE0FFF1F059020
:101CA000F491E02D09945058BB27AA270E946B0E8F
:101CB0000C94E50F0E94D70F38F00E94DE0F20F041
:101CC00039F49F3F19F426F40C94D40F0EF4E095E8
:101CD000E7FB0C94CE0FE92F0E94F60F58F3BA17CA
:101CE000620773078407950720F079F4A6F50C9432
:101CF00018100EF4E0950B2EBA2FA02D0B01B90190
:101D000090010C01CA01A0011124FF27591B99F071
:101D1000593F50F4503E68F11A16F040A22F232F7D
:101D2000342F4427585FF3CF469537952795A795CD
:101D3000F0405395C9F77EF41F16BA0B620B730B74
:101D4000840BBAF09150A1F0FF0FBB1F661F771FE5
:101D5000881FC2F70EC0BA0F621F731F841F48F49A
:101D6000879577956795B795F7959E3F08F0B0CF23
:101D70009395880F08F09927EE0F9795879508950A
:101D80000E94AA0F08F481E008950E94D90E0C94D5
:101D9000E50F0E94DE0F58F00E94D70F40F029F4A3
:101DA0005F3F29F00C94CE0F51110C9419100C9434
:101DB000D40F0E94F60F68F39923B1F3552391F3E2
:101DC000951B550BBB27AA2762177307840738F0AA
:101DD0009F5F5F4F220F331F441FAA1FA9F335D007
:101DE0000E2E3AF0E0E832D091505040E695001CBB
:101DF000CAF72BD0FE2F29D0660F771F881FBB1F75
:101E0000261737074807AB07B0E809F0BB0B802D52
:101E1000BF01FF2793585F4F3AF09E3F510578F07E
:101E20000C94CE0F0C9419105F3FE4F3983ED4F35A
:101E3000869577956795B795F7959F5FC9F7880F52
:101E4000911D9695879597F90895E1E0660F771FA4
:101E5000881FBB1F621773078407BA0720F0621B35
:101E6000730B840BBA0BEE1F88F7E09508950E9460
:101E70003E0F6894B1110C94191008950E94FE0F42
:101E800088F09F5798F0B92F9927B751B0F0E1F03B
:101E9000660F771F881F991F1AF0BA95C9F714C0EB
:101EA000B13091F00E941810B1E008950C94181010
:101EB000672F782F8827B85F39F0B93FCCF3869524
:101EC00077956795B395D9F73EF490958095709581
:101ED00061957F4F8F4F9F4F0895E89409C097FBFE
:101EE0003EF490958095709561957F4F8F4F9F4FF1
:101EF0009923A9F0F92F96E9BB279395F695879535
:101F000077956795B795F111F8CFFAF4BB0F11F4F7
:101F100060FF1BC06F5F7F4F8F4F9F4F16C088239E
:101F200011F096E911C0772321F09EE8872F762FD4
:101F300005C0662371F096E8862F70E060E02AF015
:101F40009A95660F771F881FDAF7880F9695879501
:101F500097F90895990F0008550FAA0BE0E8FEEFD6
:101F600016161706E807F907C0F012161306E4075D
:101F7000F50798F0621B730B840B950B39F40A2656
:101F800061F0232B242B252B21F408950A2609F434
:101F9000A140A6958FEF811D811D089597F99F6738
:101FA00080E870E060E008959FEF80EC08950024E1
:101FB0000A941616170618060906089500240A94AE
:101FC00012161306140605060895092E0394000C34
:101FD00011F4882352F0BB0F40F4BF2B11F460FFC3
:101FE00004C06F5F7F4F8F4F9F4F089557FD9058EC
:101FF000440F551F59F05F3F71F04795880F97FBCD
:10200000991F61F09F3F79F0879508951216130686
:102010001406551FF2CF4695F1DF08C016161706B5
:102020001806991FF1CF86957105610508940895EA
:10203000E894BB2766277727CB0197F908950E947C
:10204000AA0F08F48FEF08950E94FE0FA8F19E5783
:10205000B0F1985160F039F1983070F5092E992758
:10206000660F771F881F991F0A94D1F71CC0BB27E2
:10207000993F4CF4B111B1E0B62B672F782F882728
:10208000985FB1F708C0869577956795B79508F47E
:10209000B1609395C1F7BB0F30F411F460FF03C03A
:1020A0006F5F7F4F8F4F3EF490958095709561954F
:1020B0007F4F8F4F9F4F089568940C9419100C9484
:1020C00018100E9474100C94E50F0E94D70F38F07E
:1020D0000E94DE0F20F0952311F00C94CE0F0C948B
:1020E000D40F11240C9419100E94F60F70F3959FD1
:1020F000C1F3950F50E0551F629FF001729FBB27FF
:10210000F00DB11D639FAA27F00DB11DAA1F649F9A
:102110006627B00DA11D661F829F2227B00DA11D4D
:10212000621F739FB00DA11D621F839FA00D611DD3
:10213000221F749F3327A00D611D231F849F600DF4
:10214000211D822F762F6A2F11249F5750409AF01D
:10215000F1F088234AF0EE0FFF1FBB1F661F771FA9
:10216000881F91505040A9F79E3F510580F00C9474
:10217000CE0F0C9419105F3FE4F3983ED4F386958C
:1021800077956795B795F795E7959F5FC1F7FE2B14
:10219000880F911D9695879597F9089519F416F46F
:1021A0000C94D40F0C9419110E94FE0FB8F39923CC
:1021B000C9F3B6F39F57550B87FF0E9427110024E0
:1021C000A0E640EA900180585695979528F4805CE7
:1021D000660F771F881F20F026173707480730F44F
:1021E000621B730B840B202931294A2BA695179467
:1021F0000794202531254A2758F7660F771F881F37
:1022000020F026173707480730F4620B730B840B56
:10221000200D311D411DA09581F7B901842F9158E2
:10222000880F9695879508950E94AA0F880B990BA1
:1022300008959F3F31F0915020F4879577956795E9
:10224000B795880F911D9695879597F908959150A8
:102250005040660F771F881FD2F708950F931F9382
:10226000CF93DF93869F8001879F100D969F100D5F
:102270001124C8010E944A11EC01009729F0A8011D
:1022800070E060E00E946F12CE01DF91CF911F914C
:102290000F9108950F931F93CF93DF938230910591
:1022A00010F482E090E0E0911D02F0911E0230E017
:1022B00020E0B0E0A0E0309799F42115310509F451
:1022C0004AC0281B390B24303105D8F58A819B81FF
:1022D0006115710589F1FB0193838283FE0111C0B1
:1022E000408151810281138148175907E0F0481756
:1022F000590799F4109761F012960C931297139660
:102300001C933296CF01DF91CF911F910F910895C9
:1023100000931D0210931E02F4CF2115310551F0D8
:102320004217530738F0A901DB019A01BD01DF0113
:10233000F801C1CFEF01F9CF90931E0280931D02E7
:10234000CDCFFE01E20FF31F81939193225031090B
:1023500039832883D7CF20911B0230911C02232B75
:1023600041F420911E0130911F0130931C022093F3
:102370001B0220911C0130911D012115310541F4F2
:102380002DB73EB74091200150912101241B350B00
:10239000E0911B02F0911C02E217F307A0F42E1B40
:1023A0003F0B2817390778F0AC014E5F5F4F2417B9
:1023B000350748F04E0F5F1F50931C0240931B02DD
:1023C000819391939FCFF0E0E0E09CCFCF93DF9398
:1023D0000097E9F0FC01329713821282A0911D024E
:1023E000B0911E02ED0130E020E01097A1F42081B1
:1023F0003181820F931F20911B0230911C022817FC
:10240000390709F061C0F0931C02E0931B02DF91D1
:10241000CF910895EA01CE17DF07E8F54A815B8185
:102420009E0141155105B1F7E901FB83EA8349910A
:102430005991C40FD51FEC17FD0761F4808191817C
:102440000296840F951FE901998388838281938185
:102450009B838A83F0E0E0E012968D919C91139724
:102460000097B9F52D913C911197CD010296820FFD
:10247000931F20911B0230911C022817390739F64F
:10248000309751F510921E0210921D02B0931C025B
:10249000A0931B02BCCFD383C28340815181840FA0
:1024A000951FC817D90761F44E5F5F4F88819981E6
:1024B000480F591F518340838A819B819383828374
:1024C0002115310509F0B0CFF0931E02E0931D02F3
:1024D0009ECFFD01DC01C0CF13821282D7CFDC0179
:1024E00001C06D9341505040E0F70895F894FFCF3C
:1024F0000000C07FFFFFFFFFFFFF40420F00FFFF14
:102500000000C07F0000C8420000D74300001F0247
:10251000800045D8003F2E56D43A0000000001004C
:10252000000000001F027F01AC016C02DD01BB0155
:10253000CF010D0A006E616E00696E66006F7666EF
:10254000002500743D00732C2050543130303D0084
:0A25500020432C20447574793D00EF
:00000001FF
