:100000000C9463000C948B000C948B000C94930361
:100010000C9493030C9493030C948B000C948B001E
:100020000C948B000C948B000C948B000C948B0024
:100030000C948B000C948B000C948B000C948B0014
:100040000C94F1020C948B000C9461030C943B0310
:100050000C948B000C948B000C948B000C948B00F4
:100060000C948B000C948B0000000008000201002F
:100070000003040700000000000000000000000072
:1000800023002600290000000000240027002A0089
:1000900000000000250028002B00040404040404D0
:1000A0000404020202020202030303030303010227
:1000B00004081020408001020408102001020408F6
:1000C00010205704430711241FBECFEFD8E0DEBF36
:1000D000CDBF11E0A0E0B1E0E0EAF3E102C005909D
:1000E0000D92A638B107D9F722E0A6E8B1E001C029
:1000F0001D92A439B207E1F710E0C2E6D0E004C0D7
:100100002197FE010E948107C136D107C9F70E94DD
:1001100040050C94C3090C9400003FB7F8948091FB
:10012000D4019091D501A091D601B091D70126B507
:10013000A89B05C02F3F19F00196A11DB11D3FBF1F
:10014000BA2FA92F982F8827BC01CD01620F711DEE
:10015000811D911D42E0660F771F881F991F4A95E8
:10016000D1F708958F929F92AF92BF92CF92DF9274
:10017000EF92FF924B015C010E948D006B017C01AC
:100180000E948D006C197D098E099F09683E73409D
:1001900081059105A8F321E0821A9108A108B10810
:1001A00088EEC80E83E0D81EE11CF11C8114910476
:1001B000A104B10429F7FF90EF90DF90CF90BF909A
:1001C000AF909F908F900895AF92BF92CF92DF92A1
:1001D000EF92FF920F931F93CF93DF936C017B01FC
:1001E0008B01040F151FEB015E01AE18BF08C0178D
:1001F000D10759F06991D601ED91FC910190F08100
:10020000E02DC6010995892B79F7C501DF91CF91C2
:100210001F910F91FF90EF90DF90CF90BF90AF9024
:100220000895FC01538D448D252F30E0842F90E0FC
:10023000821B930B541710F0CF96089501970895E1
:10024000FC01918D828D981761F0A28DAE0FBF2FAA
:10025000B11D5D968C91928D9F5F9F73928F90E000
:1002600008958FEF9FEF0895FC01918D828D98176F
:1002700031F0828DE80FF11D858D90E008958FEFAC
:100280009FEF0895FC01918D228D892F90E0805C75
:100290009F4F821B91098F739927089588ED91E0F4
:1002A0000E94420121E0892B09F420E0822F089569
:1002B00080E090E0892B29F00E944E0181110C947E
:1002C00000000895FC01A48DA80FB92FB11DA35AF9
:1002D000BF4F2C91848D90E001968F739927848F66
:1002E000A689B7892C93A089B1898C918370806489
:1002F0008C93938D848D981306C00288F389E02D2A
:1003000080818F7D80830895EF92FF920F931F93DA
:10031000CF93DF93EC0181E0888F9B8D8C8D9813B8
:100320001AC0E889F989808185FF15C09FB7F894C4
:10033000EE89FF896083E889F98980818370806410
:1003400080839FBF81E090E0DF91CF911F910F915B
:10035000FF90EF900895F62E0B8D10E00F5F1F4F6A
:100360000F731127E02E8C8D8E110CC00FB607FC79
:10037000FACFE889F989808185FFF5CFCE010E9407
:100380006201F1CFEB8DEC0FFD2FF11DE35AFF4F12
:10039000F0829FB7F8940B8FEA89FB898081806295
:1003A000CFCFCF93DF93EC01888D8823B9F0AA8952
:1003B000BB89E889F9898C9185FD03C0808186FD20
:1003C0000DC00FB607FCF7CF8C9185FFF2CF80816F
:1003D00085FFEDCFCE010E946201E9CFDF91CF9181
:1003E00008952091C8013091C9012817390771F487
:1003F0009091C6018091C701981741F0E091C60124
:10040000F0E0EA57FE4F808190E008958FEF9FEF74
:1004100008950895EF92FF920F931F93CF93DF9368
:10042000DC015C96ED90FC905D97E114F10479F4A9
:1004300081E090E013969C938E93129790E080E079
:10044000DF91CF911F910F91FF90EF9008955196FA
:10045000ED91FC91529750968C915097982F9095D2
:100460000FB75E962C915E97122F127021FD60954A
:10047000F8942081112319F1282B2083E70121977B
:10048000F1F728E0462F50E0308160FF1AC0382B8A
:100490003083E7012197F1F7BA01759567952150EF
:1004A00089F7112381F08081892380830FBF5C96B7
:1004B0008D919C910197F1F781E090E0C1CF2923C4
:1004C000DCCF3923E5CF9081892BEFCF2091C80174
:1004D0003091C9012817390761F48091C701209133
:1004E000C60190E0805C9F4F821B91098F73992712
:1004F000089590E080E008952091C8013091C901ED
:1005000028173907B9F49091C6018091C70198174F
:1005100089F0E091C601F0E0EA57FE4F808120911A
:10052000C60130E02F5F3F4F2F7333272093C60162
:1005300090E008958FEF9FEF089590E080E0089598
:10054000FC0101900020E9F73197AF01481B590BDE
:10055000BC0188ED91E00C94E4008F929F92AF92E1
:10056000BF920F931F93CF93DF93CDB7DEB7A197C1
:100570000FB6F894DEBF0FBECDBF19A2423008F40B
:100580004AE08E010F5D1F4F842E912CB12CA12CBF
:10059000A50194010E945F07E62FB901CA01EA3064
:1005A000F4F4E05DD801EE938D01232B242B252B51
:1005B00079F790E080E0109719F0CD010E94A00239
:1005C000A1960FB6F894DEBF0FBECDBFDF91CF91DD
:1005D0001F910F91BF90AF909F908F900895E95C0D
:1005E000E1CF1F920F920FB60F9211242F933F93DA
:1005F0008F939F93AF93BF938091D0019091D1013E
:10060000A091D201B091D3013091CF0123E0230F0B
:100610002D3758F50196A11DB11D2093CF01809370
:10062000D0019093D101A093D201B093D3018091D6
:10063000D4019091D501A091D601B091D701019636
:10064000A11DB11D8093D4019093D501A093D60133
:10065000B093D701BF91AF919F918F913F912F910F
:100660000F900FBE0F901F90189526E8230F02964B
:10067000A11DB11DD2CF1F920F920FB60F92112460
:100680002F933F934F935F936F937F938F939F939A
:10069000AF93BF93EF93FF9388ED91E00E946201C7
:1006A000FF91EF91BF91AF919F918F917F916F914A
:1006B0005F914F913F912F910F900FBE0F901F9020
:1006C00018951F920F920FB60F9211242F938F93AC
:1006D0009F93EF93FF93E091E801F091E90180810E
:1006E000E091EE01F091EF0182FD1BC090818091BD
:1006F000F1018F5F8F732091F201821741F0E09139
:10070000F101F0E0E852FE4F958F8093F101FF91E7
:10071000EF919F918F912F910F900FBE0F901F908F
:1007200018958081F4CF1F920F920FB60F9211246B
:100730002F933F934F935F936F937F938F939F93E9
:10074000AF93BF93EF93FF93E091C801F091C9017C
:10075000309749F0A685B7858585968D91FF14C0A1
:100760009C918923A1F4FF91EF91BF91AF919F914B
:100770008F917F916F915F914F913F912F910F904A
:100780000FBE0F901F9018959C91892361F7A38944
:10079000B4899C918589809589238C9386899789D2
:1007A0000197F1F7608D718DA685B785558538E085
:1007B00020E0CB010197F1F7822F90E09595879586
:1007C000282F4C91452309F02068315091F7868DF0
:1007D00081FD20958091C70190E001968F73992744
:1007E0003091C601381799F0A091C701B0E0AA571F
:1007F000BE4F2C938093C701828D938D0197F1F7A3
:10080000A389B4898C919589892B8C93ACCF868DE3
:100810008160868FF1CF90E0FC01E859FF4F249171
:10082000FC01E255FF4F3491FC01E656FF4FE49185
:10083000EE23C9F0222339F0233001F1A8F421304E
:1008400019F1223029F1F0E0EE0FFF1FE057FF4FC2
:10085000A591B4918FB7F894EC91611126C03095B1
:100860003E233C938FBF08952730A9F02830C9F06C
:10087000243049F7809180008F7D03C080918000F3
:100880008F7780938000DFCF84B58F7784BDDBCFF7
:1008900084B58F7DFBCF8091B0008F778093B000BF
:1008A000D2CF8091B0008F7DF9CF3E2BDACF0F935E
:1008B0001F93CF93DF931092DB011092DA0188EE41
:1008C00093E0A0E0B0E08093DC019093DD01A09381
:1008D000DE01B093DF0124E031E03093D9012093B1
:1008E000D80125EC30E03093E5012093E40124ECBD
:1008F00030E03093E7012093E60120EC30E03093C4
:10090000E9012093E80121EC30E03093EB012093E2
:10091000EA0122EC30E03093ED012093EC0126EC6B
:1009200030E03093EF012093EE011092F10110922C
:10093000F2011092F3011092F401109278021092D9
:1009400077028093790290937A02A0937B02B0930E
:100950007C0286E191E0909376028093750210927A
:100960008C0210928B0210928E0210928D021092C5
:10097000900210928F021092920210929102609156
:1009800093026E7F6D7F609393026695617081E044
:10099000682783E10E940B0441EC50E0FA01649166
:1009A0008DEA90E0FC012491222399F030E0220F9F
:1009B000331FF901EA57FF4FA591B491F901E057B0
:1009C000FF4F259134912FB7F8943C91632B6C9392
:1009D0002FBFFA01449140938502FC018491E82FD6
:1009E000F0E0EE0FFF1FE057FF4F85919491909339
:1009F00087028093860200EC10E0F8012491CCEA93
:100A0000D0E0FE0184918823C9F090E0880F991FFF
:100A1000FC01EA57FF4FA591B491FC01E057FF4F4D
:100A2000459154913FB7F8949C91822F80959823DB
:100A30009C93FA019081892380833FBF8091930228
:100A400081FD04C061E082E10E940B0482E1809399
:100A50008102F801049100938202FE01C491EC2FFF
:100A6000F0E0EE0FFF1FE458FF4F859194919093B3
:100A7000840280938302DF91CF911F910F9108959B
:100A8000789484B5826084BD84B5816084BD85B569
:100A9000826085BD85B5816085BD80916E00816075
:100AA00080936E001092810080918100826080931B
:100AB000810080918100816080938100809180001D
:100AC0008160809380008091B10084608093B10048
:100AD0008091B00081608093B00080917A00846042
:100AE00080937A0080917A00826080937A0080916E
:100AF0007A00816080937A0080917A008068809388
:100B00007A001092C100E091E801F091E90182E0E1
:100B10008083E091E401F091E5011082E091E6012B
:100B2000F091E7018FEC80831092F001E091EC01ED
:100B3000F091ED0186E08083E091EA01F091EB0114
:100B4000808180618083E091EA01F091EB018081F6
:100B500088608083E091EA01F091EB0180818068F8
:100B60008083E091EA01F091EB0180818F7D8083A9
:100B70001092900210928F0210928E0210928D02AB
:100B800010928C0210928B028DE991E09093920268
:100B90008093910290918102963108F047C02DEB2D
:100BA00030E030938C0220938B022BE931E03093BC
:100BB0008E0220938D022CE231E03093900220933C
:100BC0008F022091680084E0983048F031E09E3038
:100BD00008F430E081E001C0880F3A95EAF7822BF3
:100BE000809368002DE630E0983050F02BE630E03E
:100BF0009E3030F02CE630E0963110F030E020E00E
:100C00003093890220938802292F30E0983008F031
:100C1000B9C081E001C0880F9A95EAF780938A02F3
:100C200080919102909192020197F1F780918F0249
:100C300090919002892B49F1E091C801F091C9018E
:100C400082E0E537F80709F1309739F0A389B489D4
:100C50009C918589809589238C93809193028E7FC6
:100C6000809393021092C7011092C60185E792E02B
:100C70009093C9018093C801E0918802F0918902A4
:100C8000808190918A02892B80838BE291E00E947F
:100C9000A00281E591E00E94A00264EF71E080E093
:100CA00090E00E94B200C0E0D0E085E792E00E94B0
:100CB0006602181619060CF0D2C00091CC01009300
:100CC000CB01F090CD01F092CC011091CE011093A8
:100CD000CD0185E792E00E947C028093CE010F3F18
:100CE00021F79F2D910F91508913DFCF7F2D612F19
:100CF00090E080E00E949A0820E030E040E251E479
:100D00000E94F9076B017C0120E030E040E051E4F3
:100D10000E94F407181654F011E020E030E0A90119
:100D2000C701B6010E944C0918160CF010E0109390
:100D3000CA0184E591E00E94A002A7019601C701C3
:100D4000B6010E94BE09882351F18FE591E00E940F
:100D5000A0028BE691E00E94A0028091CA0181115D
:100D60008FC084E291E00E94A00281E591E00E94A0
:100D7000A0021092CE011092CD011092CC011092DF
:100D8000CB0193CF9E3040F42850310981E001C05F
:100D9000880F2A95EAF742CF2E503109F7CF2FEF6F
:100DA0003FEF4FE75FE7C701B6010E94BE0981111F
:100DB0000DC02FEF3FEF4FE75FE7C701B6010E947D
:100DC000F40718161CF483E691E0C1CF2FEF3FEF34
:100DD0004FE75FE4C701B6010E944C0918161CF4E6
:100DE00087E691E0B4CF2FEF3FEF4FE75FECC7010D
:100DF000B6010E94F40787FDF3CF2DEC3CEC4CE4E8
:100E00005DE3C701B6010E9488074B015C010E94A7
:100E10006B086B017C010E949A089B01AC01C50123
:100E2000B4010E9487074B015C014AE0C701B6018B
:100E30000E94AD026EE288ED91E00E94840120E004
:100E400030E040E251E4C501B4010E9451090E9422
:100E50006B0890E080E04AE00E94AD027ACF6AE041
:100E600070E080E090E00E94B200209709F41DCF6E
:100E70000E944E01882309F418CF0E94000015CF6C
:100E800087E291E070CF86E191E0909376028093C3
:100E900075028091C8019091C9018557924071F403
:100EA000E0918802F0918902908180918A02809578
:100EB000892380831092C9011092C8010895A1E28C
:100EC0001A2EAA1BBB1BFD010DC0AA1FBB1FEE1FC4
:100ED000FF1FA217B307E407F50720F0A21BB30B0F
:100EE000E40BF50B661F771F881F991F1A9469F78B
:100EF00060957095809590959B01AC01BD01CF01E7
:100F00000895EE0FFF1F0590F491E02D09945058BD
:100F1000BB27AA270E949F070C9412090E9404096C
:100F200038F00E940B0920F039F49F3F19F426F4A1
:100F30000C9401090EF4E095E7FB0C94FB08E92FF3
:100F40000E94230958F3BA176207730784079507AD
:100F500020F079F4A6F50C9445090EF4E0950B2EDB
:100F6000BA2FA02D0B01B90190010C01CA01A001FB
:100F70001124FF27591B99F0593F50F4503E68F156
:100F80001A16F040A22F232F342F4427585FF3CF97
:100F9000469537952795A795F0405395C9F77EF468
:100FA0001F16BA0B620B730B840BBAF09150A1F0B1
:100FB000FF0FBB1F661F771F881FC2F70EC0BA0F37
:100FC000621F731F841F48F4879577956795B795BF
:100FD000F7959E3F08F0B0CF9395880F08F09927BA
:100FE000EE0F9795879508950E94D70808F481E041
:100FF00008950E940D080C9412090E940B0958F0E4
:101000000E94040940F029F45F3F29F00C94FB088A
:1010100051110C9446090C9401090E94230968F3AC
:101020009923B1F3552391F3951B550BBB27AA27A1
:1010300062177307840738F09F5F5F4F220F331FDB
:10104000441FAA1FA9F335D00E2E3AF0E0E832D0A3
:1010500091505040E695001CCAF72BD0FE2F29D0A6
:10106000660F771F881FBB1F261737074807AB0778
:10107000B0E809F0BB0B802DBF01FF2793585F4FED
:101080003AF09E3F510578F00C94FB080C94460909
:101090005F3FE4F3983ED4F3869577956795B795CF
:1010A000F7959F5FC9F7880F911D9695879597F9DA
:1010B0000895E1E0660F771F881FBB1F6217730753
:1010C0008407BA0720F0621B730B840BBA0BEE1F68
:1010D00088F7E09508950E942B0988F09F5798F0B3
:1010E000B92F9927B751B0F0E1F0660F771F881F2D
:1010F000991F1AF0BA95C9F714C0B13091F00E9447
:101100004509B1E008950C944509672F782F882789
:10111000B85F39F0B93FCCF3869577956795B3956D
:10112000D9F73EF490958095709561957F4F8F4FDC
:101130009F4F0895E89409C097FB3EF490958095E1
:10114000709561957F4F8F4F9F4F9923A9F0F92F8D
:1011500096E9BB279395F695879577956795B7950B
:10116000F111F8CFFAF4BB0F11F460FF1BC06F5FF1
:101170007F4F8F4F9F4F16C0882311F096E911C003
:10118000772321F09EE8872F762F05C0662371F024
:1011900096E8862F70E060E02AF09A95660F771F38
:1011A000881FDAF7880F9695879597F90895990F14
:1011B0000008550FAA0BE0E8FEEF16161706E80721
:1011C000F907C0F012161306E407F50798F0621B42
:1011D000730B840B950B39F40A2661F0232B242B17
:1011E000252B21F408950A2609F4A140A6958FEF36
:1011F000811D811D089597F99F6780E870E060E088
:1012000008959FEF80EC089500240A94161617069F
:1012100018060906089500240A94121613061406E7
:1012200005060895092E0394000C11F4882352F04A
:10123000BB0F40F4BF2B11F460FF04C06F5F7F4F02
:101240008F4F9F4F089557FD9058440F551F59F0E9
:101250005F3F71F04795880F97FB991F61F09F3FA3
:1012600079F087950895121613061406551FF2CFCC
:101270004695F1DF08C0161617061806991FF1CF1C
:1012800086957105610508940895E894BB27662743
:101290007727CB0197F908950E94D70808F48FEFBC
:1012A00008950E9464090C9412090E94040938F000
:1012B0000E940B0920F0952311F00C94FB080C946C
:1012C000010911240C9446090E94230970F3959F8B
:1012D000C1F3950F50E0551F629FF001729FBB272D
:1012E000F00DB11D639FAA27F00DB11DAA1F649FC9
:1012F0006627B00DA11D661F829F2227B00DA11D7C
:10130000621F739FB00DA11D621F839FA00D611D01
:10131000221F749F3327A00D611D231F849F600D22
:10132000211D822F762F6A2F11249F5750409AF04B
:10133000F1F088234AF0EE0FFF1FBB1F661F771FD7
:10134000881F91505040A9F79E3F510580F00C94A2
:10135000FB080C9446095F3FE4F3983ED4F386956E
:1013600077956795B795F795E7959F5FC1F7FE2B42
:10137000880F911D9695879597F908950E94D70833
:10138000880B990B089510E0C2E6D0E004C0FE017E
:101390000E9481072196C336D107C9F7F894FFCF81
:1013A000000000008401E4001101D101420120018C
:1013B0003401000000000A02E4009D0209026602F6
:1013C0007C02F1014E4F00594553004459502D41C4
:1013D00030325959474457204F626A65637420443C
:1013E0006574656374696F6E2053746172746564AB
:1013F000000D0A0044697374616E63653A20006EE3
:10140000616E00696E66006F76660020636D202055
:101410007C20204F626A6563742044657465637440
:0614200065643A200000A3
:00000001FF
