:100000000C9462000C948A000C948A000C944A05AB
:100010000C944A050C944A050C948A000C948A00AE
:100020000C948A000C948A000C948A000C948A0028
:100030000C948A000C948A000C948A000C948A0018
:100040000C94C2050C948A000C9432060C940C0695
:100050000C948A000C948A000C948A000C948A00F8
:100060000C948A000C948A000000000023002600F3
:10007000290000000000240027002A0000000000E2
:10008000250028002B0004040404040404040202D4
:100090000202020203030303030301020408102007
:1000A0004080010204081020010204081020000012
:1000B0000008000201000003040700000000000027
:1000C0000000550911241FBECFEFD8E0DEBFCDBF21
:1000D00012E0A0E0B1E0EEE8FAE102C005900D9276
:1000E000AC3DB107D9F724E0ACEDB2E001C01D9200
:1000F000AF30B207E1F710E0C2E6D0E004C02197CC
:10010000FE010E94C309C136D107C9F70E946406E7
:100110000C94450D0C94000090E0FC01E255FF4F5B
:100120002491FC01E656FF4F3491FC01EA57FF4F42
:10013000E491EE23C9F0222339F0233001F1A8F431
:10014000213019F1223029F1F0E0EE0FFF1FE458C1
:10015000FF4FA591B4918FB7F894EC91611126C02F
:1001600030953E233C938FBF08952730A9F0283067
:10017000C9F0243049F7809180008F7D03C08091C1
:1001800080008F7780938000DFCF84B58F7784BD28
:10019000DBCF84B58F7DFBCF8091B0008F778093CC
:1001A000B000D2CF8091B0008F7DF9CF3E2BDACF57
:1001B00020912303309124032817390771F490917B
:1001C000220380912103981741F0E0912203F0E08F
:1001D000EF51FD4F808190E008958FEF9FEF0895DC
:1001E0000895EF92FF920F931F93CF93DF93DC015B
:1001F0005C96ED90FC905D97E114F10479F481E058
:1002000090E013969C938E93129790E080E0DF919C
:10021000CF911F910F91FF90EF9008955196ED911E
:10022000FC91529750968C915097982F90950FB7BC
:100230005E962C915E97122F127021FD6095F894B6
:100240002081112319F1282B2083E7012197F1F751
:1002500028E0462F50E0308160FF1AC0382B3083F1
:10026000E7012197F1F7BA0175956795215089F754
:10027000112381F08081892380830FBF5C968D914B
:100280009C910197F1F781E090E0C1CF2923DCCF69
:100290003923E5CF9081892BEFCF20912303309133
:1002A00024032817390761F4809121032091220348
:1002B00090E0805C9F4F821B91098F73992708956E
:1002C00090E080E0089520912303309124032817C3
:1002D0003907B9F49091220380912103981789F08E
:1002E000E0912203F0E0EF51FD4F80812091220345
:1002F00030E02F5F3F4F2F7333272093220390E08E
:1003000008958FEF9FEF0895E0912303F091240368
:10031000E817F90769F4A389B4899C9185898095C8
:1003200089238C93109224031092230381E0089573
:1003300080E008953FB7F8948091DD029091DE024D
:10034000A091DF02B091E00226B5A89B05C02F3F27
:1003500019F00196A11DB11D3FBFBA2FA92F982FEB
:100360008827BC01CD01620F711D811D911D42E0E6
:10037000660F771F881F991F4A95D1F708958F92AE
:100380009F92AF92BF92CF92DF92EF92FF924B017A
:100390005C010E949A016B017C010E949A016C1918
:1003A0007D098E099F09683E734081059105A8F378
:1003B00021E0821A9108A108B10888EEC80E83E0F6
:1003C000D81EE11CF11C81149104A104B10429F789
:1003D000FF90EF90DF90CF90BF90AF909F908F9065
:1003E0000895AF92BF92CF92DF92EF92FF920F9358
:1003F0001F93CF93DF936C017B018B01040F151FBB
:10040000EB015E01AE18BF08C017D10759F0699122
:10041000D601ED91FC910190F081E02DC601099586
:10042000892B79F7C501DF91CF911F910F91FF9033
:10043000EF90DF90CF90BF90AF90089590E080E074
:100440000895FC01538D448D252F30E0842F90E0DA
:10045000821B930B541710F0CF96089501970895BF
:10046000FC01918D828D981761F0A28DAE0FBF2F88
:10047000B11D5D968C91928D9F5F9F73928F90E0DE
:1004800008958FEF9FEF0895FC01918D828D98174D
:1004900031F0828DE80FF11D858D90E008958FEF8A
:1004A0009FEF0895FC01918D228D892F90E0805C53
:1004B0009F4F821B91098F73992708958EE693E0D1
:1004C0000E94520221E0892B09F420E0822F089536
:1004D00080E090E0892B29F00E945E0281110C944B
:1004E00000000895FC01A48DA80FB92FB11DA35AD7
:1004F000BF4F2C91848D90E001968F739927848F44
:10050000A689B7892C93A089B1898C918370806466
:100510008C93938D848D981306C00288F389E02D07
:1005200080818F7D80830895EF92FF920F931F93B8
:10053000CF93DF93EC0181E0888F9B8D8C8D981396
:100540001AC0E889F989808185FF15C09FB7F894A2
:10055000EE89FF896083E889F989808183708064EE
:1005600080839FBF81E090E0DF91CF911F910F9139
:10057000FF90EF900895F62E0B8D10E00F5F1F4F48
:100580000F731127E02E8C8D8E110CC00FB607FC57
:10059000FACFE889F989808185FFF5CFCE010E94E5
:1005A0007202F1CFEB8DEC0FFD2FF11DE35AFF4FDF
:1005B000F0829FB7F8940B8FEA89FB898081806273
:1005C000CFCFCF93DF93EC01888D8823B9F0AA8930
:1005D000BB89E889F9898C9185FD03C0808186FDFE
:1005E0000DC00FB607FCF7CF8C9185FFF2CF80814D
:1005F00085FFEDCFCE010E947202E9CFDF91CF914E
:100600000895FC0101900020E9F73197AF01481BE4
:10061000590BBC018EE693E00C94F1018F929F92EE
:10062000AF92BF920F931F93CF93DF93CDB7DEB7F7
:10063000A1970FB6F894DEBF0FBECDBF19A242300E
:1006400008F44AE08E010F5D1F4F842E912CB12CCF
:10065000A12CA50194010E948209E62FB901CA01CB
:10066000EA30F4F4E05DD801EE938D01232B242BC6
:10067000252B79F790E080E0109719F0CD010E94CA
:100680000103A1960FB6F894DEBF0FBECDBFDF9178
:10069000CF911F910F91BF90AF909F908F90089531
:1006A000E95CE1CFCF93DF930E940103EC0180E38B
:1006B00091E00E9401038C0F9D1FDF91CF9108955F
:1006C0004F925F926F927F928F929F92AF92BF9262
:1006D000CF92DF92EF92FF920F931F93CF936B0114
:1006E0007C01742EAC019B010E94000C882399F0C0
:1006F00083E391E0CF911F910F91FF90EF90DF90F6
:10070000CF90BF90AF909F908F907F906F905F90B1
:100710004F900C94010346015701E894B7F82FEF6E
:100720003FEF4FE75FE7C501B4010E94000C811164
:100730000DC02FEF3FEF4FE75FE7C501B4010E9407
:10074000360A18161CF487E391E0D4CF2FEF3FEF61
:100750004FE75FE4C701B6010E948E0B18161CF428
:100760008BE391E0C7CF2FEF3FEF4FE75FECC7017F
:10077000B6010E94360A87FDF3CF20E030E0A901E0
:10078000C701B6010E94360A10E000E087FF0AC0E8
:100790006DE28EE693E00E9494028C01F7FAF094E9
:1007A000F7F8F094C0E060E070E080E09FE37C1632
:1007B00041F020E030E040E251E40E943B0ACF5F8C
:1007C000F6CFA70196010E94CA092B013C010E94A5
:1007D000AD0A4B015C014AE00E940E037C01E00E71
:1007E000F11ECC23C1F1C501B4010E94DC0A9B01BA
:1007F000AC01C301B2010E94C9094B015C016EE268
:100800008EE693E00E949402E80EF91EC15018F1A2
:1008100020E030E040E251E4C501B4010E94930BB6
:100820002B013C010E94AD0A4B01B12CA12C4AE0E6
:10083000C501B4010E940E03E80EF91EC501B40102
:100840000E94DC0A9B01AC01C301B2010E94C909EC
:100850004B015C01DBCFC701CF911F910F91FF903E
:10086000EF90DF90CF90BF90AF909F908F907F9050
:100870006F905F904F9008958F929F92AF92BF922A
:10088000EF92FF920F931F93CF93DF9320916D030D
:10089000222309F4F9C020916B0330916C03232BC0
:1008A00009F4F2C08C0110926A0310926903E9E224
:1008B000F3E080E4DF011D928A95E9F78FB7F894A1
:1008C0008090250390902603A0902703B0902803E2
:1008D0008FBF80916B0390916C03DC01ED91FC91D3
:1008E0000084F185E02D099518161906FCF42FB740
:1008F000F8948091250390912603A0912703B0914D
:1009000028032FBF88199909AA09BB09C297A10515
:10091000B10560F480916B0390916C03DC01ED9163
:10092000FC910284F385E02D0995D3CF8FB7F8941D
:100930008090250390902603A0902703B090280371
:100940008FBF2FB7F8948091250390912603A09133
:100950002703B09128032FBF88199909AA09BB0959
:1009600085369105A105B10508F091C080916B0312
:1009700090916C03DC01ED91FC910084F185E02DF8
:100980000995181619060CF078C080916B039091A8
:100990006C03DC01ED91FC910284F385E02D099557
:1009A000EC0197FDE3CF8091690390916A03803455
:1009B000910508F052C09C012F5F3F4F30936A03AE
:1009C00020936903875D9C4FFC01C083E09069031D
:1009D000F0906A03A4E0EA16F10440F2E701CB5D6F
:1009E000DC4F88818F3F11F689819A81890F815070
:1009F0009B819813BBCF69817A81762767277627F9
:100A000090E080E00E94DC0A20E030E040E251E427
:100A10000E943B0AF8016083718382839383F4E030
:100A2000EF16F10429F144E050E0BE0189E293E0C1
:100A30000E942A0D84E090E090936A0380936903FA
:100A400090E080E0DF91CF911F910F91FF90EF90A8
:100A5000BF90AF909F908F9008954FE350E06AE26F
:100A600073E089E293E00E942A0DC0936803AECF41
:100A700010926A0310926903E3CF62E070E080E0B5
:100A800090E00E94BF015DCF8EEF9FEFDBCF8FEF35
:100A90009FEFD8CF1F920F920FB60F9211242F9372
:100AA0003F934F935F936F937F938F939F93AF93F6
:100AB000BF93EF93FF93E0912303F09124033097CA
:100AC00049F0A685B7858585968D91FF14C09C91C8
:100AD0008923A1F4FF91EF91BF91AF919F918F91E5
:100AE0007F916F915F914F913F912F910F900FBE2A
:100AF0000F901F9018959C91892361F7A389B48961
:100B00009C918589809589238C9386899789019703
:100B1000F1F7608D718DA685B785558538E020E0A9
:100B2000CB010197F1F7822F90E095958795282FBB
:100B30004C91452309F02068315091F7868D81FD55
:100B400020958091210390E001968F739927309131
:100B50002203381799F0A0912103B0E0AF51BD4FA7
:100B60002C9380932103828D938D0197F1F7A389B4
:100B7000B4898C919589892B8C93ACCF868D8160BB
:100B8000868FF1CF1F920F920FB60F9211242F93E1
:100B90003F938F939F93AF93BF9380912503909141
:100BA0002603A0912703B09128033091DC0223E0B3
:100BB000230F2D3758F50196A11DB11D2093DC029E
:100BC0008093250390932603A0932703B0932803D3
:100BD0008091DD029091DE02A091DF02B091E002EF
:100BE0000196A11DB11D8093DD029093DE02A093BA
:100BF000DF02B093E002BF91AF919F918F913F913F
:100C00002F910F900FBE0F901F90189526E8230F7D
:100C10000296A11DB11DD2CF1F920F920FB60F9257
:100C200011242F933F934F935F936F937F938F93F1
:100C30009F93AF93BF93EF93FF938EE693E00E9451
:100C40007202FF91EF91BF91AF919F918F917F9130
:100C50006F915F914F913F912F910F900FBE0F9029
:100C60001F9018951F920F920FB60F9211242F9379
:100C70008F939F93EF93FF93E0917E03F0917F0317
:100C80008081E0918403F091850382FD1BC09081F7
:100C9000809187038F5F8F7320918803821741F0C3
:100CA000E0918703F0E0E259FC4F958F8093870332
:100CB000FF91EF919F918F912F910F900FBE0F9009
:100CC0001F9018958081F4CFCF93DF93CDB7DEB717
:100CD00028970FB6F894DEBF0FBECDBF789484B5C9
:100CE000826084BD84B5816084BD85B5826085BD28
:100CF00085B5816085BD80916E00816080936E00B6
:100D000010928100809181008260809381008091A7
:100D10008100816080938100809180008160809358
:100D200080008091B10084608093B1008091B00018
:100D300081608093B00080917A00846080937A0013
:100D400080917A00826080937A0080917A0081603D
:100D500080937A0080917A00806880937A00109264
:100D6000C100E0917E03F0917F0382E08083E091F7
:100D70007A03F0917B031082E0917C03F0917D0374
:100D80008FEC808310928603E0918203F0918303BD
:100D900086E08083E0918003F0918103808180610F
:100DA0008083E0918003F09181038081886080835B
:100DB000E0918003F0918103808180688083E091DD
:100DC0008003F091810380818F7D80838FE391E0A8
:100DD0000E94520388E691E00E94520387E891E066
:100DE0000E94520386EA91E00E9452038FE391E051
:100DF0000E94520380E391E00E94010380916D0301
:100E0000882371F080916B0390916C03009731F00F
:100E10000E94840110926C0310926B0310926D0378
:100E200082E190E0909305018093040183E190E0DA
:100E3000909303018093020180E895E29093010171
:100E4000809300018FE190E00E94050C8C01DC0191
:100E500013961C921E92129788EE93E0A0E0B0E0E9
:100E6000F80184839583A683B78382E291E091831E
:100E70008083178A168A118E108E138E128E158E0D
:100E8000148E668D6E7F6D7F668F6695617081E0D2
:100E9000682783E10E948C004DEA50E0FA016491DA
:100EA00089E990E0FC012491222399F030E0220F9F
:100EB000331FF901EE58FF4FA591B491F901E458A1
:100EC000FF4F259134912FB7F8943C91632B6C938D
:100ED0002FBFFA014491D80150964C935097FC01D2
:100EE0008491E82FF0E0EE0FFF1FE458FF4F85914B
:100EF000949152969C938E9351975CEAC52E50E044
:100F0000D52EF601249168E9E62E60E0F62EF70171
:100F100084918823C9F090E0880F991FFC01EE5856
:100F2000FF4FA591B491FC01E458FF4F45915491B6
:100F30003FB7F8949C91822F809598239C93DA0177
:100F40009C9189238C933FBFF801868D81FD04C05D
:100F500061E082E10E948C0082E1D8011C968C93B2
:100F60001C97F601C4901D96CC921D97F701E49052
:100F7000EE2DF0E0EE0FFF1FE859FF4F85919491A1
:100F80001F969C938E931E9710936C0300936B0394
:100F90000115110559F485EC91E00E94520368EEA9
:100FA00073E080E090E00E94BF01F9CF2091000142
:100FB00030910101032E000C440B550B60E079E0E9
:100FC0008DE390E00E94A409B901C9010397243080
:100FD000310510F481E090E0F801958F848FC9010C
:100FE000969587958431910508F449C14397D801B6
:100FF00057969C938E935697C90105976630710555
:1010000010F481E090E0F801918F808FC901880F82
:10101000991F280F391F36952795369527952D301E
:10102000310508F42FC12C503109D8015B963C934F
:101030002E935A97809168008260809368001C9676
:101040009C912DE630E0983050F02BE630E09E3059
:1010500030F02CE630E0963110F030E020E0F8017E
:10106000348B238B292F30E0983008F00EC181E0BB
:1010700001C0880F9A95EAF7D80155968C93559739
:101080005C968D919C910197F1F7F801828D938D7B
:10109000892B21F1809123039091240308171907CC
:1010A000E9F0009711F00E948401D8015E968C91BE
:1010B0005E978E7F5E968C935E97109221031092BE
:1010C000220310932403009323035396ED91FC9184
:1010D0005497808155969C91892B808310926A0346
:1010E0001092690381E080936D0382EE91E00E948B
:1010F000520383E092E00E94520380E391E00E9459
:10110000010368EE73E080E090E00E94BF0180E0A0
:10111000282E80E0382E1D821E821F82188619829A
:101120001A821B821C82CE0101960E943C04412C33
:10113000512C3201892B61F420E030E040E251E48F
:1011400069817A818B819C810E94930B2B013C01E8
:10115000CE0105960E943C048C0119821A821B82E2
:101160001C82CE0101960E943C04812C912C5401DA
:10117000892B61F42AE037ED43E25CE369817A81EF
:101180008B819C810E94930B4B015C0119821A8216
:101190001B821C82CE0101960E943C04C12CD12CE2
:1011A0007601892B61F42AE132E646E05DE369814C
:1011B0007A818B819C810E94930B6B017C018DEB6A
:1011C00092E0012B09F047C084E292E00E945203B2
:1011D0008DE492E00E94010341E0C301B2010E944C
:1011E000600388E592E00E9401036D817E818F811A
:1011F000988542E00E94600381E692E00E9401032C
:1012000043E0C501B4010E9460038AE692E00E94B7
:10121000010343E0C701B6010E94600382E792E048
:101220000E945203CD80DE80EF80F88420E030E021
:10123000A901C701B6010E948E0B18169CF520E08B
:1012400030E040E051E4C701B6010E94360A1816AA
:101250004CF186E792E00E94520364EF71E080E077
:1012600090E00E94BF012114310409F454CF0E9480
:101270005E02882309F44FCF0E9400004CCF81E02A
:1012800090E0B5CE21E030E0D0CE9E3040F4285042
:10129000310981E001C0880F2A95EAF7EDCE2E5082
:1012A0003109F7CF88E992E0D6CFEEE6F3E013827A
:1012B000128288EE93E0A0E0B0E084839583A68359
:1012C000B78380E191E09183808385EC90E09587FE
:1012D000848784EC90E09787868780EC90E0918B00
:1012E000808B81EC90E0938B828B82EC90E0958BED
:1012F000848B86EC90E0978B868B118E128E138EEA
:10130000148E0895A1E21A2EAA1BBB1BFD010DC06D
:10131000AA1FBB1FEE1FFF1FA217B307E407F507A5
:1013200020F0A21BB30BE40BF50B661F771F881F81
:10133000991F1A9469F760957095809590959B0117
:10134000AC01BD01CF010895052E97FB1EF400945A
:101350000E94BB0957FD07D00E94820907FC03D0F9
:101360004EF40C94BB0950954095309521953F4F14
:101370004F4F5F4F089590958095709561957F4F81
:101380008F4F9F4F0895EE0FFF1F0590F491E02DB2
:1013900009945058BB27AA270E94E1090C94540BCA
:1013A0000E94460B38F00E944D0B20F039F49F3F0D
:1013B00019F426F40C94430B0EF4E095E7FB0C941F
:1013C0003D0BE92F0E94650B58F3BA1762077307AC
:1013D0008407950720F079F4A6F50C94870B0EF49A
:1013E000E0950B2EBA2FA02D0B01B90190010C0135
:1013F000CA01A0011124FF27591B99F0593F50F44D
:10140000503E68F11A16F040A22F232F342F4427A4
:10141000585FF3CF469537952795A795F04053959C
:10142000C9F77EF41F16BA0B620B730B840BBAF06C
:101430009150A1F0FF0FBB1F661F771F881FC2F7D7
:101440000EC0BA0F621F731F841F48F487957795EB
:101450006795B795F7959E3F08F0B0CF9395880FA5
:1014600008F09927EE0F9795879508950E94190B1C
:1014700008F481E008950E944F0A0C94540B0E94D6
:101480004D0B58F00E94460B40F029F45F3F29F0C5
:101490000C943D0B51110C94880B0C94430B0E943F
:1014A000650B68F39923B1F3552391F3951B550B05
:1014B000BB27AA2762177307840738F09F5F5F4F27
:1014C000220F331F441FAA1FA9F335D00E2E3AF066
:1014D000E0E832D091505040E695001CCAF72BD07E
:1014E000FE2F29D0660F771F881FBB1F26173707CF
:1014F0004807AB07B0E809F0BB0B802DBF01FF2701
:1015000093585F4F3AF09E3F510578F00C943D0B95
:101510000C94880B5F3FE4F3983ED4F3869577955F
:101520006795B795F7959F5FC9F7880F911D9695B9
:10153000879597F90895E1E0660F771F881FBB1F15
:10154000621773078407BA0720F0621B730B840BC2
:10155000BA0BEE1F88F7E09508950E946D0B88F096
:101560009F5798F0B92F9927B751B0F0E1F0660F67
:10157000771F881F991F1AF0BA95C9F714C0B130A8
:1015800091F00E94870BB1E008950C94870B672FB0
:10159000782F8827B85F39F0B93FCCF386957795D7
:1015A0006795B395D9F73EF49095809570956195C0
:1015B0007F4F8F4F9F4F0895E89409C097FB3EF4EB
:1015C00090958095709561957F4F8F4F9F4F992390
:1015D000A9F0F92F96E9BB279395F695879577950E
:1015E0006795B795F111F8CFFAF4BB0F11F460FFCE
:1015F0001BC06F5F7F4F8F4F9F4F16C0882311F026
:1016000096E911C0772321F09EE8872F762F05C039
:10161000662371F096E8862F70E060E02AF09A95D4
:10162000660F771F881FDAF7880F9695879597F9C9
:101630000895990F0008550FAA0BE0E8FEEF161663
:101640001706E807F907C0F012161306E407F507B6
:1016500098F0621B730B840B950B39F40A2661F02A
:10166000232B242B252B21F408950A2609F4A140CD
:10167000A6958FEF811D811D089597F99F6780E8DA
:1016800070E060E008959FEF80EC089500240A94D4
:101690001616170618060906089500240A9412164D
:1016A0001306140605060895092E0394000C11F480
:1016B000882352F0BB0F40F4BF2B11F460FF04C02D
:1016C0006F5F7F4F8F4F9F4F089557FD9058440F86
:1016D000551F59F05F3F71F04795880F97FB991F91
:1016E00061F09F3F79F0879508951216130614064E
:1016F000551FF2CF4695F1DF08C0161617061806DB
:10170000991FF1CF86957105610508940895E894B5
:10171000BB2766277727CB0197F908950E94190BFD
:1017200008F48FEF08950E94A60B0C94540B0E94AE
:10173000460B38F00E944D0B20F0952311F00C94CD
:101740003D0B0C94430B11240C94880B0E94650BE9
:1017500070F3959FC1F3950F50E0551F629FF00104
:10176000729FBB27F00DB11D639FAA27F00DB11D1D
:10177000AA1F649F6627B00DA11D661F829F2227A6
:10178000B00DA11D621F739FB00DA11D621F839F2D
:10179000A00D611D221F749F3327A00D611D231F03
:1017A000849F600D211D822F762F6A2F11249F5751
:1017B00050409AF0F1F088234AF0EE0FFF1FBB1F54
:1017C000661F771F881F91505040A9F79E3F510513
:1017D00080F00C943D0B0C94880B5F3FE4F3983E33
:1017E000D4F3869577956795B795F795E7959F5FBD
:1017F000C1F7FE2B880F911D9695879597F908954F
:101800000E94190B880B990B08950F931F93CF9388
:10181000DF938230910510F482E090E0E0910D04B6
:10182000F0910E0430E020E0B0E0A0E0309799F4B1
:101830002115310509F44AC0281B390B2430310524
:10184000D8F58A819B816115710589F1FB0193832C
:101850008283FE0111C040815181028113814817AA
:101860005907E0F04817590799F4109761F012965C
:101870000C93129713961C933296CF01DF91CF9160
:101880001F910F91089500930D0410930E04F4CF4F
:101890002115310551F04217530738F0A901DB013A
:1018A0009A01BD01DF01F801C1CFEF01F9CF90939B
:1018B0000E0480930D04CDCFFE01E20FF31F819340
:1018C00091932250310939832883D7CF20910B047B
:1018D00030910C04232B41F420910801309109012F
:1018E00030930C0420930B042091060130910701E2
:1018F0002115310541F42DB73EB740910A015091B1
:101900000B01241B350BE0910B04F0910C04E21742
:10191000F307A0F42E1B3F0B2817390778F0AC0112
:101920004E5F5F4F2417350748F04E0F5F1F5093EF
:101930000C0440930B04819391939FCFF0E0E0E07F
:101940009CCFCF93DF930097E9F0FC01329713828D
:101950001282A0910D04B0910E04ED0130E020E060
:101960001097A1F420813181820F931F20910B04E5
:1019700030910C042817390709F061C0F0930C046A
:10198000E0930B04DF91CF910895EA01CE17DF07B2
:10199000E8F54A815B819E0141155105B1F7E901E6
:1019A000FB83EA8349915991C40FD51FEC17FD07BA
:1019B00061F4808191810296840F951FE9019983DA
:1019C0008883828193819B838A83F0E0E0E0129692
:1019D0008D919C9113970097B9F52D913C9111979A
:1019E000CD010296820F931F20910B0430910C04BD
:1019F0002817390739F6309751F510920E041092D6
:101A00000D04B0930C04A0930B04BCCFD383C2830A
:101A100040815181840F951FC817D90761F44E5F2B
:101A20005F4F88819981480F591F518340838A8174
:101A30009B81938382832115310509F0B0CFF09308
:101A40000E04E0930D049ECFFD01DC01C0CF138294
:101A50001282D7CF6817790768F4FB01DC01E40F25
:101A6000F51FA40FB51F02C002900E9241505040C6
:101A7000D8F708950C943C0DFB01DC0102C00190E5
:0E1A80000D9241505040D8F70895F894FFCFD2
:101A8E008025FFFFFFFF00000F0480000000000014
:101A9E009402F1012102E1025202300244020000DE
:101AAE000000F100F1011E02F0004D016301D800AB
:101ABE000D0A006E616E00696E66006F7666003DFF
:101ACE003D3D3D3D3D3D3D3D3D3D3D3D3D3D3D3D38
:101ADE003D3D3D3D3D3D3D3D3D3D3D3D3D3D3D3D28
:101AEE003D3D3D3D3D3D3D0020204459502D413072
:101AFE00325959474457204D756C74692D556E698E
:101B0E007420546573740020205573696E67206CC1
:101B1E006962726172792066756E6374696F6E7335
:101B2E00206F6E6C790020205468726573686F6C3C
:101B3E00643A203C203820636D203D2044455445B6
:101B4E0043544544004552524F523A206479705FD7
:101B5E00756172745F696E6974206661696C656423
:101B6E00210053656E736F7220696E697469616CC2
:101B7E00697A6564207375636365737366756C6CDF
:101B8E0079210052656164696E67206469737461BE
:101B9E006E636520657665727920353030206D7301
:101BAE002E2E2E002D2D2D2D2D2D2D2D2D2D2D2D81
:101BBE002D2D2D2D2D2D2D2D2D2D2D2D2D2D2D2D47
:101BCE002D2D2D2D2D2D2D2D2D2D2D2D00446973CB
:101BDE0074616E63653A2000206D6D20207C20209C
:101BEE000020636D20207C202000206D20207C2092
:101BFE00200020667400F09F9FA2204F626A6563EA
:101C0E0074204445544543544544207769746869AB
:101C1E006E203820636D2100E29AAA204E6F206F4D
:101C2E00626A6563742064657465637465642028F4
:101C3E006265796F6E64203820636D290054494DBA
:101C4E00454F55542F4552524F52202D204E6F2046
:0C1C5E0076616C6964206672616D65003F
:00000001FF
