:100000000C9462000C948A000C948A000C948A0070
:100010000C948A000C948A000C948A000C948A0038
:100020000C948A000C948A000C948A000C948A0028
:100030000C948A000C948A000C948A000C948A0018
:100040000C94A9020C948A000C9419030C94F302EA
:100050000C948A000C948A000C948A000C948A00F8
:100060000C948A000C948A000000000023002600F3
:10007000290000000000240027002A0000000000E2
:10008000250028002B0004040404040404040202D4
:100090000202020203030303030301020408102007
:1000A0004080010204081020010204081020000012
:1000B0000008000201000003040700000000000027
:1000C0000000510511241FBECFEFD8E0DEBFCDBF29
:1000D00011E0A0E0B1E0E8ECFFE002C005900D9275
:1000E000A035B107D9F721E0A0E5B1E001C01D922C
:1000F000A83FB207E1F710E0C2E6D0E004C02197C4
:10010000FE010E94A005C136D107C9F70E949003E5
:100110000C94E2070C94000090E0FC01E255FF4FC4
:100120002491FC01E656FF4F3491FC01EA57FF4F42
:10013000E491EE23C9F0222339F0233001F1A8F431
:10014000213019F1223029F1F0E0EE0FFF1FE458C1
:10015000FF4FA591B4918FB7F894EC91611126C02F
:1001600030953E233C938FBF08952730A9F0283067
:10017000C9F0243049F7809180008F7D03C08091C1
:1001800080008F7780938000DFCF84B58F7784BD28
:10019000DBCF84B58F7DFBCF8091B0008F778093CC
:1001A000B000D2CF8091B0008F7DF9CF3E2BDACF57
:1001B0003FB7F8948091570190915801A09159014F
:1001C000B0915A0126B5A89B05C02F3F19F00196A2
:1001D000A11DB11D3FBFBA2FA92F982F8827BC01A1
:1001E000CD01620F711D811D911D42E0660F771FC9
:1001F000881F991F4A95D1F70895AF92BF92CF9269
:10020000DF92EF92FF920F931F93CF93DF936C01D6
:100210007B018B01040F151FEB015E01AE18BF08B7
:10022000C017D10759F06991D601ED91FC91019069
:10023000F081E02DC6010995892B79F7C501DF9181
:10024000CF911F910F91FF90EF90DF90CF90BF90D3
:10025000AF900895FC01538D448D252F30E0842FFD
:1002600090E0821B930B541710F0CF9608950197DE
:100270000895FC01918D828D981761F0A28DAE0FCB
:10028000BF2FB11D5D968C91928D9F5F9F73928F52
:1002900090E008958FEF9FEF0895FC01918D828D7E
:1002A000981731F0828DE80FF11D858D90E008954B
:1002B0008FEF9FEF0895FC01918D228D892F90E0A3
:1002C000805C9F4F821B91098F73992708958BE55E
:1002D00091E00E945B0121E0892B09F420E0822F4C
:1002E000089580E090E0892B29F00E946701811138
:1002F0000C9400000895FC01A48DA80FB92FB11D26
:10030000A35ABF4F2C91848D90E001968F7399274B
:10031000848FA689B7892C93A089B1898C91837029
:1003200080648C93938D848D981306C00288F38922
:10033000E02D80818F7D80830895EF92FF920F934F
:100340001F93CF93DF93EC0181E0888F9B8D8C8D81
:1003500098131AC0E889F989808185FF15C09FB775
:10036000F894EE89FF896083E889F9898081837038
:10037000806480839FBF81E090E0DF91CF911F91E7
:100380000F91FF90EF900895F62E0B8D10E00F5F08
:100390001F4F0F731127E02E8C8D8E110CC00FB6DE
:1003A00007FCFACFE889F989808185FFF5CFCE0176
:1003B0000E947B01F1CFEB8DEC0FFD2FF11DE35A75
:1003C000FF4FF0829FB7F8940B8FEA89FB898081F9
:1003D0008062CFCFCF93DF93EC01888D8823B9F073
:1003E000AA89BB89E889F9898C9185FD03C0808140
:1003F00086FD0DC00FB607FCF7CF8C9185FFF2CFBD
:10040000808185FFEDCFCE010E947B01E9CFDF9196
:10041000CF910895FC0101900020E9F73197AF01D9
:10042000481B590BBC018BE591E00C94FD008F92A9
:100430009F92AF92BF920F931F93CF93DF93CDB74D
:10044000DEB7A1970FB6F894DEBF0FBECDBF19A2DD
:10045000423008F44AE08E010F5D1F4F842E912C2C
:10046000B12CA12CA50194010E947E05E62FB901B3
:10047000CA01EA30F4F4E05DD801EE938D01232B3C
:10048000242B252B79F790E080E0109719F0CD010F
:100490000E940A02A1960FB6F894DEBF0FBECDBF30
:1004A000DF91CF911F910F91BF90AF909F908F9050
:1004B0000895E95CE1CF0F931F93CF93C091510151
:1004C00060E08C2F0E948C0083E090E00197F1F7B0
:1004D00061E08C2F0E948C0083E290E00197F1F79D
:1004E00060E08C2F0E948C008091500190E0FC0114
:1004F000E656FF4F6491FC01EA57FF4FE491F0E0AC
:10050000EE0FFF1FE859FF4F8591949100E412E42C
:100510002FE030E0462F0E944B03611571058105E5
:10052000910529F06F5F7F4F8F4F9F4F9F700E9403
:10053000BB0622EB3DE94FEA5EE30E94700720E034
:1005400030E040E05FE30E947007CF911F910F9170
:1005500008951F920F920FB60F9211242F933F937D
:100560008F939F93AF93BF938091530190915401C8
:10057000A0915501B09156013091520123E0230F13
:100580002D3758F50196A11DB11D2093520180937E
:10059000530190935401A0935501B093560180915B
:1005A000570190915801A0915901B0915A010196BB
:1005B000A11DB11D8093570190935801A09359013B
:1005C000B0935A01BF91AF919F918F913F912F911D
:1005D0000F900FBE0F901F90189526E8230F0296DC
:1005E000A11DB11DD2CF1F920F920FB60F921124F1
:1005F0002F933F934F935F936F937F938F939F932B
:10060000AF93BF93EF93FF938BE591E00E947B0143
:10061000FF91EF91BF91AF919F918F917F916F91DA
:100620005F914F913F912F910F900FBE0F901F90B0
:1006300018951F920F920FB60F9211242F938F933C
:100640009F93EF93FF93E0916B01F0916C01808198
:10065000E0917101F091720182FD1BC09081809147
:1006600074018F5F8F7320917501821741F0E091C3
:100670007401F0E0E55AFE4F958F80937401FF916D
:10068000EF919F918F912F910F900FBE0F901F9020
:1006900018958081F4CFCF92DF92EF92FF920F9363
:1006A0001F93E82FF92F05C00150110921093109C5
:1006B00061F1908196239417B9F305C00150110997
:1006C0002109310911F1908196239413F7CFC12CA0
:1006D000D12CE12CF12C0AC08FEFC81AD80AE80AF5
:1006E000F80A0C151D052E053F0579F0808186233B
:1006F000841791F36C2D7D2D8E2D9F2D1F910F91C1
:10070000FF90EF90DF90CF90089560E070E080E080
:1007100090E01F910F91FF90EF90DF90CF900895A0
:10072000789484B5826084BD84B5816084BD85B5CC
:10073000826085BD85B5816085BD80916E008160D8
:1007400080936E001092810080918100826080937E
:100750008100809181008160809381008091800080
:100760008160809380008091B10084608093B100AB
:100770008091B00081608093B00080917A008460A5
:1007800080937A0080917A00826080937A008091D1
:100790007A00816080937A0080917A0080688093EB
:1007A0007A001092C100E0916B01F0916C0182E03F
:1007B0008083E0916701F09168011082E091690106
:1007C000F0916A018FEC808310927301E0916F01C8
:1007D000F091700186E08083E0916D01F0916E01EF
:1007E000808180618083E0916D01F0916E01808154
:1007F00088608083E0916D01F0916E018081806856
:100800008083E0916D01F0916E0180818F7D808306
:1008100089E0809351018AE080935001E3EAF0E09F
:100820002491EFE8F0E08491882399F090E0880F1C
:10083000991FFC01EE58FF4FA591B491FC01E458BB
:10084000FF4F859194918FB7F894EC91E22BEC9344
:100850008FBF8091500190E0FC01E656FF4F24913C
:100860008A579F4FFC0184918823C1F090E0880F44
:10087000991FFC01EE58FF4FC591D491FC01E4583B
:10088000FF4FA591B4919FB7F8948881E22FE0952E
:100890008E2388838C91E823EC939FBFC0E0D0E047
:1008A0000E945B0220E030E040E251E40E94180622
:1008B0006B017C014B015C0182E191E00E940A0224
:1008C000A7019601C701B6010E94DD07882309F43C
:1008D00054C08DE191E00E940A0289E291E00E94F9
:1008E0000A028DE291E00E940A020E945B0220E06F
:1008F00030E040E251E40E94180620E030E040EA97
:1009000051E40E94130687FF08C080E391E00E9433
:100910000A028DE291E00E940A020E94D8004B0177
:100920005C0188EEC82E83E0D82EE12CF12C0E94C9
:10093000D800681979098A099B09683E73408105C6
:100940009105A8F3F1E0CF1AD108E108F10828EEEB
:10095000820E23E0921EA11CB11CC114D104E1043B
:10096000F10429F7209709F49BCF0E94670188239F
:1009700009F496CF0E94000093CF26013701E89436
:1009800077F82FEF3FEF4FE75FE7C301B2010E9417
:10099000DD0781110DC02FEF3FEF4FE75FE7C30188
:1009A000B2010E94130618161CF481E291E093CF65
:1009B0002FEF3FEF4FE75FE4C701B6010E946B07DF
:1009C00018161CF485E291E086CF2FEF3FEF4FE73A
:1009D0005FECC701B6010E94130687FDF3CF20E04C
:1009E00030E0A901C701B6010E94130687FF0BC0C2
:1009F0006DE28BE591E00E949D0146015701B7FA37
:100A0000B094B7F8B0942AE037ED43EA5BE3C50150
:100A1000B4010E94A7054B015C010E948A066B018C
:100A20007C010E94B9069B01AC01C501B4010E9482
:100A3000A6054B015C014AE0C701B6010E941702FE
:100A40006EE28BE591E00E949D0120E030E040E203
:100A500051E4C501B4010E9470074B015C010E9482
:100A60008A066B01F12CE12C4AE0C701B6010E9415
:100A70001702C701B6010E94B9069B01AC01C5016E
:100A8000B4010E94A60520E030E040E251E40E945B
:100A900070070E948A0690E080E04AE00E941702F8
:100AA0001CCFEBE5F1E01382128288EE93E0A0E028
:100AB000B0E084839583A683B78384E091E091833B
:100AC000808385EC90E09587848784EC90E097871D
:100AD000868780EC90E0918B808B81EC90E0938B0B
:100AE000828B82EC90E0958B848B86EC90E0978BE8
:100AF000868B118E128E138E148E0895A1E21A2EFB
:100B0000AA1BBB1BFD010DC0AA1FBB1FEE1FFF1FB1
:100B1000A217B307E407F50720F0A21BB30BE40B01
:100B2000F50B661F771F881F991F1A9469F7609548
:100B30007095809590959B01AC01BD01CF01089502
:100B4000EE0FFF1F0590F491E02D09945058BB273C
:100B5000AA270E94BE050C9431070E94230738F093
:100B60000E942A0720F039F49F3F19F426F40C94D0
:100B700020070EF4E095E7FB0C941A07E92F0E947A
:100B8000420758F3BA17620773078407950720F0E6
:100B900079F4A6F50C9464070EF4E0950B2EBA2FA9
:100BA000A02D0B01B90190010C01CA01A001112473
:100BB000FF27591B99F0593F50F4503E68F11A161F
:100BC000F040A22F232F342F4427585FF3CF4695B0
:100BD00037952795A795F0405395C9F77EF41F16D2
:100BE000BA0B620B730B840BBAF09150A1F0FF0F9C
:100BF000BB1F661F771F881FC2F70EC0BA0F621F88
:100C0000731F841F48F4879577956795B795F79577
:100C10009E3F08F0B0CF9395880F08F09927EE0F0C
:100C20009795879508950E94F60608F481E0089547
:100C30000E942C060C9431070E942A0758F00E944B
:100C4000230740F029F45F3F29F00C941A07511153
:100C50000C9465070C9420070E94420768F39923BF
:100C6000B1F3552391F3951B550BBB27AA276217A8
:100C70007307840738F09F5F5F4F220F331F441FB5
:100C8000AA1FA9F335D00E2E3AF0E0E832D09150E9
:100C90005040E695001CCAF72BD0FE2F29D0660FD6
:100CA000771F881FBB1F261737074807AB07B0E819
:100CB00009F0BB0B802DBF01FF2793585F4F3AF01F
:100CC0009E3F510578F00C941A070C9465075F3F1E
:100CD000E4F3983ED4F3869577956795B795F795A5
:100CE0009F5FC9F7880F911D9695879597F908958D
:100CF000E1E0660F771F881FBB1F62177307840729
:100D0000BA0720F0621B730B840BBA0BEE1F88F737
:100D1000E09508950E944A0788F09F5798F0B92FF0
:100D20009927B751B0F0E1F0660F771F881F991F20
:100D30001AF0BA95C9F714C0B13091F00E94640757
:100D4000B1E008950C946407672F782F8827B85F67
:100D500039F0B93FCCF3869577956795B395D9F778
:100D60003EF490958095709561957F4F8F4F9F4F82
:100D70000895E89409C097FB3EF49095809570958E
:100D800061957F4F8F4F9F4F9923A9F0F92F96E9D7
:100D9000BB279395F695879577956795B795F1114C
:100DA000F8CFFAF4BB0F11F460FF1BC06F5F7F4FE9
:100DB0008F4F9F4F16C0882311F096E911C07723FB
:100DC00021F09EE8872F762F05C0662371F096E804
:100DD000862F70E060E02AF09A95660F771F881FD3
:100DE000DAF7880F9695879597F90895990F000877
:100DF000550FAA0BE0E8FEEF16161706E807F907ED
:100E0000C0F012161306E407F50798F0621B730B87
:100E1000840B950B39F40A2661F0232B242B252B08
:100E200021F408950A2609F4A140A6958FEF811DAB
:100E3000811D089597F99F6780E870E060E008954C
:100E40009FEF80EC089500240A94161617061806E2
:100E50000906089500240A941216130614060506BE
:100E60000895092E0394000C11F4882352F0BB0F4F
:100E700040F4BF2B11F460FF04C06F5F7F4F8F4FB2
:100E80009F4F089557FD9058440F551F59F05F3FED
:100E900071F04795880F97FB991F61F09F3F79F09C
:100EA00087950895121613061406551FF2CF46951E
:100EB000F1DF08C0161617061806991FF1CF8695A0
:100EC0007105610508940895E894BB276627772784
:100ED000CB0197F908950E94F60608F48FEF089564
:100EE0000E9483070C9431070E94230738F00E9468
:100EF0002A0720F0952311F00C941A070C94200770
:100F000011240C9465070E94420770F3959FC1F36A
:100F1000950F50E0551F629FF001729FBB27F00DA7
:100F2000B11D639FAA27F00DB11DAA1F649F6627FC
:100F3000B00DA11D661F829F2227B00DA11D621F4B
:100F4000739FB00DA11D621F839FA00D611D221F05
:100F5000749F3327A00D611D231F849F600D211DE9
:100F6000822F762F6A2F11249F5750409AF0F1F06C
:100F700088234AF0EE0FFF1FBB1F661F771F881FD5
:100F800091505040A9F79E3F510580F00C941A07EC
:100F90000C9465075F3FE4F3983ED4F3869577950C
:100FA0006795B795F795E7959F5FC1F7FE2B880F7B
:100FB000911D9695879597F908950E94F606880BDE
:080FC000990B0895F894FFCF8E
:100FC800000000009D01FD002A01EA015B013901D2
:100FD8004D0144697374616E63653A20006E616EF9
:100FE80000696E66006F76660020636D000D0A006A
:100FF8004F62737461636C652064657465637465BE
:10100800642077697468696E20323020636D21002E
:00000001FF
