:100000000C9462000C948A000C948A000C94600397
:100010000C9460030C9460030C948A000C948A0086
:100020000C948A000C948A000C948A000C948A0028
:100030000C948A000C948A000C948A000C948A0018
:100040000C94D8030C948A000C9448040C94220459
:100050000C948A000C948A000C948A000C948A00F8
:100060000C948A000C948A000000000023002600F3
:10007000290000000000240027002A0000000000E2
:10008000250028002B0004040404040404040202D4
:100090000202020203030303030301020408102007
:1000A0004080010204081020010204081020000012
:1000B0000008000201000003040700000000000027
:1000C0000000A50711241FBECFEFD8E0DEBFCDBFD3
:1000D00011E0A0E0B1E0EEE2F7E102C005900D9280
:1000E000A43BB107D9F722E0A4EBB1E001C01D9217
:1000F000A73EB207E1F710E0C2E6D0E004C02197C6
:10010000FE010E941308C136D107C9F70E947A0484
:100110000C94950B0C94000090E0FC01E255FF4F0D
:100120002491FC01E656FF4F3491FC01EA57FF4F42
:10013000E491EE23C9F0222339F0233001F1A8F431
:10014000213019F1223029F1F0E0EE0FFF1FE458C1
:10015000FF4FA591B4918FB7F894EC91611126C02F
:1001600030953E233C938FBF08952730A9F0283067
:10017000C9F0243049F7809180008F7D03C08091C1
:1001800080008F7780938000DFCF84B58F7784BD28
:10019000DBCF84B58F7DFBCF8091B0008F778093CC
:1001A000B000D2CF8091B0008F7DF9CF3E2BDACF57
:1001B00020914402309145022817390771F490913B
:1001C000430280914202981741F0E0914302F0E02F
:1001D000EE5FFD4F808190E008958FEF9FEF0895CF
:1001E0000895EF92FF920F931F93CF93DF93DC015B
:1001F0005C96ED90FC905D97E114F10479F481E058
:1002000090E013969C938E93129790E080E0DF919C
:10021000CF911F910F91FF90EF9008955196ED911E
:10022000FC91529750968C915097982F90950FB7BC
:100230005E962C915E97122F127021FD6095F894B6
:100240002081112319F1282B2083E7012197F1F751
:1002500028E0462F50E0308160FF1AC0382B3083F1
:10026000E7012197F1F7BA0175956795215089F754
:10027000112381F08081892380830FBF5C968D914B
:100280009C910197F1F781E090E0C1CF2923DCCF69
:100290003923E5CF9081892BEFCF20914402309113
:1002A00045022817390761F48091420220914302E8
:1002B00090E0805C9F4F821B91098F73992708956E
:1002C00090E080E008952091440230914502281783
:1002D0003907B9F49091430280914202981789F04E
:1002E000E0914302F0E0EE5FFD4F808120914302F8
:1002F00030E02F5F3F4F2F7333272093430290E06E
:1003000008958FEF9FEF0895E0914402F091450228
:10031000E817F90769F4A389B4899C9185898095C8
:1003200089238C93109245021092440281E0089533
:1003300080E008953FB7F8948091FE019091FF010D
:10034000A0910002B091010226B5A89B05C02F3FE5
:1003500019F00196A11DB11D3FBFBA2FA92F982FEB
:100360008827BC01CD01620F711D811D911D42E0E6
:10037000660F771F881F991F4A95D1F708958F92AE
:100380009F92AF92BF92CF92DF92EF92FF924B017A
:100390005C010E949A016B017C010E949A016C1918
:1003A0007D098E099F09683E734081059105A8F378
:1003B00021E0821A9108A108B10888EEC80E83E0F6
:1003C000D81EE11CF11C81149104A104B10429F789
:1003D000FF90EF90DF90CF90BF90AF909F908F9065
:1003E0000895AF92BF92CF92DF92EF92FF920F9358
:1003F0001F93CF93DF936C017B018B01040F151FBB
:10040000EB015E01AE18BF08C017D10759F0699122
:10041000D601ED91FC910190F081E02DC601099586
:10042000892B79F7C501DF91CF911F910F91FF9033
:10043000EF90DF90CF90BF90AF90089590E080E074
:100440000895FC01538D448D252F30E0842F90E0DA
:10045000821B930B541710F0CF96089501970895BF
:10046000FC01918D828D981761F0A28DAE0FBF2F88
:10047000B11D5D968C91928D9F5F9F73928F90E0DE
:1004800008958FEF9FEF0895FC01918D828D98174D
:1004900031F0828DE80FF11D858D90E008958FEF8A
:1004A0009FEF0895FC01918D228D892F90E0805C53
:1004B0009F4F821B91098F739927089586E492E0DC
:1004C0000E94520221E0892B09F420E0822F089536
:1004D00080E090E0892B29F00E945E0281110C944B
:1004E00000000895FC01A48DA80FB92FB11DA35AD7
:1004F000BF4F2C91848D90E001968F739927848F44
:10050000A689B7892C93A089B1898C918370806466
:100510008C93938D848D981306C00288F389E02D07
:1005200080818F7D80830895EF92FF920F931F93B8
:10053000CF93DF93EC0181E0888F9B8D8C8D981396
:100540001AC0E889F989808185FF15C09FB7F894A2
:10055000EE89FF896083E889F989808183708064EE
:1005600080839FBF81E090E0DF91CF911F910F9139
:10057000FF90EF900895F62E0B8D10E00F5F1F4F48
:100580000F731127E02E8C8D8E110CC00FB607FC57
:10059000FACFE889F989808185FFF5CFCE010E94E5
:1005A0007202F1CFEB8DEC0FFD2FF11DE35AFF4FDF
:1005B000F0829FB7F8940B8FEA89FB898081806273
:1005C000CFCFCF93DF93EC01888D8823B9F0AA8930
:1005D000BB89E889F9898C9185FD03C0808186FDFE
:1005E0000DC00FB607FCF7CF8C9185FFF2CF80814D
:1005F00085FFEDCFCE010E947202E9CFDF91CF914E
:100600000895FC0101900020E9F73197AF01481BE4
:10061000590BBC0186E492E00C94F1018F929F92F9
:10062000AF92BF920F931F93CF93DF93CDB7DEB7F7
:10063000A1970FB6F894DEBF0FBECDBF19A242300E
:1006400008F44AE08E010F5D1F4F842E912CB12CCF
:10065000A12CA50194010E94D207E62FB901CA017D
:10066000EA30F4F4E05DD801EE938D01232B242BC6
:10067000252B79F790E080E0109719F0CD010E94CA
:100680000103A1960FB6F894DEBF0FBECDBFDF9178
:10069000CF911F910F91BF90AF909F908F90089531
:1006A000E95CE1CFCF93DF930E940103EC0180E38B
:1006B00091E00E9401038C0F9D1FDF91CF9108955F
:1006C0001F920F920FB60F9211242F933F934F93C7
:1006D0005F936F937F938F939F93AF93BF93EF93AA
:1006E000FF93E0914402F0914502309749F0A685CE
:1006F000B7858585968D91FF14C09C918923A1F4BF
:10070000FF91EF91BF91AF919F918F917F916F91E9
:100710005F914F913F912F910F900FBE0F901F90BF
:1007200018959C91892361F7A389B4899C91858947
:10073000809589238C93868997890197F1F7608D3D
:10074000718DA685B785558538E020E0CB010197EE
:10075000F1F7822F90E095958795282F4C914523AE
:1007600009F02068315091F7868D81FD20958091A8
:10077000420290E001968F73992730914302381717
:1007800099F0A0914202B0E0AE5FBD4F2C938093F0
:100790004202828D938D0197F1F7A389B4898C91E0
:1007A0009589892B8C93ACCF868D8160868FF1CF14
:1007B0001F920F920FB60F9211242F933F938F9396
:1007C0009F93AF93BF938091FA019091FB01A09109
:1007D000FC01B091FD013091F90123E0230F2D3789
:1007E00058F50196A11DB11D2093F9018093FA01DE
:1007F0009093FB01A093FC01B093FD018091FE0159
:100800009091FF01A0910002B09101020196A11DFB
:10081000B11D8093FE019093FF01A0930002B0935D
:100820000102BF91AF919F918F913F912F910F90B6
:100830000FBE0F901F90189526E8230F0296A11D5A
:10084000B11DD2CF1F920F920FB60F9211242F938A
:100850003F934F935F936F937F938F939F93AF9348
:10086000BF93EF93FF9386E492E00E947202FF91A0
:10087000EF91BF91AF919F918F917F916F915F9118
:100880004F913F912F910F900FBE0F901F90189591
:100890001F920F920FB60F9211242F938F939F9355
:1008A000EF93FF93E0915602F09157028081E0911F
:1008B0005C02F0915D0282FD1BC0908180915F021D
:1008C0008F5F8F7320916002821741F0E0915F0289
:1008D000F0E0EA5BFD4F958F80935F02FF91EF910F
:1008E0009F918F912F910F900FBE0F901F90189591
:1008F0008081F4CF789484B5826084BD84B58160B2
:1009000084BD85B5826085BD85B5816085BD8091DA
:100910006E00816080936E00109281008091810052
:10092000826080938100809181008160809381004A
:10093000809180008160809380008091B10084600C
:100940008093B1008091B00081608093B00080916D
:100950007A00846080937A0080917A00826080932C
:100960007A0080917A00816080937A0080917A0089
:10097000806880937A001092C100E0915602F09155
:10098000570282E08083E0915202F091530210827C
:10099000E0915402F09155028FEC808310925E0238
:1009A000E0915A02F0915B0286E08083E091580268
:1009B000F0915902808180618083E0915802F0912A
:1009C0005902808188608083E0915802F091590239
:1009D000808180688083E0915802F0915902808183
:1009E0008F7D80838AE391E00E9452038091F80119
:1009F000882371F08091F6019091F701009731F012
:100A00000E9484011092F7011092F6011092F801F1
:100A100082E190E0909305018093040183E190E0EE
:100A2000909303018093020180E895E29093010185
:100A3000809300018FE190E00E94550AEC011B8237
:100A40001A8288EE93E0A0E0B0E08C839D83AE83B1
:100A5000BF8382E291E0998388831F8A1E8A198E60
:100A6000188E1B8E1A8E1D8E1C8E6E8D6E7F6D7F66
:100A70006E8F6695617081E0682783E10E948C002B
:100A80004DEA50E0FA01649189E990E0FC0124917B
:100A9000222399F030E0220F331FF901EE58FF4F67
:100AA000A591B491F901E458FF4F259134912FB7E6
:100AB000F8943C91632B6C932FBFFA014491488BBF
:100AC000FC018491E82FF0E0EE0FFF1FE458FF4F88
:100AD000859194919A8B898B0CEAE02E00E0F02EA0
:100AE000F701249108E910E0F80184918823C9F006
:100AF00090E0880F991FFC01EE58FF4FA591B4912B
:100B0000FC01E458FF4F459154913FB7F8949C91F4
:100B1000822F809598239C93DA019C9189238C9352
:100B20003FBF8E8D81FD04C061E082E10E948C0098
:100B300082E18C87F701E490ED86F8010491E02FC3
:100B4000F0E0EE0FFF1FE859FF4F859194919F87CA
:100B50008E87D093F701C093F601209759F48EE564
:100B600091E00E94520368EE73E080E090E00E9402
:100B7000BF01F9CF2091000130910101032E000C3B
:100B8000440B550B60E079E08DE390E00E94F407A0
:100B9000B901C90103972430310510F481E090E0D8
:100BA0009D8F8C8FC901969587958431910508F4A6
:100BB0003FC143979F8B8E8BC901059766307105A6
:100BC00010F481E090E0998F888FC901880F991FF8
:100BD000280F391F36952795369527952D303105E5
:100BE00008F429C12C5031093B8F2A8F809168006D
:100BF0008260809368009C852DE630E0983050F04C
:100C00002BE630E09E3030F02CE630E0963110F0EC
:100C100030E020E03C8B2B8B292F30E0983008F01F
:100C20000DC181E001C0880F9A95EAF78D8B8C8DFC
:100C30009D8D0197F1F78A8D9B8D892BE1F0809135
:100C4000440290914502C817D907A9F0009711F006
:100C50000E9484018E8D8E7F8E8F109242021092A0
:100C60004302D0934502C0934402EB89FC89808102
:100C70009D89892B80831092F5011092F40181E007
:100C80008093F801C0E0D0E08091F801882309F456
:100C900059C18091F6019091F701892B09F452C155
:100CA0008FB7F894C090FA01D090FB01E090FC015E
:100CB000F090FD018FBF2FB7F8948091FA019091C9
:100CC000FB01A091FC01B091FD012FBF8C199D0982
:100CD000AE09BF09893E9340A105B10508F032C1B4
:100CE0008091F6019091F701DC01ED91FC91008477
:100CF000F185E02D0995181619060CF0BCC08091FD
:100D0000F6019091F701DC01ED91FC910284F385ED
:100D1000E02D09958C0197FDE3CF8091F40190912E
:100D2000F5018034910508F096C09C012F5F3F4F7C
:100D30003093F5012093F4018C549E4FFC01008305
:100D40002091F4013091F5012430310548F2F90188
:100D5000E055FE4F80818F3F19F681819281890F86
:100D6000815093819813BCCF0181128124303105C9
:100D700009F47CC044E050E0BF0184EB91E00E94A4
:100D80007A0B84E090E09093F5018093F4011027B2
:100D900001271027B80190E080E00E942C0920E094
:100DA00030E040E251E40E948B086B017C0120E0BE
:100DB00030E0A9010E94DE0918165CF411E020E081
:100DC00030E040E051E4C701B6010E9486081816E1
:100DD0000CF410E083E791E00E940103A701960163
:100DE000C701B6010E94500A882309F44BC08EE760
:100DF00091E00E9401038AE891E00E94010383E3ED
:100E000091E0111102C087E391E00E94520364E671
:100E100070E080E090E00E94BF01209709F434CF99
:100E20000E945E02882309F42FCF0E9400002CCF7D
:100E300081E090E0BFCE21E030E0D6CE9E3040F49D
:100E40002850310981E001C0880F2A95EAF7EECEDB
:100E50002E503109F7CF4FE350E065EB71E084EBA2
:100E600091E00E947A0B0093F3016ACF1092F50192
:100E70001092F4018CCF62E070E080E090E00E947C
:100E8000BF0119CF2FEF3FEF4FE75FE7C701B60173
:100E90000E94500A81110DC02FEF3FEF4FE75FE72F
:100EA000C701B6010E94860818161CF482E891E07A
:100EB000A0CF2FEF3FEF4FE75FE4C701B6010E94DD
:100EC000DE0918161CF486E891E093CF2FEF3FEF70
:100ED0004FE75FECC701B6010E94860887FDF3CF9C
:100EE0002DEC3CEC4CE45DE3C701B6010E941A080E
:100EF0004B015C010E94FD086B017C010E942C09E2
:100F00009B01AC01C501B4010E9419084B015C01B1
:100F10004AE0C701B6010E940E036EE286E492E049
:100F20000E94940220E030E040E251E4C501B401A7
:100F30000E94E3090E94FD0890E080E04AE00E94E0
:100F40000E0359CF8AE991E060CFE6E4F2E0138224
:100F5000128288EE93E0A0E0B0E084839583A683BC
:100F6000B78380E191E09183808385EC90E0958761
:100F7000848784EC90E09787868780EC90E0918B63
:100F8000808B81EC90E0938B828B82EC90E0958B50
:100F9000848B86EC90E0978B868B118E128E138E4D
:100FA000148E0895A1E21A2EAA1BBB1BFD010DC0D1
:100FB000AA1FBB1FEE1FFF1FA217B307E407F50709
:100FC00020F0A21BB30BE40BF50B661F771F881FE5
:100FD000991F1A9469F760957095809590959B017B
:100FE000AC01BD01CF010895052E97FB1EF40094BE
:100FF0000E940B0857FD07D00E94D20707FC03D0C0
:101000004EF40C940B0850954095309521953F4F28
:101010004F4F5F4F089590958095709561957F4FE4
:101020008F4F9F4F0895EE0FFF1F0590F491E02D15
:1010300009945058BB27AA270E9431080C94A40990
:101040000E94960938F00E949D0920F039F49F3FD4
:1010500019F426F40C9493090EF4E095E7FB0C9434
:101060008D09E92F0E94B50958F3BA176207730773
:101070008407950720F079F4A6F50C94D7090EF4AF
:10108000E0950B2EBA2FA02D0B01B90190010C0198
:10109000CA01A0011124FF27591B99F0593F50F4B0
:1010A000503E68F11A16F040A22F232F342F442708
:1010B000585FF3CF469537952795A795F040539500
:1010C000C9F77EF41F16BA0B620B730B840BBAF0D0
:1010D0009150A1F0FF0FBB1F661F771F881FC2F73B
:1010E0000EC0BA0F621F731F841F48F4879577954F
:1010F0006795B795F7959E3F08F0B0CF9395880F09
:1011000008F09927EE0F9795879508950E94690931
:1011100008F481E008950E949F080C94A4090E949D
:101120009D0958F00E94960940F029F45F3F29F08C
:101130000C948D0951110C94D8090C9493090E94B8
:10114000B50968F39923B1F3552391F3951B550B1A
:10115000BB27AA2762177307840738F09F5F5F4F8A
:10116000220F331F441FAA1FA9F335D00E2E3AF0C9
:10117000E0E832D091505040E695001CCAF72BD0E1
:10118000FE2F29D0660F771F881FBB1F2617370732
:101190004807AB07B0E809F0BB0B802DBF01FF2764
:1011A00093585F4F3AF09E3F510578F00C948D09AB
:1011B0000C94D8095F3FE4F3983ED4F38695779575
:1011C0006795B795F7959F5FC9F7880F911D96951D
:1011D000879597F90895E1E0660F771F881FBB1F79
:1011E000621773078407BA0720F0621B730B840B26
:1011F000BA0BEE1F88F7E09508950E94BD0988F0AC
:101200009F5798F0B92F9927B751B0F0E1F0660FCA
:10121000771F881F991F1AF0BA95C9F714C0B1300B
:1012200091F00E94D709B1E008950C94D709672F77
:10123000782F8827B85F39F0B93FCCF3869577953A
:101240006795B395D9F73EF4909580957095619523
:101250007F4F8F4F9F4F0895E89409C097FB3EF44E
:1012600090958095709561957F4F8F4F9F4F9923F3
:10127000A9F0F92F96E9BB279395F6958795779571
:101280006795B795F111F8CFFAF4BB0F11F460FF31
:101290001BC06F5F7F4F8F4F9F4F16C0882311F089
:1012A00096E911C0772321F09EE8872F762F05C09D
:1012B000662371F096E8862F70E060E02AF09A9538
:1012C000660F771F881FDAF7880F9695879597F92D
:1012D0000895990F0008550FAA0BE0E8FEEF1616C7
:1012E0001706E807F907C0F012161306E407F5071A
:1012F00098F0621B730B840B950B39F40A2661F08E
:10130000232B242B252B21F408950A2609F4A14030
:10131000A6958FEF811D811D089597F99F6780E83D
:1013200070E060E008959FEF80EC089500240A9437
:101330001616170618060906089500240A941216B0
:101340001306140605060895092E0394000C11F4E3
:10135000882352F0BB0F40F4BF2B11F460FF04C090
:101360006F5F7F4F8F4F9F4F089557FD9058440FE9
:10137000551F59F05F3F71F04795880F97FB991FF4
:1013800061F09F3F79F087950895121613061406B1
:10139000551FF2CF4695F1DF08C01616170618063E
:1013A000991FF1CF86957105610508940895E89419
:1013B000BB2766277727CB0197F908950E94690913
:1013C00008F48FEF08950E94F6090C94A4090E9476
:1013D000960938F00E949D0920F0952311F00C9495
:1013E0008D090C94930911240C94D8090E94B50915
:1013F00070F3959FC1F3950F50E0551F629FF00168
:10140000729FBB27F00DB11D639FAA27F00DB11D80
:10141000AA1F649F6627B00DA11D661F829F222709
:10142000B00DA11D621F739FB00DA11D621F839F90
:10143000A00D611D221F749F3327A00D611D231F66
:10144000849F600D211D822F762F6A2F11249F57B4
:1014500050409AF0F1F088234AF0EE0FFF1FBB1FB7
:10146000661F771F881F91505040A9F79E3F510576
:1014700080F00C948D090C94D8095F3FE4F3983EFA
:10148000D4F3869577956795B795F795E7959F5F20
:10149000C1F7FE2B880F911D9695879597F90895B2
:1014A0000E946909880B990B08950F931F93CF939E
:1014B000DF938230910510F482E090E0E091E50244
:1014C000F091E60230E020E0B0E0A0E0309799F43F
:1014D0002115310509F44AC0281B390B2430310588
:1014E000D8F58A819B816115710589F1FB01938390
:1014F0008283FE0111C0408151810281138148170E
:101500005907E0F04817590799F4109761F01296BF
:101510000C93129713961C933296CF01DF91CF91C3
:101520001F910F9108950093E5021093E602F4CF06
:101530002115310551F04217530738F0A901DB019D
:101540009A01BD01DF01F801C1CFEF01F9CF9093FE
:10155000E6028093E502CDCFFE01E20FF31F8193F7
:1015600091932250310939832883D7CF2091E30208
:101570003091E402232B41F42091080130910901BC
:101580003093E4022093E302209106013091070199
:101590002115310541F42DB73EB740910A01509114
:1015A0000B01241B350BE091E302F091E402E217FA
:1015B000F307A0F42E1B3F0B2817390778F0AC0176
:1015C0004E5F5F4F2417350748F04E0F5F1F509353
:1015D000E4024093E302819391939FCFF0E0E0E037
:1015E0009CCFCF93DF930097E9F0FC0132971382F1
:1015F0001282A091E502B091E602ED0130E020E018
:101600001097A1F420813181820F931F2091E30272
:101610003091E4022817390709F061C0F093E40221
:10162000E093E302DF91CF910895EA01CE17DF073F
:10163000E8F54A815B819E0141155105B1F7E90149
:10164000FB83EA8349915991C40FD51FEC17FD071D
:1016500061F4808191810296840F951FE90199833D
:101660008883828193819B838A83F0E0E0E01296F5
:101670008D919C9113970097B9F52D913C911197FD
:10168000CD010296820F931F2091E3023091E40274
:101690002817390739F6309751F51092E602109263
:1016A000E502B093E402A093E302BCCFD383C283EC
:1016B00040815181840F951FC817D90761F44E5F8F
:1016C0005F4F88819981480F591F518340838A81D8
:1016D0009B81938382832115310509F0B0CFF0936C
:1016E000E602E093E5029ECFFD01DC01C0CF13824C
:1016F0001282D7CF6817790768F4FB01DC01E40F89
:10170000F51FA40FB51F02C002900E924150504029
:10171000D8F708950C948C0BFB01DC0102C00190FA
:0E1720000D9241505040D8F70895F894FFCF35
:10172E008025FFFFFFFF0000E702800000000000A1
:10173E009402F1012102E102520230024402000041
:10174E000000F100F1011E02F0004D016301D8000E
:10175E000D0A00594553004E4F004459502D41304B
:10176E003259594744572055415254206578616D7E
:10177E00706C6520286C69627261727929006479D7
:10178E00705F756172745F696E6974206661696CF1
:10179E0065640044697374616E63653A20006E611E
:1017AE006E00696E66006F76660020636D20207C89
:1017BE00204F626A6563743A200054696D656F75D7
:1017CE0074202F204E6F2076616C696420667261E2
:0417DE006D65000035
:00000001FF
