:100000000C9435010C9466010C9466010C94660105
:100010000C9466010C9466010C9466010C946601C4
:100020000C9466010C9466010C9466010C946601B4
:100030000C9466010C9466010C9466010C946601A4
:100040000C9466010C9466010C9466010C94660194
:100050000C9466010C9466010C9466010C94EC03FC
:100060000C9466010C9460040C9436040C946601A4
:100070000C9466010C9466010C9466010C94660164
:100080000C9466010C9466010C9466010C94660154
:100090000C9466010C9466010C9466010C94660144
:1000A0000C9466010C9466010C9466010C94660134
:1000B0000C9466010C9466010C9466010C94660124
:1000C0000C9466010C9466010C9466010C94660114
:1000D0000C9466010C9466010C9466010C94660104
:1000E0000C9466010C9498010C9419020C947702FC
:1000F0000C949D010C94C4010C94EE010C94CE015F
:100100000C94B3010C94AF010C94E0010C94EA013F
:100110000C94B7010C94D6010C94BB010C94AF0263
:100120000C9446020C94D2010C94C8010C94FC026D
:100130000C94BF060C94E4010C94DC010C9469024D
:100140000C94BE010C9455020000200023002600F0
:1001500029002C002F0032000001000003010601DD
:10016000090100002100240027002A002D00300092
:10017000330001010000040107010A010000220010
:10018000250028002B002E00310034000201000061
:10019000050108010B010505050507050808080804
:1001A000020202020A0A080804040404010101010F
:1001B000010101010303030303030303040707070A
:1001C0000C0C0C0C0C0C0C0C0202020206060606AF
:1001D000060606060B0B0B0B0B0B0B0B010210207C
:1001E000200808102040102040800201020108046D
:1001F0000201010204081020408080402010080401
:100200000201800402018040201008040201080459
:10021000020101020408102040800102040810209D
:10022000408000000A0B02090C0D0E0807030401B0
:1002300000000000000000000000000000000000BE
:10024000000000000000000000000000000012118B
:10025000100000000000000000000000000000008E
:100260000000000000000000BF0611241FBECFEFF9
:10027000D1E2DEBFCDBF00E00CBF12E0A0E0B2E0F3
:10028000E8EAF2E100E00BBF02C007900D92A03552
:10029000B107D9F722E0A0E5B2E001C01D92A83F66
:1002A000B207E1F711E0C5E3D1E000E006C0219715
:1002B0000109802FFE010E940E07C433D10780E0A0
:1002C0000807A9F70E94DB040C9452090C94000063
:1002D000282F30E0F901EE5DFD4F9491F901E452D1
:1002E000FE4F44912A563E4FF9012491222309F4EE
:1002F00035C0992311F191509231F8F4E92FF0E0D3
:100300008827EA57FE4F8F4F0C940E07B701BB01A9
:100310009801AF01B3019D01BE01C401C801CE0126
:10032000D201D601DC01E0019D01E401EA01EE0108
:10033000809180008F7780938000E22FF0E0EE0FB5
:10034000FF1FE458FE4FA591B4918FB7F894EC913C
:10035000611148C040954E234C938FBF0895809102
:1003600080008F7DE8CF80918000877FE4CF84B5C7
:100370008F7784BDE2CF84B58F7DFBCF8091B000B5
:100380008F778093B000D9CF8091B0008F7DF9CF67
:10039000809190008F7780939000CFCF80919000D4
:1003A0008F7DF9CF80919000877FF5CF8091A0005D
:1003B0008F778093A000C1CF8091A0008F7DF9CF6F
:1003C0008091A000877FF5CF809120018F77809367
:1003D0002001B3CF809120018F7DF9CF8091200142
:1003E000877FF5CF4E2BB8CF3FB7F8948091570257
:1003F00090915802A0915902B0915A0226B5A89B3B
:1004000005C02F3F19F00196A11DB11D3FBFBA2FA6
:10041000A92F982F8827BC01CD01620F711D811D66
:10042000911D42E0660F771F881F991F4A95D1F7EB
:100430000895AF92BF92CF92DF92EF92FF920F9307
:100440001F93CF93DF936C017B018B01040F151F6A
:10045000EB015E01AE18BF08C017D10759F06991D2
:10046000D601ED91FC910190F081E02DC601199526
:10047000892B79F7C501DF91CF911F910F91FF90E3
:10048000EF90DF90CF90BF90AF900895FC01538D17
:10049000448D252F30E0842F90E0821B930B54175E
:1004A00010F0CF96089501970895FC01918D828DEB
:1004B000981761F0A28DAE0FBF2FB11D5D968C9184
:1004C000928D9F5F9F73928F90E008958FEF9FEFC3
:1004D0000895FC01918D828D981731F0828DE80F7F
:1004E000F11D858D90E008958FEF9FEF0895FC0139
:1004F000918D228D892F90E0805C9F4F821B910906
:100500008F73992708958BE592E00E94770221E08E
:10051000892B09F420E0822F0895FC01A48DA80FF7
:10052000B92FB11DA35ABF4F2C91848D90E0019635
:100530008F739927848FA689B7892C93A089B18955
:100540008C91837080648C93938D848D981306C0F6
:100550000288F389E02D80818F7D80830895EF925A
:10056000FF920F931F93CF93DF93EC0181E0888F6D
:100570009B8D8C8D98131AC0E889F989808185FF3D
:1005800015C09FB7F894EE89FF896083E889F989DF
:1005900080818370806480839FBF81E090E0DF91E1
:1005A000CF911F910F91FF90EF900895F62E0B8D34
:1005B00010E00F5F1F4F0F731127E02E8C8D8E11EF
:1005C0000CC00FB607FCFACFE889F989808185FF56
:1005D000F5CFCE010E948D02F1CFEB8DEC0FFD2FF8
:1005E000F11DE35AFF4FF0829FB7F8940B8FEA8911
:1005F000FB8980818062CFCFCF93DF93EC01888D20
:100600008823B9F0AA89BB89E889F9898C9185FD8D
:1006100003C0808186FD0DC00FB607FCF7CF8C911B
:1006200085FFF2CF808185FFEDCFCE010E948D0244
:10063000E9CFDF91CF91089580E090E0892B29F0F8
:100640000E94830281110E94000080E090E0892BCB
:1006500049F080E090E0892B29F00E940000811190
:100660000E94000080E090E0892B49F080E090E05B
:10067000892B29F00E94000081110E94000080E077
:1006800090E0892B49F080E090E0892B29F00E94CE
:10069000000081110C9400000895FC0101900020DD
:1006A000E9F73197AF01481B590BBC018BE592E08C
:1006B0000C9419028F929F92AF92BF920F931F9347
:1006C000CF93DF93CDB7DEB7A1970FB6F894DEBF17
:1006D0000FBECDBF19A2423008F44AE08E010F5D73
:1006E0001F4F842E912CB12CA12CA50194010E94A6
:1006F000EC06E62FB901CA01EA30F4F4E05DD80156
:10070000EE938D01232B242B252B79F790E080E0AD
:10071000109719F0CD010E944D03A1960FB6F894E1
:10072000DEBF0FBECDBFDF91CF911F910F91BF9064
:10073000AF909F908F900895E95CE1CF0F931F9346
:10074000CF93C091510260E08C2F0E94680183E03A
:1007500090E00197F1F761E08C2F0E94680183E23D
:1007600090E00197F1F760E08C2F0E946801809182
:10077000500290E0FC01E452FE4F6491FC01EA5605
:10078000FE4FE491F0E0EE0FFF1FE85BFE4F859116
:10079000949100E412E42FE030E0462F0E9496048A
:1007A000611571058105910529F06F5F7F4F8F4FAE
:1007B0009F4F9F700E942B0822EB3DE94FEA5EE3BA
:1007C0000E94E00820E030E040E05FE30E94E008A3
:1007D000CF911F910F9108951F920F920FB60F9214
:1007E00011242F933F938F939F93AF93BF93809147
:1007F000530290915402A0915502B091560230914B
:10080000520223E0230F2D3758F50196A11DB11D8B
:10081000209352028093530290935402A093550266
:10082000B09356028091570290915802A0915902BC
:10083000B0915A020196A11DB11D80935702909369
:100840005802A0935902B0935A02BF91AF919F9161
:100850008F913F912F910F900FBE0F901F90189581
:1008600026E8230F0296A11DB11DD2CF1F920F9231
:100870000FB60F9211240BB60F922F933F934F9305
:100880005F936F937F938F939F93AF93BF93EF93F8
:10089000FF938BE592E00E948D02FF91EF91BF9153
:1008A000AF919F918F917F916F915F914F913F9108
:1008B0002F910F900BBE0F900FBE0F901F901895A9
:1008C0001F920F920FB60F9211240BB60F922F9317
:1008D0008F939F93EF93FF93E0916B02F0916C02E3
:1008E0008081E0917102F091720282FD1DC09081C1
:1008F000809174028F5F8F7320917502821741F08F
:10090000E0917402F0E0E55AFD4F958F80937402F8
:10091000FF91EF919F918F912F910F900BBE0F90B0
:100920000FBE0F901F9018958081F2CFCF92DF926B
:10093000EF92FF920F931F93E82FF92F05C00150FC
:1009400011092109310961F1908196239417B9F3B6
:1009500005C0015011092109310911F19081962337
:100960009413F7CFC12CD12CE12CF12C0AC08FEFBE
:10097000C81AD80AE80AF80A0C151D052E053F0505
:1009800079F080818623841791F36C2D7D2D8E2D37
:100990009F2D1F910F91FF90EF90DF90CF900895C2
:1009A00060E070E080E090E01F910F91FF90EF9089
:1009B000DF90CF900895789484B5826084BD84B52B
:1009C000816084BD85B5826085BD85B5816085BD4A
:1009D00080916E00816080936E0010928100809102
:1009E000810082608093810080918100816080938A
:1009F0008100809180008160809380008091B100AF
:100A000084608093B1008091B00081608093B000D9
:100A1000809191008260809391008091910081602B
:100A200080939100809190008160809390008091EC
:100A3000A10082608093A1008091A10081608093D9
:100A4000A1008091A00081608093A000809121018D
:100A50008260809321018091210181608093210136
:100A60008091200181608093200180917A008460D0
:100A700080937A0080917A00826080937A008091DE
:100A80007A00816080937A0080917A0080688093F8
:100A90007A001092C100E0916B02F0916C0282E04A
:100AA0008083E0916702F09168021082E091690210
:100AB000F0916A028FEC808310927302E0916F02D2
:100AC000F091700286E08083E0916D02F0916E02F9
:100AD000808180618083E0916D02F0916E0280815F
:100AE00088608083E0916D02F0916E028081806861
:100AF0008083E0916D02F0916E0280818F7D808312
:100B000089E0809351028AE080935002E5EEF1E0A3
:100B10002491EFE9F1E08491882399F090E0880F27
:100B2000991FFC01EE59FE4FA591B491FC01E458C8
:100B3000FE4F859194918FB7F894EC91E22BEC9352
:100B40008FBF8091500290E0FC01E452FE4F24914F
:100B50008A569E4FFC0184918823C1F090E0880F53
:100B6000991FFC01EE59FE4FC591D491FC01E45848
:100B7000FE4FA591B4919FB7F8948881E22FE0953C
:100B80008E2388838C91E823EC939FBF0E949E0361
:100B900020E030E040E251E40E9488076B017C01D4
:100BA0004B015C0182E192E00E944D03A701960196
:100BB000C701B6010E944D09882309F44CC08DE19C
:100BC00092E00E944D0389E292E00E944D038DE283
:100BD00092E00E944D030E949E0320E030E040E23C
:100BE00051E40E94880720E030E040EA51E40E948E
:100BF000830787FF08C080E392E00E944D038DE2E7
:100C000092E00E944D030E94F4016B017C0188EE8A
:100C1000882E83E0982EA12CB12C0E94F4016C192F
:100C20007D098E099F09683E734081059105A8F3EF
:100C3000F1E08F1A9108A108B10828EEC20E23E056
:100C4000D21EE11CF11C81149104A104B10429F706
:100C50000E941C039BCF26013701E89477F82FEF01
:100C60003FEF4FE75FE7C301B2010E944D098111D9
:100C70000DC02FEF3FEF4FE75FE7C301B2010E94C6
:100C8000830718161CF481E292E09BCF2FEF3FEF11
:100C90004FE75FE4C701B6010E94DB0818161CF499
:100CA00085E292E08ECF2FEF3FEF4FE75FECC70179
:100CB000B6010E94830787FDF3CF20E030E0A90151
:100CC000C701B6010E94830787FF0BC06DE28BE569
:100CD00092E00E94AF0246015701B7FAB094B7F80C
:100CE000B0942AE037ED43EA5BE3C501B4010E940A
:100CF00017074B015C010E94FA076B017C010E94FF
:100D000029089B01AC01C501B4010E9416074B01E3
:100D10005C014AE0C701B6010E945A036EE28BE50E
:100D200092E00E94AF0220E030E040E251E4C501D1
:100D3000B4010E94E0084B015C010E94FA076B01BC
:100D4000F12CE12C4AE0C701B6010E945A03C70109
:100D5000B6010E9429089B01AC01C501B4010E94A3
:100D6000160720E030E040E251E40E94E0080E94D3
:100D7000FA0790E080E04AE00E945A0324CFEBE5B6
:100D8000F2E01382128288EE93E0A0E0B0E0848368
:100D90009583A683B78384E092E09183808385EC7A
:100DA00090E09587848784EC90E09787868780EC35
:100DB00090E0918B808B81EC90E0938B828B82EC26
:100DC00090E0958B848B86EC90E0978B868B118ED0
:100DD000128E138E148E0895A1E21A2EAA1BBB1B2D
:100DE000FD010DC0AA1FBB1FEE1FFF1FA217B307F7
:100DF000E407F50720F0A21BB30BE40BF50B661F0D
:100E0000771F881F991F1A9469F7609570958095D0
:100E100090959B01AC01BD01CF010895EE0FFF1F1E
:100E2000881F8BBF0790F691E02D19945058BB276F
:100E3000AA270E942E070C94A1080E94930838F05C
:100E40000E949A0820F039F49F3F19F426F40C947C
:100E500090080EF4E095E7FB0C948A08E92F0E94B5
:100E6000B20858F3BA17620773078407950720F092
:100E700079F4A6F50C94D4080EF4E0950B2EBA2F55
:100E8000A02D0B01B90190010C01CA01A001112490
:100E9000FF27591B99F0593F50F4503E68F11A163C
:100EA000F040A22F232F342F4427585FF3CF4695CD
:100EB00037952795A795F0405395C9F77EF41F16EF
:100EC000BA0B620B730B840BBAF09150A1F0FF0FB9
:100ED000BB1F661F771F881FC2F70EC0BA0F621FA5
:100EE000731F841F48F4879577956795B795F79595
:100EF0009E3F08F0B0CF9395880F08F09927EE0F2A
:100F00009795879508950E94660808F481E00895F2
:100F10000E949C070C94A1080E949A0858F00E9415
:100F2000930840F029F45F3F29F00C948A0851118E
:100F30000C94D5080C9490080E94B20868F3992389
:100F4000B1F3552391F3951B550BBB27AA276217C5
:100F50007307840738F09F5F5F4F220F331F441FD2
:100F6000AA1FA9F335D00E2E3AF0E0E832D0915006
:100F70005040E695001CCAF72BD0FE2F29D0660FF3
:100F8000771F881FBB1F261737074807AB07B0E836
:100F900009F0BB0B802DBF01FF2793585F4F3AF03C
:100FA0009E3F510578F00C948A080C94D5085F3F59
:100FB000E4F3983ED4F3869577956795B795F795C2
:100FC0009F5FC9F7880F911D9695879597F90895AA
:100FD000E1E0660F771F881FBB1F62177307840746
:100FE000BA0720F0621B730B840BBA0BEE1F88F755
:100FF000E09508950E94BA0888F09F5798F0B92F9D
:101000009927B751B0F0E1F0660F771F881F991F3D
:101010001AF0BA95C9F714C0B13091F00E94D40803
:10102000B1E008950C94D408672F782F8827B85F13
:1010300039F0B93FCCF3869577956795B395D9F795
:101040003EF490958095709561957F4F8F4F9F4F9F
:101050000895E89409C097FB3EF4909580957095AB
:1010600061957F4F8F4F9F4F9923A9F0F92F96E9F4
:10107000BB279395F695879577956795B795F11169
:10108000F8CFFAF4BB0F11F460FF1BC06F5F7F4F06
:101090008F4F9F4F16C0882311F096E911C0772318
:1010A00021F09EE8872F762F05C0662371F096E821
:1010B000862F70E060E02AF09A95660F771F881FF0
:1010C000DAF7880F9695879597F90895990F000894
:1010D000550FAA0BE0E8FEEF16161706E807F9070A
:1010E000C0F012161306E407F50798F0621B730BA5
:1010F000840B950B39F40A2661F0232B242B252B26
:1011000021F408950A2609F4A140A6958FEF811DC8
:10111000811D089597F99F6780E870E060E0089569
:101120009FEF80EC089500240A94161617061806FF
:101130000906089500240A941216130614060506DB
:101140000895092E0394000C11F4882352F0BB0F6C
:1011500040F4BF2B11F460FF04C06F5F7F4F8F4FCF
:101160009F4F089557FD9058440F551F59F05F3F0A
:1011700071F04795880F97FB991F61F09F3F79F0B9
:1011800087950895121613061406551FF2CF46953B
:10119000F1DF08C0161617061806991FF1CF8695BD
:1011A0007105610508940895E894BB2766277727A1
:1011B000CB0197F908950E94660808F48FEF08950F
:1011C0000E94F3080C94A1080E94930838F00E9432
:1011D0009A0820F0952311F00C948A080C9490083A
:1011E00011240C94D5080E94B20870F3959FC1F3A6
:1011F000950F50E0551F629FF001729FBB27F00DC5
:10120000B11D639FAA27F00DB11DAA1F649F662719
:10121000B00DA11D661F829F2227B00DA11D621F68
:10122000739FB00DA11D621F839FA00D611D221F22
:10123000749F3327A00D611D231F849F600D211D06
:10124000822F762F6A2F11249F5750409AF0F1F089
:1012500088234AF0EE0FFF1FBB1F661F771F881FF2
:1012600091505040A9F79E3F510580F00C948A0898
:101270000C94D5085F3FE4F3983ED4F386957795B8
:101280006795B795F795E7959F5FC1F7FE2B880F98
:10129000911D9695879597F908950E946608880B89
:0812A000990B0895F894FFCFAB
:1012A80000000000AF0219024602FC027702550254
:1012B800690244697374616E63653A20006E616EF9
:1012C80000696E66006F76660020636D000D0A0087
:1012D8004F62737461636C652064657465637465DB
:1012E800642077697468696E20323020636D21004C
:00000001FF
