:100000000C9435010C9466010C9466010C94660105
:100010000C9466010C9466010C9466010C946601C4
:100020000C9466010C9466010C9466010C946601B4
:100030000C9466010C9466010C9466010C946601A4
:100040000C9466010C9466010C9466010C94660194
:100050000C9466010C9466010C9466010C94950650
:100060000C9466010C9409070C94DF060C9466014D
:100070000C9466010C9466010C9466010C94660164
:100080000C9466010C9466010C9466010C94660154
:100090000C9466010C9466010C9466010C94660144
:1000A0000C9466010C9466010C9466010C94660134
:1000B0000C9466010C9466010C9466010C94660124
:1000C0000C9466010C9466010C9466010C94660114
:1000D0000C9466010C9466010C9466010C94660104
:1000E0000C9466010C94A5010C94C4010C943F0778
:1000F0000C94B3010C94CE010C94BA010C94E00161
:100100000C94D8010C94C3020C94B7010C94C00158
:100110000C94A0020C94E6010C94D2010C94D10230
:100120000C9473020C9409030C94CA010C945603AA
:100130000C94EA010C94E5010C94AB010C94AF0211
:100140000C94AF010C94DC01000020002300260079
:1001500029002C002F0032000001000003010601DD
:10016000090100000A0B02090C0D0E080703040127
:10017000000000000000000000000000000000007F
:10018000000000000000000000000000000012114C
:10019000100000000000000000000000000000004F
:1001A00000000000000000000000220025002800E0
:1001B0002B002E003100340002010000050108016F
:1001C0000B0100002100240027002A002D00300030
:1001D000330001010000040107010A0105050505BE
:1001E000070508080808020202020A0A08080404AF
:1001F00004040101010101010101030303030303DD
:100200000303040707070C0C0C0C0C0C0C0C02026B
:10021000020206060606060606060B0B0B0B0B0B68
:100220000B0B0102102020080810204010204080F5
:1002300002010201080402010102040810204080AA
:100240008040201008040201800402018040201038
:100250000804020108040201010204081020408081
:1002600001020408102040803F0711241FBECFEF79
:10027000D1E2DEBFCDBF00E00CBF12E0A0E0B2E0F3
:10028000EEE9F7E100E00BBF02C007900D92A83F36
:10029000B107D9F723E0A8EFB2E001C01D92A33A5D
:1002A000B207E1F711E0C5E3D1E000E006C0219715
:1002B0000109802FFE010E948209C433D10780E02A
:1002C0000807A9F70E9471070C94CD0B0C9400004D
:1002D00090E0FC01EE5DFD4F249184529E4FFC01A5
:1002E0008491882399F090E0880F991FFC01EE53C8
:1002F000FE4FA591B491FC01E855FE4F8591949174
:100300008FB7F894EC91E22BEC938FBF0895815056
:10031000823108F05AC0E82FF0E08827ED56FE4FF2
:100320008F4F0C948209B301B701A501AB01AF0156
:10033000E501BA01C001C401CA01CE01D201D80150
:10034000DC01E501E001E601EA01809180008F77A0
:10035000809380000895809180008F7DF9CF8091F7
:100360008000877FF5CF84B58F7784BD089584B5ED
:100370008F7DFBCF8091B0008F778093B000089580
:100380008091B0008F7DF9CF809190008F7780931E
:1003900090000895809190008F7DF9CF809190001A
:1003A000877FF5CF8091A0008F778093A00008957C
:1003B0008091A0008F7DF9CF8091A000877FF5CF3D
:1003C000809120018F7780932001089580912001F2
:1003D0008F7DF9CF80912001877FF5CF1F93CF9339
:1003E000DF93282F30E0F901EE59FE4F8491F90197
:1003F000EE5DFD4FD491F901E452FE4FC491CC2340
:10040000A9F0162F81110E948701EC2FF0E0EE0F6A
:10041000FF1FE855FE4FA591B4918FB7F894EC916A
:10042000111108C0D095DE23DC938FBFDF91CF91EF
:100430001F910895DE2BF8CF3FB7F8948091000309
:1004400090910103A0910203B091030326B5A89BEC
:1004500005C02F3F19F00196A11DB11D3FBFBA2F56
:10046000A92F982F8827BC01CD01620F711D811D16
:10047000911D42E0660F771F881F991F4A95D1F79B
:1004800008958F929F92AF92BF92CF92DF92EF9298
:10049000FF924B015C010E941C026B017C010E94D7
:1004A0001C026C197D098E099F09683E7340810505
:1004B0009105A8F321E0821A9108A108B10888EEFD
:1004C000C80E83E0D81EE11CF11C81149104A10424
:1004D000B10429F7FF90EF90DF90CF90BF90AF90DD
:1004E0009F908F900895AF92BF92CF92DF92EF923C
:1004F000FF920F931F93CF93DF936C017B018B01CE
:10050000040F151FEB015E01AE18BF08C017D1071D
:1005100059F06991D601ED91FC910190F081E02DA7
:10052000C6011995892B79F7C501DF91CF911F91EC
:100530000F91FF90EF90DF90CF90BF90AF90089514
:10054000FC01538D448D252F30E0842F90E0821BD9
:10055000930B541710F0CF96089501970895FC015E
:10056000918D828D981761F0A28DAE0FBF2FB11DB6
:100570005D968C91928D9F5F9F73928F90E008950E
:100580008FEF9FEF0895FC01918D828D981731F0C8
:10059000828DE80FF11D858D90E008958FEF9FEF1C
:1005A0000895FC01918D228D892F90E0805C9F4FF2
:1005B000821B91098F739927089584E093E00E942C
:1005C000D10221E0892B09F420E0822F0895FC015B
:1005D000A48DA80FB92FB11DA35ABF4F2C91848DA4
:1005E00090E001968F739927848FA689B7892C9301
:1005F000A089B1898C91837080648C93938D848D54
:10060000981306C00288F389E02D80818F7D808356
:100610000895EF92FF920F931F93CF93DF93EC0116
:1006200081E0888F9B8D8C8D98131AC0E889F98999
:10063000808185FF15C09FB7F894EE89FF8960839C
:10064000E889F98980818370806480839FBF81E01D
:1006500090E0DF91CF911F910F91FF90EF9008955F
:10066000F62E0B8D10E00F5F1F4F0F731127E02E3A
:100670008C8D8E110CC00FB607FCFACFE889F98972
:10068000808185FFF5CFCE010E94E702F1CFEB8D8F
:10069000EC0FFD2FF11DE35AFF4FF0829FB7F89446
:1006A0000B8FEA89FB8980818062CFCFCF93DF9364
:1006B000EC01888D8823B9F0AA89BB89E889F9897A
:1006C0008C9185FD03C0808186FD0DC00FB607FCAF
:1006D000F7CF8C9185FFF2CF808185FFEDCFCE01E2
:1006E0000E94E702E9CFDF91CF91089580E090E08A
:1006F000892B29F00E94DD0281110E94000080E018
:1007000090E0892B49F080E090E0892B29F00E944D
:10071000000081110E94000080E090E0892B49F0E8
:1007200080E090E0892B29F00E94000081110E9456
:10073000000080E090E0892B49F080E090E0892B78
:1007400029F00E94000081110C9400000895FC0122
:1007500001900020E9F73197AF01481B590BBC010C
:1007600084E093E00C9473028F929F92AF92BF92B9
:100770000F931F93CF93DF93CDB7DEB7A1970FB63B
:10078000F894DEBF0FBECDBF19A2423008F44AE094
:100790008E010F5D1F4F842E912CB12CA12CA50131
:1007A00094010E946009E62FB901CA01EA30F4F40D
:1007B000E05DD801EE938D01232B242B252B79F7B7
:1007C00090E080E0109719F0CD010E94A703A19658
:1007D0000FB6F894DEBF0FBECDBFDF91CF911F9152
:1007E0000F91BF90AF909F908F900895E95CE1CFFB
:1007F000CF92DF92EF92FF92CF93DF936B017C0158
:100800006DE284E093E00E940903EC0166277727FC
:10081000CB016C197D098E099F094AE00E94B4033F
:100820008C0F9D1FDF91CF91FF90EF90DF90CF90C5
:100830000895CF93DF930E94A703EC018CE192E02F
:100840000E94A7038C0F9D1FDF91CF9108954F92B7
:100850005F926F927F928F929F92AF92BF92CF9250
:10086000DF92EF92FF920F931F93CF936B017C0166
:10087000742EAC019B010E94C80B882399F08FE174
:1008800092E0CF911F910F91FF90EF90DF90CF906A
:10089000BF90AF909F908F907F906F905F904F90A0
:1008A0000C94A70346015701E894B7F82FEF3FEFE8
:1008B0004FE75FE7C501B4010E94C80B81110DC06D
:1008C0002FEF3FEF4FE75FE7C501B4010E94F70943
:1008D00018161CF483E292E0D4CF2FEF3FEF4FE7DE
:1008E0005FE4C701B6010E94560B18161CF487E29C
:1008F00092E0C7CF2FEF3FEF4FE75FECC701B601A4
:100900000E94F70987FDF3CF20E030E0A901C7017D
:10091000B6010E94F70910E000E087FF0AC06DE20F
:1009200084E093E00E9409038C01F7FAF094F7F851
:10093000F094C0E060E070E080E09FE37C1641F05E
:1009400020E030E040E251E40E94FC09CF5FF6CFA6
:10095000A70196010E948B092B013C010E94750A98
:100960004B015C014AE00E94B4037C01E00EF11EE1
:10097000CC23C1F1C501B4010E94A40A9B01AC01C2
:10098000C301B2010E948A094B015C016EE284E05E
:1009900093E00E940903E80EF91EC15018F120E00F
:1009A00030E040E251E4C501B4010E945B0B2B0131
:1009B0003C010E94750A4B01B12CA12C4AE0C501F3
:1009C000B4010E94B403E80EF91EC501B4010E94EF
:1009D000A40A9B01AC01C301B2010E948A094B0128
:1009E0005C01DBCFC701CF911F910F91FF90EF907A
:1009F000DF90CF90BF90AF909F908F907F906F903F
:100A00005F904F9008952F923F924F925F926F9216
:100A10007F928F929F92AF92BF92CF92DF92EF928E
:100A2000FF920F931F93CF93DF932091F9023091A0
:100A3000FA022115310509F4ACC08C01E0900802DE
:100A4000F09009022130310509F047C08AEF9FEF8D
:100A5000F7FC23C060E08E2D0E94EE019091A1036F
:100A60008091A2039CBD8DBD0CB405FC29C01EBCA9
:100A700000000DB407FEFDCFCEB51EBC00000DB4C6
:100A800007FEFDCFDEB561E0809108020E94EE0115
:100A9000F801D083C18390E080E0DF91CF911F9176
:100AA0000F91FF90EF90DF90CF90BF90AF909F900D
:100AB0008F907F906F905F904F903F902F90089510
:100AC0001EBC00000DB407FEFDCFDEB51EBC00004D
:100AD0000DB407FEFDCFCEB5D6CFF7FC5DC080903C
:100AE00000029090010297FC57C0C0910202D09181
:100AF0000302D7FD51C060E08E2D0E94EE01B12CA3
:100B0000A12C9FE0C92ED12CDD27CE018E599E4FFE
:100B10002C01FE01EE5DFD4F3F01C452DE4F60E04F
:100B2000882D0E94EE01F2018491F3013490FE01C0
:100B30002490222059F181110E948701E22DF0E0DA
:100B4000EE0FFF1FE85BFE4FA591B4918C91382208
:100B500031E020E009F430E0832F922F0C2C02C00A
:100B6000880F991F0A94E2F7A82AB92A61E0882D14
:100B70000E94EE01F1E0CF1AD10888F661E08E2DD7
:100B80000E94EE01F801B182A08285CF90E080E062
:100B9000E5CF8EEF9FEF81CF89EF9FEF7ECFCF9292
:100BA000DF92EF92FF920F931F93CF93DF931F92E9
:100BB0001F92CDB7DEB78C01CE0101960E940305CE
:100BC000892B09F04BC069817A8162FD47C083E0BF
:100BD000769567958A95E1F790E080E00E94A40AF7
:100BE00020E030E040E85EE30E945B0B6B017C019B
:100BF000AC019B010E94C80B811130C0012BF1F4A4
:100C000020E030E0A901C701B6010E94560B20E0A8
:100C100030E040E05FE387FD1CC0C701B6010E94E1
:100C20008B090E946E0A0F900F90DF91CF911F9158
:100C30000F91FF90EF90DF90CF90089520E030E08B
:100C400048EC52E4C701B6010E945B0B6B017C01CA
:100C5000D7CFC701B6010E948A09E3CF60E070E0F8
:100C600080E090E8E0CFCF92DF92EF92FF92CF93B7
:100C7000DF931F921F92CDB7DEB7CE0101960E947F
:100C80000305892B09F04CC069817A8162FD48C057
:100C900083E0769567958A95E1F790E080E00E9481
:100CA000A40A20E030E040E85EE30E945B0B6B01A9
:100CB0007C01AC019B010E94C80B811131C020E076
:100CC00030E048EC52E4C701B6010E945B0B6B01B7
:100CD0007C0120E030E0A9010E94560B20E030E0CA
:100CE00040E05FE387FD17C0C701B6010E948B0992
:100CF0000E946E0A0E94A60A20E030E048EC52E40E
:100D00000E94FC090F900F90DF91CF91FF90EF9020
:100D1000DF90CF900895C701B6010E948A09E8CFFD
:100D200060E070E080EC9FE7EDCF1F920F920FB66E
:100D30000F9211242F933F938F939F93AF93BF9361
:100D40008091FC029091FD02A091FE02B091FF0201
:100D50003091FB0223E0230F2D3758F50196A11D9A
:100D6000B11D2093FB028093FC029093FD02A0939F
:100D7000FE02B093FF028091000390910103A091C5
:100D80000203B09103030196A11DB11D80930003DE
:100D900090930103A0930203B0930303BF91AF911B
:100DA0009F918F913F912F910F900FBE0F901F90A9
:100DB000189526E8230F0296A11DB11DD2CF1F92D0
:100DC0000F920FB60F9211240BB60F922F933F93F1
:100DD0004F935F936F937F938F939F93AF93BF9343
:100DE000EF93FF9384E093E00E94E702FF91EF917D
:100DF000BF91AF919F918F917F916F915F914F9133
:100E00003F912F910F900BBE0F900FBE0F901F9030
:100E100018951F920F920FB60F9211240BB60F92D6
:100E20002F938F939F93EF93FF93E0911403F0918F
:100E300015038081E0911A03F0911B0382FD1DC010
:100E4000908180911D038F5F8F7320911E03821705
:100E500041F0E0911D03F0E0EC5FFC4F958F809333
:100E60001D03FF91EF919F918F912F910F900BBEDA
:100E70000F900FBE0F901F9018958081F2CFE4E085
:100E8000F3E01382128288EE93E0A0E0B0E0848366
:100E90009583A683B7838EE092E09183808385EC6F
:100EA00090E09587848784EC90E09787868780EC34
:100EB00090E0918B808B81EC90E0938B828B82EC25
:100EC00090E0958B848B86EC90E0978B868B118ECF
:100ED000128E138E148EE1EAF3E082E58083118294
:100EE0000895CF93DF9300D000D0CDB7DEB77894CC
:100EF00084B5826084BD84B5816084BD85B582601F
:100F000085BD85B5816085BD80916E0081608093CF
:100F10006E00109281008091810082608093810038
:100F20008091810081608093810080918000816048
:100F3000809380008091B10084608093B1008091A3
:100F4000B00081608093B0008091910082608093B6
:100F50009100809191008160809391008091900038
:100F60008160809390008091A10082608093A100B5
:100F70008091A10081608093A1008091A000816098
:100F80008093A00080912101826080932101809153
:100F900021018160809321018091200181608093F3
:100FA000200180917A00846080937A0080917A0099
:100FB000826080937A0080917A00816080937A00C9
:100FC00080917A00806880937A001092C100E0914D
:100FD0001403F091150382E08083E0911003F091F7
:100FE00011031082E0911203F091130380E18083DA
:100FF00010921C03E0911803F091190386E080839E
:10100000E0911603F0911703808180618083E09165
:101010001603F0911703808188608083E0911603A6
:10102000F0911703808180688083E0911603F0912E
:10103000170380818F7D808368EC70E080E090E012
:101040000E9441028BE292E00E9419048091080202
:101050009091090297FD03C060E00E94EE0110929A
:10106000FA021092F9028FEF9FEF909303028093A0
:10107000020290930102809300028AE090E0909334
:1010800009028093080280E89AE1A6E0B0E080932C
:10109000040290930502A0930602B09307028AE02F
:1010A0000E94680161E08AE00E94EE0182E580937F
:1010B000A1031092A2031FB7F8948091F802811146
:1010C00024C0E1E1F2E08491E7E5F2E09491E82FB9
:1010D000F0E0EE0FFF1FEE53FE4FA591B491EC919F
:1010E000E92321F461E085E30E94EE0185E30E949B
:1010F00068018CB580618CBD8CB580648CBD84E347
:101100000E94680183E30E9468018091F8028F5F6A
:101110008093F8021FBF81E090E09093FA028093E1
:10112000F90287E492E00E94190482E090E00E94B4
:1011300033066B837C838D839E8383E090E00E94E3
:1011400033066B017C01AC019B010E94C80B412C52
:10115000512C30EC632E3FE7732E811137C020E015
:1011600030E040E151E4C701B6010E945B0B20E092
:1011700030E040EA50E40E94FC0920E030E040E02A
:1011800052E40E948B0920E030E048EC52E40E94D7
:101190005B0B6B017C0120E030E0A9010E94560B43
:1011A00020E030E040E05FE387FD48C0C701B601C2
:1011B0000E948B090E946E0A0E94A60A20E030E07D
:1011C00048EC52E40E94FC092B013C0190E080E0D5
:1011D0000E94CF054B015C0182E090E00E94CF05A8
:1011E0006B017C01CE0101960E94030511E0892B61
:1011F00041F489819A819695879596958795182FC0
:1012000011702B813C814D815E81CA01B9010E9420
:10121000C80B8823C1F08AE592E00E9419041123CB
:1012200021F086ED92E00E94190468EE73E080E000
:1012300090E00E9441020E94760377CFC701B60179
:101240000E948A09B7CF8FE892E00E94A70342E08C
:101250006B817C818D819E810E9427048DE992E0C3
:101260000E94A70342E0C301B2010E94270486EA5C
:1012700092E00E9419048BEA92E00E94A703B7FE55
:1012800013C0C501B4010E94F8038CEB92E00E94E8
:10129000A703F7FE0FC0C701B6010E94F8038CE157
:1012A00092E00E94A703BBCF4AE0C501B4010E94AF
:1012B000B403EBCF4AE0C701B6010E94B403EFCFFD
:1012C000A1E21A2EAA1BBB1BFD010DC0AA1FBB1F4A
:1012D000EE1FFF1FA217B307E407F50720F0A21BBC
:1012E000B30BE40BF50B661F771F881F991F1A9429
:1012F00069F760957095809590959B01AC01BD0153
:10130000CF010895EE0FFF1F881F8BBF0790F69146
:10131000E02D19945058BB27AA270E94A2090C94CB
:101320001C0B0E940E0B38F00E94150B20F039F4B4
:101330009F3F19F426F40C940B0B0EF4E095E7FB99
:101340000C94050BE92F0E942D0B58F3BA17620776
:1013500073078407950720F079F4A6F50C944F0BDA
:101360000EF4E0950B2EBA2FA02D0B01B9019001C0
:101370000C01CA01A0011124FF27591B99F0593F04
:1013800050F4503E68F11A16F040A22F232F342F4C
:101390004427585FF3CF469537952795A795F0409A
:1013A0005395C9F77EF41F16BA0B620B730B840BAF
:1013B000BAF09150A1F0FF0FBB1F661F771F881F67
:1013C000C2F70EC0BA0F621F731F841F48F48795BF
:1013D00077956795B795F7959E3F08F0B0CF9395B1
:1013E000880F08F09927EE0F9795879508950E942A
:1013F000E10A08F481E008950E94100A0C941C0B85
:101400000E94150B58F00E940E0B40F029F45F3F2C
:1014100029F00C94050B51110C94500B0C940B0BF0
:101420000E942D0B68F39923B1F3552391F3951B7B
:10143000550BBB27AA2762177307840738F09F5FF5
:101440005F4F220F331F441FAA1FA9F335D00E2E62
:101450003AF0E0E832D091505040E695001CCAF7CF
:101460002BD0FE2F29D0660F771F881FBB1F261792
:1014700037074807AB07B0E809F0BB0B802DBF0169
:10148000FF2793585F4F3AF09E3F510578F00C9438
:10149000050B0C94500B5F3FE4F3983ED4F3869514
:1014A00077956795B795F7959F5FC9F7880F911D59
:1014B0009695879597F90895E1E0660F771F881F45
:1014C000BB1F621773078407BA0720F0621B730BF8
:1014D000840BBA0BEE1F88F7E09508950E94750AF9
:1014E0006894B1110C94500B08950E94350B88F04C
:1014F0009F5798F0B92F9927B751B0F0E1F0660FD8
:10150000771F881F991F1AF0BA95C9F714C0B13018
:1015100091F00E944F0BB1E008950C944F0B672F90
:10152000782F8827B85F39F0B93FCCF38695779547
:101530006795B395D9F73EF4909580957095619530
:101540007F4F8F4F9F4F0895E89409C097FB3EF45B
:1015500090958095709561957F4F8F4F9F4F992300
:10156000A9F0F92F96E9BB279395F695879577957E
:101570006795B795F111F8CFFAF4BB0F11F460FF3E
:101580001BC06F5F7F4F8F4F9F4F16C0882311F096
:1015900096E911C0772321F09EE8872F762F05C0AA
:1015A000662371F096E8862F70E060E02AF09A9545
:1015B000660F771F881FDAF7880F9695879597F93A
:1015C0000895990F0008550FAA0BE0E8FEEF1616D4
:1015D0001706E807F907C0F012161306E407F50727
:1015E00098F0621B730B840B950B39F40A2661F09B
:1015F000232B242B252B21F408950A2609F4A1403E
:10160000A6958FEF811D811D089597F99F6780E84A
:1016100070E060E008959FEF80EC089500240A9444
:101620001616170618060906089500240A941216BD
:101630001306140605060895092E0394000C11F4F0
:10164000882352F0BB0F40F4BF2B11F460FF04C09D
:101650006F5F7F4F8F4F9F4F089557FD9058440FF6
:10166000551F59F05F3F71F04795880F97FB991F01
:1016700061F09F3F79F087950895121613061406BE
:10168000551FF2CF4695F1DF08C01616170618064B
:10169000991FF1CF86957105610508940895E89426
:1016A000BB2766277727CB0197F908950E94E10AA7
:1016B00008F48FEF08950E946E0B0C941C0B0E948F
:1016C0000E0B38F00E94150B20F0952311F00C94AE
:1016D000050B0C940B0B11240C94500B0E942D0B3A
:1016E00070F3959FC1F3950F50E0551F629FF00175
:1016F000729FBB27F00DB11D639FAA27F00DB11D8E
:10170000AA1F649F6627B00DA11D661F829F222716
:10171000B00DA11D621F739FB00DA11D621F839F9D
:10172000A00D611D221F749F3327A00D611D231F73
:10173000849F600D211D822F762F6A2F11249F57C1
:1017400050409AF0F1F088234AF0EE0FFF1FBB1FC4
:10175000661F771F881F91505040A9F79E3F510583
:1017600080F00C94050B0C94500B5F3FE4F3983E13
:10177000D4F3869577956795B795F795E7959F5F2D
:10178000C1F7FE2B880F911D9695879597F90895BF
:0E1790000E94E10A880B990B0895F894FFCF90
:10179E00FFFFFFFF801A0600FFFF00000000090395
:1017AE007302A0025603D102AF02C3020D0A006EED
:1017BE00616E00696E66006F7666004D4158363672
:1017CE0037352041726475696E6F20554E4F206516
:1017DE0078616D706C650048572053504920696ED2
:1017EE00697469616C697A6564004572726F722002
:1017FE0072656164696E672074656D70657261747F
:10180E0075726520284E414E29206F7220746865CE
:10181E00726D6F636F75706C65206F70656E0054BE
:10182E00656D70657261747572653A200020C2B084
:10183E004320207C200020C2B04600417320696EF8
:10184E007420283020646563293A2000202020412E
:10185E007320696E74207363616C6564202878311F
:10186E003030293A2000546865726D6F636F757061
:10187E006C65206F70656E2F6661756C7420646583
:08188E007465637465642100B8
:00000001FF
