:100000000C94CE020C94EF020C94EF020C94EF02CD
:100010000C94EF020C94EF020C94EF020C94EF029C
:100020000C94EF020C94EF020C94EF020C94EF028C
:100030000C94A20C0C94EF020C94EF020C94EF02BF
:100040000C94EF020C94EF020C94EF020C94EF026C
:100050000C94EF020C94EF020C94EF020C94D80372
:100060000C94EF020C94EF020C94EF020C94EF024C
:100070000C94EF020C94EF020C94EF020C94EF023C
:100080000C94EF020C94EF020C94EF020C94EF022C
:100090000C94EF020C94EF020C94EF020C94EF021C
:1000A0000C94EF020C94EF020C94EF020C94EF020C
:1000B0000C94EF020C94EF020C94EF020C94EF02FC
:1000C0000C94EF020C94EF020C94EF020C94EF02EC
:1000D0000C94EF020C94EF020C94EF020C94EF02DC
:1000E0000C94EF020C94C1020C9461030C945B031A
:1000F0000C9443030C944D030C946F030C947903FC
:100100000C9425010C9449030C9465030C9484020F
:100110000C943C030C9440030C9438030C9422037D
:100120000C9434030C941D030C9469030C94580133
:100130000C94AF020C9453030C94C7020C947303F9
:100140000C94570300002100240027002A002D00F2
:100150003000330001010000040107010A01000022
:100160002200250028002B002E003100340002015F
:100170000000050108010B01050505050705080834
:100180000808020202020A0A080804040404010121
:100190000101010101010303030303030303040736
:1001A00007070C0C0C0C0C0C0C0C020202020606CD
:1001B0000606060606060B0B0B0B0B0B0B0B0102C0
:1001C0001020200808102040102040800201020169
:1001D0000804020101020408102040808040201021
:1001E000080402018004020180402010080402017A
:1001F00008040201010204081020408001020408E2
:100200001020408000000A0B02090C0D0E080703A5
:1002100004010000000000000000000000000000D9
:1002200000000000000000000000000000000000CE
:10023000121110000000000000000000000000008B
:100240000000000000000000000000E010E08091CD
:100250004D0281110CC080919102823010F00E94F9
:10026000C9060115110599F30E940000F0CF0FB6E1
:10027000F8940F92E0915302F0915402C681D78115
:10028000CE0102960E94450480916B0281508093BA
:100290006B0280914D02815080934D020F900FBEF2
:1002A0008F89988D0E94E20BCE010E94E20BCFCF86
:1002B000CF93DF9300D01F921F92CDB7DEB785E0BA
:1002C000B82ECE0101967C01E0918402F091850266
:1002D0001081D12CC12C112329F00580F681E02D4D
:1002E000C080D1800E94C3060E94B9064C01809153
:1002F0007E0290917F028816990608F08BC00E94BA
:10030000240590927F0280927E020E949107D7017D
:10031000EB2D1D92EA95E9F7009180021091810280
:100320000FB6F8940F92D8015A96DC905A97DD20B8
:1003300009F431C15C964C915C974423F9F050E08C
:1003400016968D919C911797840F951F17969C93E5
:100350008E93169714962D913C91159782179307BB
:1003600038F08D919C91119717969C938E931697C8
:10037000F80166817781C7010E943D0FDA94D801A8
:100380005A96DC925A9718968C91882339F0C801B6
:1003900008960E94D20581110E94C9060F900FBED7
:1003A000A980A7FCB9CF0C811D81D8011A968D9127
:1003B0009C91892B21F0C80102960E9445040E945D
:1003C000B9066C0180917E0290917F02C816D90611
:1003D00010F40E942405D0927F02C0927E02EFEFBB
:1003E000EA0DE93008F098CF0E2E000CFF0BD80173
:1003F00052969C9152978827EF5FFD4F8F4F0C9438
:10040000350F84028402C702AF02C1028402840253
:10041000C702AF0290927F0280927E02112351F0B8
:100420008C149D0470F00E949107B401C6010E94D3
:10043000FA046DCFE0918202F091830261E0808145
:10044000811160E000918002109181020FB6F89452
:100450000F92D8015D968C915D978F3F11F45D9658
:100460001C92F801868D8F3F09F4168E0F900FBEF7
:10047000D8015A968C915A9781113CC05296ED91B1
:10048000FC91A091B602B091B7021F96FC93EE9337
:100490001E97A091B602B091B702848195815196C2
:1004A0009C938E9350978091B6029091B702A4814D
:1004B000B5810C9613969C938E9312978091B602F9
:1004C0009091B7020C9695838483E091B602F091E7
:1004D000B702C8014196958B848BF80181898F5FA3
:1004E000818BC60188199909662311F08FEF9FEF60
:1004F0000E944205C8010E9477060E94910781115F
:1005000006CF0E94C90603CF9160F801928B8A80C2
:100510009B8064857585680D791D9401A601C801CD
:100520000E94AC04882309F4F7CED80152968C912E
:10053000529782FF10C01C966D917C91680D791DB9
:10054000A601C8010E94D604D8015096ED91FC91F5
:10055000C8011995E1CE8E7FF801828BF5CF9160AD
:1005600052969C9352976A817B811D967C936E93E1
:100570001C976C0D7D1D9601A601C8010E94AC045C
:10058000CBCE91FD04C0C8010E94E20BC5CE9E7F78
:10059000F801928BC1CE0F900FBE96CE11241FBED4
:1005A000CFEFD1E2DEBFCDBF00E00CBF12E0A0E094
:1005B000B2E0EEE9FEE100E00BBF02C007900D9251
:1005C000AC32B107D9F722E0ACE2B2E001C01D9233
:1005D000AE3BB207E1F70E94A50C0C944D0F0C94B2
:1005E0000000382FE1E1F2E08491EBECF1E024919E
:1005F000E5E8F1E09491992309F435C0882311F1DD
:1006000081508231F8F4E82FF0E08827E55FFC4F55
:100610008F4F0C94350F3C0340031D033403380304
:100620002203430349034D03530357035B03610351
:100630006503220369036F037303809180008F7742
:1006400080938000E92FF0E0EE0FFF1FE25AFE4F8B
:10065000A591B4918FB7F894EC91311148C02095D1
:100660002E232C938FBF0895809180008F7DE8CF3B
:1006700080918000877FE4CF84B58F7784BDE2CFFF
:1006800084B58F7DFBCF8091B0008F778093B000D1
:10069000D9CF8091B0008F7DF9CF809190008F7776
:1006A00080939000CFCF809190008F7DF9CF809183
:1006B0009000877FF5CF8091A0008F778093A00076
:1006C000C1CF8091A0008F7DF9CF8091A000877F5E
:1006D000F5CF809120018F7780932001B3CF809157
:1006E00020018F7DF9CF80912001877FF5CF2E2BC0
:1006F000B8CFEBECF1E02491E5E8F1E084918823B8
:1007000099F090E0880F991FFC01EC5BFE4FA591DA
:10071000B491FC01E25AFE4F859194918FB7F89401
:10072000EC91E22BEC938FBF81E00E94F102E7E0B5
:10073000F2E0819181110DC00E945D0980E00E946C
:10074000F102EFE0F2E0819181110AC00E945D099F
:10075000EBCF9091C00095FFFCCF8093C600E9CF0E
:100760009091C00095FFFCCF8093C600ECCF0F9313
:100770001F931092C50087E68093C40088E18093A0
:10078000C10086E08093C20010E000E021E040E874
:1007900050E068E172E089E793E00E94110C009755
:1007A00021F01F910F910C946B091F910F910895E7
:1007B0001F920F920FB60F9211242F933F938F9396
:1007C0009F93AF93BF938091490290914A02A09169
:1007D0004B02B0914C023091480223E0230F2D3799
:1007E00058F50196A11DB11D20934802809349023E
:1007F00090934A02A0934B02B0934C028091440222
:1008000090914502A0914602B09147020196A11D28
:10081000B11D8093440290934502A0934602B09389
:100820004702BF91AF919F918F913F912F910F9070
:100830000FBE0F901F90189526E8230F0296A11D5A
:10084000B11DD2CF0FB6F8940F92FC01928D0F908C
:100850000FBE81E0911180E00895E0918B02F0914C
:100860008C028081811107C08FEF9FEF90938702E8
:10087000809386020895E0918B02F0918C020580AE
:10088000F681E02D80819181F1CFCF93DF93FC0140
:10089000A085B1858281938124813581EC013D83DE
:1008A0002C83C481D5819B838A8311968D919C91E1
:1008B00012978E179F0721F41296DC93CE9311970F
:1008C000118610868C9181508C93DF91CF91089581
:1008D0000F931F93CF93DF938C01FB018081918154
:1008E000D80113968F3F9807F1F4E801AF81B885DE
:1008F00012968D919C91139793838283EC01FD83D3
:10090000EC83B583A4831396FC93EE93129711871F
:100910000087F80180818F5F8083DF91CF911F91E5
:100920000F910895D90112962D913C911397E901E9
:100930004881598184179507A8F7DACFFC010396FF
:10094000928381832FEF3FEF3483238396838583C4
:100950009087878310820895FC0173836283918757
:1009600080874617570790F0421B530B8485958567
:1009700048175907C8F4BF016E5F7F4F809182020C
:10098000909183020E94680480E008954217530703
:1009900018F46217730740F4BF016E5F7F4F8091B8
:1009A000840290918502EECF81E00895EF92FF924C
:1009B0000F931F93CF93DF93EC018B017A016C852A
:1009C0007D85600F711F9801A701CE010E94AC04C4
:1009D000811107C0DF91CF911F910F91FF90EF9090
:1009E00008958C859D85080F191FE889F989CE0126
:1009F0001995E5CFEF92FF920F931F93CF93DF935B
:100A00008C017B01E0918402F09185020580F681E2
:100A1000E02DC681D781CE0102960E9445048A89C5
:100A200082FF0FC0A701B801CE010E94D604E88959
:100A3000F989CE01DF91CF911F910F91FF90EF9037
:100A400019948E7F8A8BF3CFE0918402F091850216
:100A5000808181110DC080918202909183029093D8
:100A6000850280938402F0938302E09382020895CA
:100A70000580F681E02D6FEF7FEF808191810E94EC
:100A8000FA04E2CFBF92CF92DF92EF92FF920F93E0
:100A90001F93CF93DF93EC01B62EC0908D02D090C0
:100AA0008E0200918B0210918C02E0908902F090EE
:100AB0008A028091B6029091B70202960E94450484
:100AC000CF3FDC0709F042C0BB2009F43FC0E091F2
:100AD0007602F0917702A091B602B091B702159616
:100AE000FC93EE931497A091B602B091B702848163
:100AF000958117969C938E9316978091B60290914C
:100B0000B702A481B581029613969C938E93129797
:100B10008091B6029091B702029695838483E0910A
:100B2000B602F091B70285E792E0938782878091C1
:100B300075028F5F80937502DF91CF911F910F91A6
:100B4000FF90EF90DF90CF90BF900895CC0DDD1D0A
:100B5000E091B602F091B702D383C2836091B602EE
:100B60007091B7026E5F7F4FCC15DD0560F4C70151
:100B7000DF91CF911F910F91FF90EF90DF90CF9079
:100B8000BF900C946804C8010E946804809186029A
:100B900090918702C817D90778F6D0938702C0933F
:100BA0008602CACFCF93DF93DC011596ED91FC91BD
:100BB0000680F781E02DA489B589868597852089EF
:100BC0003189EC013D832C83C089D1899B838A8341
:100BD000CF010C9611962D913C9112972817390749
:100BE00021F41296DC93CE931197158A148A2C91D6
:100BF00021502C932091B802211157C0A285B385B2
:100C00008481958126813781EC013D832C83C681C7
:100C1000D7819B838A83CF01029611962D913C91B7
:100C200012972817390721F41296DC93CE93119767
:100C3000138612862C9121502C93C6892091B502DF
:100C40002C1710F4C093B50229E02C9FE001112469
:100C5000CF56DD4F0980DA81C02DD583C4834C8106
:100C60005D8157834683AC81BD8113969C938E939F
:100C700012979D838C83A689A29FD0011124AF5621
:100C8000BD4FB387A2878C918F5F8C93A091B602E2
:100C9000B091B702968956968C91891730F581E00C
:100CA0008093B902DF91CF910895A0916D02B09128
:100CB0006E02B787A68714962D913C911597318BBC
:100CC000208B1496CD91DC9115979B838A83159682
:100CD0009C938E9314978CE692E0958B848B8091F5
:100CE0006C028F5F80936C02D1CF80E0DBCFEF92FC
:100CF000FF920F931F93CF93DF93EC010FB6F894FD
:100D00000F921E8D7C0181E1E80EF11C01E01116AD
:100D1000D4F08FEF8E8F0F900FBE0FB6F8940F9216
:100D20001D8D7E0188E0E80EF11C01E01116B4F083
:100D30008FEF8D8F0F900FBEDF91CF911F910F918D
:100D4000FF90EF9008958989882319F3C7010E94C5
:100D5000D20581110093B9021150D9CF888588231B
:100D600039F3C7010E94D20581110093B9021150D5
:100D7000DDCF0FB6F8940F9280918D0290918E0284
:100D80000F900FBE08958091B8028F5F8093B802D4
:100D900008950F920FB6F8940F920BB60F920CB6FF
:100DA0000F921F9211242F923F924F925F926F9257
:100DB0007F928F929F92AF92BF92CF92DF92EF92EB
:100DC000FF920F931F932F933F934F935F936F93D4
:100DD0007F938F939F93AF93BF93CF93DF93EF93C3
:100DE000FF93A091B602B091B7020DB60D920EB668
:100DF0000D928091B802882321F081E08093B9029E
:100E000061C01092B902A091B602B091B702E09110
:100E1000B602F091B7022D913C918789908D82178F
:100E20009307A8F08091B6029091B7028091B60224
:100E30009091B702279A2F9A2FEF87EA91E62150D7
:100E400080409040E1F700C000001F9AF5CF20914C
:100E5000B50289E001C02150422F50E0849FF0018B
:100E6000859FF00D1124EF56FD4F9081992399F342
:100E7000A181B28112966D917C9172836183289FCA
:100E8000C00111248C569D4F6817790721F4858184
:100E900096819283818389E0849FF001859FF00D84
:100EA0001124EF56FD4F0180F281E02D868197815C
:100EB0009093B7028093B6022093B5028091B60258
:100EC0009091B702A091B602B091B702CD91CDBF7B
:100ED000DD91DEBFFF91EF91DF91CF91BF91AF9197
:100EE0009F918F917F916F915F914F913F912F9142
:100EF0001F910F91FF90EF90DF90CF90BF90AF9038
:100F00009F908F907F906F905F904F903F902F9029
:100F10001F900F900CBE0F900BBE0F900FBE0F9046
:100F200008958F929F92BF92CF92DF92EF92FF929D
:100F30000F931F93CF93DF930FB6F8940F92809186
:100F4000B80281508093B8028091B802882379F06A
:100F500080E00F900FBEDF91CF911F910F91FF9016
:100F6000EF90DF90CF90BF909F908F9008958091E9
:100F70006B02882369F3E0907102F0907202F0E056
:100F8000E0E039E041E080916C0281115EC0EF2B1E
:100F900011F00E942D04E0908F02F0909002E11475
:100FA000F10409F47DC189E0D82ECC24C3940FEF5D
:100FB0001FEF8091B802811161C1C0918D02D09163
:100FC0008E024E018FEF881A980A90928E028092BC
:100FD0008D0281149104B9F480918B0290918C025E
:100FE0002091890230918A0230938C0220938B02E7
:100FF00090938A0280938902809188028F5F809308
:1010000088020E942D048091860290918702B12C63
:101010008816990608F026C1E091B602F091B70251
:10102000E689DE9EF0011124EF56FD4F808182306B
:1010300010F0BB24B3948091B902811103C0BB208E
:1010400009F425C1C092B90222C1D7011696ED91CB
:10105000FC91A489B5896685778580899189EB01A2
:101060009D838C8380899189EC017B836A83BF0196
:10107000645F7F4F11960D911C9112970617170709
:1010800021F412969C938E931197158A148A8C9151
:1010900081508C93A285B385848195816681778107
:1010A000EC017D836C8366817781EB019B838A836E
:1010B000CF01029611960D911C91129708171907EE
:1010C00021F412967C936E931197138612862C91BD
:1010D00021502C93A6892091B5022A1710F4A093D1
:1010E000B5023A9FD0011124AF56BD4F11960D9015
:1010F000BC91A02DB583A48314966D917C91159716
:101100007783668314966D917C911597EB019B8391
:101110008A8315969C938E9314979689939FD001FA
:101120001124AF56BD4FB387A2878C918F5F8C93EC
:10113000A091B602B091B70256968C91891708F02B
:1011400022CF4093B9021FCFE0918B02F0918C0225
:101150000580F681E02D0680F781E02D8281938164
:101160008816990628F4909387028093860254CFBC
:10117000C285D3858481958126813781DC011596CE
:101180003C932E93149726813781D90113969C9313
:101190008E931297CF01029649815A8148175907B9
:1011A00011F43A83298313861286288121502883DB
:1011B000A489B5891097F9F026853785408951892A
:1011C000E9015D834C8340895189EA013B832A838D
:1011D00011966D917C9112979F01245F3F4F62178A
:1011E000730721F412965C934E931197158A148A13
:1011F0002C9121502C93A6892091B5022A1710F426
:10120000A093B502DA9ED0011124AF56BD4F1196BE
:101210000D90BC91A02DB583A48314962D913C9183
:1012200015973783268314962D913C911597E901E4
:101230009B838A8315969C938E93149796899D9D84
:10124000D0011124AF56BD4FB387A2878C918F5F19
:101250008C93E091B602F091B7028689891710F459
:10126000BB24B394E0918B02F0918C0280818111B8
:101270006BCF1093870200938602CECE80918F02AF
:101280009091900201969093900280938F02D1E00A
:10129000ED1AF10809F08DCE1092900210928F0293
:1012A0008091B902882309F453CE8091B6029091BF
:1012B000B7020E94C90681E04CCE0E94C30660E0DE
:1012C0008EE390E00E9442050E949107811102C0C6
:1012D0000E94C9060895CF93DF93EC010FB6F894EE
:1012E0000F9280916B028F5F80936B028091B602A8
:1012F0009091B702892B09F080C0D093B702C093B8
:10130000B60280916B02813081F581E992E00E9402
:101310009E048AE992E00E949E0483EA92E00E9481
:101320009E048CEA92E00E949E0480E692E00E9475
:101330009E0487E592E00E949E048CE692E00E9463
:101340009E048EE492E00E949E0485E792E00E9453
:101350009E0480E692E090938C0280938B0287E556
:1013600092E090938A0280938902809169028F5F54
:1013700080936902AE898091B5028A1710F4A09318
:10138000B50229E02A9FD0011124AF56BD4F119616
:101390000D90BC91A02DBD83AC8314968D919C9132
:1013A00015979F838E831496ED91FC911597CE012E
:1013B00002969383828315969C938E931497EE895D
:1013C000E29FF0011124EF56FD4FFB87EA878081F1
:1013D0008F5F80830F900FBE80916A02882351F047
:1013E000E091B602F091B70296898E89981710F4B1
:1013F0000E94C906DF91CF91089580916A02811100
:10140000B4CFE091B602F091B70296898E89891720
:1014100008F4ABCFD093B702C093B602A6CF0F9219
:101420000FB6F8940F920BB60F920CB60F921F9254
:1014300011242F923F924F925F926F927F928F92E0
:101440009F92AF92BF92CF92DF92EF92FF920F9353
:101450001F932F933F934F935F936F937F938F933C
:101460009F93AF93BF93CF93DF93EF93FF93A0919D
:10147000B602B091B7020DB60D920EB60D9213BE24
:101480008091B8028111F9C080918D0290918E02F5
:10149000019690938E0280938D02009781F52091A2
:1014A0008B0230918C024091890250918A025093B4
:1014B0008C0240938B0230938A0220938902209100
:1014C00088022F5F20938802E0918B02F0918C02BA
:1014D0002081211107C02FEF3FEF30938702209327
:1014E00086020DC0E0918B02F0918C020580F6819E
:1014F000E02D208131813093870220938602209154
:101500008602309187028217930710F420E0A1C071
:1015100020E039E0D32EE0918B02F0918C023081F3
:10152000311107C08FEF9FEF90938702809386025F
:1015300090C0E0918B02F0918C020580F681E02D45
:101540000680F781E02D428153818417950728F4A6
:1015500050938702409386027CC0A285B385448164
:10156000558166817781EA017D836C83668177810D
:10157000EB015B834A83AF014E5F5F4F11960D9184
:101580001C9112970417150721F412967C936E9301
:101590001197138612863C9131503C93A489B589EA
:1015A0001097F9F06685778500891189EB011D8315
:1015B0000C8300891189E8017B836A831196ED9081
:1015C000FC901297BF01645F7F4FE616F70621F487
:1015D00012961C930E931197158A148A3C913150E0
:1015E0003C93A6893091B5023A1710F4A093B50246
:1015F000DA9ED0011124AF56BD4F11960D90BC91CB
:10160000A02DB583A48314966D917C911597778353
:10161000668314966D917C911597EB015B834A83E9
:1016200015965C934E93149746894D9DD0011124D5
:10163000AF56BD4FB387A2873C913F5F3C93E0918B
:10164000B602F091B7023689341708F064CF21E072
:1016500062CFE091B602F091B702E689D9E0ED9F42
:10166000F0011124EF56FD4F8081823008F021E017
:101670008091B90281110EC00AC080918F029091B1
:10168000900201969093900280938F026CC0222367
:1016900009F469C08091B802882321F081E0809329
:1016A000B90261C01092B902A091B602B091B7021E
:1016B000E091B602F091B7022D913C918789908D0F
:1016C00082179307A8F08091B6029091B70280919B
:1016D000B6029091B702279A2F9A2FEF87EA91E6E8
:1016E000215080409040E1F700C000001F9AF5CFE4
:1016F0002091B50289E001C02150422F50E0849F23
:10170000F001859FF00D1124EF56FD4F9081992334
:1017100099F3A181B28112966D917C91728361835C
:10172000289FC00111248C569D4F6817790721F41A
:10173000858196819283818389E0849FF001859FD2
:10174000F00D1124EF56FD4F0180F281E02D8681CE
:1017500097819093B7028093B6022093B50280914F
:10176000B6029091B702A091B602B091B702CD91A6
:10177000CDBFDD91DEBFFF91EF91DF91CF91BF91A2
:10178000AF919F918F917F916F915F914F913F9119
:101790002F911F910F91FF90EF90DF90CF90BF900E
:1017A000AF909F908F907F906F905F904F903F9001
:1017B0002F901F900F900CBE0F900BBE0F900FBE7E
:1017C0000F900895CF93DF93009751F0EC010E94A2
:1017D000C306CE010E94AC0EDF91CF910C9491070D
:1017E000DF91CF910895CF93DF93EC010E94C30660
:1017F000CE010E94100EEC010E949107209769F41F
:10180000279A2F9A2FEF80E792E021508040904056
:10181000E1F700C000001F9AF5CFCE01DF91CF9114
:1018200008957F928F929F92AF92BF92CF92DF9254
:10183000EF92FF920F931F93CF93DF93982EA92ED1
:10184000762E872E7A01B22ECA010E94F30B6C010C
:10185000D0E0C0E0892B09F466C080E390E00E94EC
:10186000F30BEC01892B09F45BC080E3DE011D92D0
:101870008A95E9F7D88ECF8AA70165EA70E0C6019C
:101880000E94460FB1E0EB1AF108EF89F88DEE0DDA
:10189000FF1D672D782DCE0149969B01205F3F4F9C
:1018A000DB014D91BD01DC014D93CD01AB014150F8
:1018B0005109DA014C91442319F02617370781F7B3
:1018C00018A6BE8AB9A61B861A861D8A1C8AD987C5
:1018D000C88784E090E08B1991099D878C87DB8B0A
:1018E000CA8B9082DF011197AC9211971C921197CD
:1018F0001C92119780E88C9311971C9211971C925F
:1019000011971C9257971C9211971C92B697F983C6
:10191000E8830115110539F0F801D183C08303C0B4
:10192000C6010E94E20BCE01DF91CF911F910F9172
:10193000FF90EF90DF90CF90BF90AF909F908F90EF
:101940007F9008950E940F0A1895CF93DF93CDB72B
:10195000DEB760970FB6F894DEBF0FBECDBF7894A8
:1019600084B5826084BD84B5816084BD85B58260A4
:1019700085BD85B5816085BD80916E008160809355
:101980006E001092810080918100826080938100BE
:1019900080918100816080938100809180008160CE
:1019A000809380008091B10084608093B100809129
:1019B000B00081608093B00080919100826080933C
:1019C00091008091910081608093910080919000BE
:1019D0008160809390008091A10082608093A1003B
:1019E0008091A10081608093A1008091A00081601E
:1019F0008093A000809121018260809321018091D9
:101A00002101816080932101809120018160809378
:101A1000200180917A00846080937A0080917A001E
:101A2000826080937A0080917A00816080937A004E
:101A300080917A00806880937A001092C100209192
:101A40000502309106028FEF91E2821B930B909377
:101A50000202809301020E94B703AEE1B2E0FE01F0
:101A600031962EE232E0BF018D918193882319F0E7
:101A70002A173B07C9F70EE212E020E040EC50E0E5
:101A800085E291E00E94110C009709F4BDC00E940C
:101A90006B090FB6F8940F928091800290918102A9
:101AA000892B09F050C089E392E00E949E0480E3F4
:101AB00092E00E949E0489E392E0909385028093D5
:101AC000840280E392E0909383028093820281E516
:101AD00090E00E94F30B8C01009789F14F96F8017A
:101AE000918380838AE0838F85E0848F0FB6F8949A
:101AF0000F9280819181238D448DBC01249F600DC4
:101B0000711D112475836483128E93838283215007
:101B1000330B429FB001439F700D1124860F971F16
:101B2000978386838FEF858F868FC80108960E94E2
:101B30009E04C80141960E949E040F900FBE109310
:101B40008102009380020F900FBE809180029091DD
:101B50008102892B09F458C002E412E023E04CE52D
:101B600050E063E272E088E591E00E94110C00977A
:101B700009F44AC00E946B09F8948FEF9FEF90938D
:101B800087028093860281E080936A0210928E021F
:101B900010928D02A89588E190EC0FB6F894A89564
:101BA000809360000FBE90936000A091B602B09148
:101BB000B702CD91CDBFDD91DEBFFF91EF91DF91F7
:101BC000CF91BF91AF919F918F917F916F915F91D5
:101BD0004F913F912F911F910F91FF90EF90DF90C8
:101BE000CF90BF90AF909F908F907F906F905F90BD
:101BF0004F903F902F901F900F900CBE0F900BBEF8
:101C00000F900FBE0F900895809100020E94B703BD
:101C100000E010E001151105E9F30E940000FACF81
:101C20000F931F93CF93DF938230910510F482E0DE
:101C300090E0E091BC02F091BD0230E020E0B0E025
:101C4000A0E0309799F42115310509F44AC0281B0A
:101C5000390B24303105D8F58A819B8161157105D6
:101C600089F1FB0193838283FE0111C04081518180
:101C70000281138148175907E0F04817590799F472
:101C8000109761F012960C93129713961C9332964C
:101C9000CF01DF91CF911F910F9108950093BC0266
:101CA0001093BD02F4CF2115310551F042175307AF
:101CB00038F0A901DB019A01BD01DF01F801C1CFB4
:101CC000EF01F9CF9093BD028093BC02CDCFFE010E
:101CD000E20FF31F819391932250310939832883B6
:101CE000D7CF2091BA023091BB02232B41F420912F
:101CF0000302309104023093BB022093BA02209178
:101D00000102309102022115310541F42DB73EB791
:101D10004091050250910602241B350BE091BA0256
:101D2000F091BB02E217F307A0F42E1B3F0B28171C
:101D3000390778F0AC014E5F5F4F2417350748F044
:101D40004E0F5F1F5093BB024093BA028193919351
:101D50009FCFF0E0E0E09CCFCF93DF930097E9F0D6
:101D6000FC01329713821282A091BC02B091BD0295
:101D7000ED0130E020E01097A1F420813181820F45
:101D8000931F2091BA023091BB022817390709F03E
:101D900061C0F093BB02E093BA02DF91CF91089546
:101DA000EA01CE17DF07E8F54A815B819E01411504
:101DB0005105B1F7E901FB83EA8349915991C40FB9
:101DC000D51FEC17FD0761F4808191810296840F85
:101DD000951FE90199838883828193819B838A83FC
:101DE000F0E0E0E012968D919C9113970097B9F581
:101DF0002D913C911197CD010296820F931F209156
:101E0000BA023091BB022817390739F6309751F5DD
:101E10001092BD021092BC02B093BB02A093BA0212
:101E2000BCCFD383C28340815181840F951FC817D3
:101E3000D90761F44E5F5F4F88819981480F591F20
:101E4000518340838A819B8193838283211531054D
:101E500009F0B0CFF093BD02E093BC029ECFFD012C
:101E6000DC01C0CF13821282D7CFEE0FFF1F881F75
:101E70008BBF0790F691E02D1994FB01DC0102C0A5
:101E800001900D9241505040D8F70895DC0101C0F7
:0E1E90006D9341505040E0F70895F894FFCF55
:101E9E00030000BE0280004C4544204F4E0A004C09
:101EAE004544204F46460A00426C696E6B00494419
:0C1EBE004C4500546D7220537663000008
:00000001FF
