:100000000C9462000C948A000C948A000C948A0070
:100010000C948A000C948A000C948A000C948A0038
:100020000C948A000C948A000C948A000C948A0028
:100030000C948A000C948A000C948A000C948A0018
:100040000C94A3050C948A000C9413060C94ED05F3
:100050000C948A000C948A000C948A000C948A00F8
:100060000C948A000C948A000000000023002600F3
:10007000290000000008000201000003040700003E
:1000800000000000000000000000250028002B00F8
:1000900000000000240027002A00040404040404D3
:1000A0000404020202020202030303030303010227
:1000B00004081020408001020408102001020408F6
:1000C0001020450611241FBECFEFD8E0DEBFCDBF04
:1000D00011E0A0E0B1E0E8E1F7E102C005900D9287
:1000E000A039B107D9F722E0A0E9B1E001C01D9223
:1000F000A834B207E1F710E0C2E6D0E004C02197CF
:10010000FE010E94E608C136D107C9F70E949A068F
:100110000C948A0B0C94000090E0FC01E255FF4F18
:10012000249186569F4FFC018491882399F090E09A
:10013000880F991FFC01E057FF4FA591B491FC0176
:10014000EA57FF4F859194918FB7F894EC91E22B89
:10015000EC938FBF08958CBD9DBD0895833081F0D1
:1001600028F4813099F08230A9F008958730A9F001
:100170008830C9F08430B1F4809180008F7D03C055
:10018000809180008F7780938000089584B58F7769
:1001900084BD089584B58F7DFBCF8091B0008F77AB
:1001A0008093B00008958091B0008F7DF9CF1F93A8
:1001B000CF93DF93282F30E0F901EE58FF4F849161
:1001C000F901E255FF4FD491F901E656FF4FC49172
:1001D000CC23A9F0162F81110E94AE00EC2FF0E085
:1001E000EE0FFF1FEA57FF4FA591B4918FB7F89418
:1001F000EC91111108C0D095DE23DC938FBFDF9105
:10020000CF911F910895DE2BF8CF3FB7F8948091DE
:10021000960190919701A0919801B091990126B50E
:10022000A89B05C02F3F19F00196A11DB11D3FBF2E
:10023000BA2FA92F982F8827BC01CD01620F711DFD
:10024000811D911D42E0660F771F881F991F4A95F7
:10025000D1F708958F929F92AF92BF92CF92DF9283
:10026000EF92FF924B015C010E9405016B017C0142
:100270000E9405016C197D098E099F09683E734033
:1002800081059105A8F321E0821A9108A108B1081F
:1002900088EEC80E83E0D81EE11CF11C8114910485
:1002A000A104B10429F7FF90EF90DF90CF90BF90A9
:1002B000AF909F908F900895AF92BF92CF92DF92B0
:1002C000EF92FF920F931F93CF93DF936C017B010B
:1002D0008B01040F151FEB015E01AE18BF08C0179C
:1002E000D10759F06991D601ED91FC910190F0810F
:1002F000E02DC6010995892B79F7C501DF91CF91D2
:100300001F910F91FF90EF90DF90CF90BF90AF9033
:100310000895FC01538D448D252F30E0842F90E00B
:10032000821B930B541710F0CF96089501970895F0
:10033000FC01918D828D981761F0A28DAE0FBF2FB9
:10034000B11D5D968C91928D9F5F9F73928F90E00F
:1003500008958FEF9FEF0895FC01918D828D98177E
:1003600031F0828DE80FF11D858D90E008958FEFBB
:100370009FEF0895FC01918D228D892F90E0805C84
:100380009F4F821B91098F73992708958BE991E004
:100390000E94BA0121E0892B09F420E0822F089500
:1003A00080E090E0892B29F00E94C60181110C9415
:1003B00000000895FC01A48DA80FB92FB11DA35A08
:1003C000BF4F2C91848D90E001968F739927848F75
:1003D000A689B7892C93A089B1898C918370806498
:1003E0008C93938D848D981306C00288F389E02D39
:1003F00080818F7D80830895EF92FF920F931F93EA
:10040000CF93DF93EC0181E0888F9B8D8C8D9813C7
:100410001AC0E889F989808185FF15C09FB7F894D3
:10042000EE89FF896083E889F9898081837080641F
:1004300080839FBF81E090E0DF91CF911F910F916A
:10044000FF90EF900895F62E0B8D10E00F5F1F4F79
:100450000F731127E02E8C8D8E110CC00FB607FC88
:10046000FACFE889F989808185FFF5CFCE010E9416
:10047000DA01F1CFEB8DEC0FFD2FF11DE35AFF4FA9
:10048000F0829FB7F8940B8FEA89FB8980818062A4
:10049000CFCFCF93DF93EC01888D8823B9F0AA8961
:1004A000BB89E889F9898C9185FD03C0808186FD2F
:1004B0000DC00FB607FCF7CF8C9185FFF2CF80817E
:1004C00085FFEDCFCE010E94DA01E9CFDF91CF9118
:1004D00008958FB7F89480919A018FBF08958EBDCB
:1004E00000000DB407FEFDCF8EB50895FC0101900C
:1004F0000020E9F73197AF01481B590BBC018BE98C
:1005000091E00C945C018F929F92AF92BF920F93F7
:100510001F93CF93DF93CDB7DEB7A1970FB6F894B3
:10052000DEBF0FBECDBF19A2423008F44AE08E01F3
:100530000F5D1F4F842E912CB12CA12CA50194018D
:100540000E94C408E62FB901CA01EA30F4F4E05D64
:10055000D801EE938D01232B242B252B79F790E0E6
:1005600080E0109719F0CD010E947602A1960FB697
:10057000F894DEBF0FBECDBFDF91CF911F910F91D9
:10058000BF90AF909F908F900895E95CE1CFCF939B
:10059000DF930E947602EC0182E191E00E947602F4
:1005A0008C0F9D1FDF91CF910895CF92DF92EF9234
:1005B000FF920F931F93CF93DF937C0180913902B9
:1005C0008823F9F084E590E00E94AB0060E0809120
:1005D00038020E94D70080E80E946F02F7018081F4
:1005E0000E946F0261E0809138020E94D70081E092
:1005F000DF91CF911F910F91FF90EF90DF90CF90FF
:10060000089560E0809138020E94D70092E0C92EE0
:10061000D12C00E8C7E0D0E010E0B8010C2E02C0F9
:10062000759567950A94E2F7617080913B020E948C
:10063000D70061E080913A020E94D70060E080918B
:100640003A020E94D700219740F7CA94CD2851F270
:10065000F7010081CC24C394D12CDCCF9F92AF92C0
:10066000BF92CF92DF92EF92FF920F931F93CF939F
:10067000DF93E82E8B01B42E80913902882359F143
:1006800084E590E00E94AB0060E0809138020E9417
:10069000D7008E2D0E946F0280E00E946F02F80149
:1006A0008083F1E0BF1629F080E00E946F02F8011C
:1006B000818361E0809138020E94D70081E0DF9160
:1006C000CF911F910F91FF90EF90DF90CF90BF904F
:1006D000AF909F90089560E0809138020E94D7000B
:1006E000C7E0D0E0F12CB7010C2E02C075956795DC
:1006F0000A94E2F7617080913B020E94D70061E0AA
:1007000080913A020E94D70060E080913A020E94F4
:10071000D700219740F7A02EC02FD12FEE24E394CD
:10072000F12C07E010E0C12C61E080913A020E94B8
:10073000D70020913C0230E0F901EE58FF4F849140
:10074000F901E255FF4FD490F901E656FF4F94901E
:100750009920A9F081110E94AE00E92DF0E0EE0F82
:10076000FF1FE859FF4FA591B491EC91DE2239F0BB
:10077000C701002E01C0880F0A94EAF7C82A60E07A
:1007800080913A020E94D7000150110908F0CCCFA5
:10079000C9928C2F8A198B1508F4C3CF8ACFCF93B7
:1007A000DF931F92CDB7DEB741E0BE016F5F7F4F91
:1007B0000E942E0389810F90DF91CF910895CF93EE
:1007C000DF931F92CDB7DEB780E00E94CF03806831
:1007D0008983CE0101960E94D5020F90DF91CF91BF
:1007E00008954F925F926F927F928F929F92AF92F5
:1007F000BF92CF92DF92EF92FF920F931F93CF930E
:10080000DF93CDB7DEB72A970FB6F894DEBF0FBEE1
:10081000CDBF42E0BE016F5F7F4F81E00E942E039B
:10082000811105C060E070E080EC9FE78FC0898196
:100830009A81982789279827BC01769567958170BA
:10084000809347028111EECF90E080E00E94060A7B
:10085000209143023091440240914502509146025A
:100860000E94BD0A20E030E040E058E30E94BD0A4B
:100870006B837C838D839E8340903F025090400227
:100880006090410270904202A30192010E945E09B1
:100890006B017C012FEE3FEF4FE75FE30E94B80A48
:1008A00087FD6BC0A701960160E070E080E89FE3E0
:1008B0000E94EC082FE735E04BE156EB0E94BD0AA1
:1008C0009B01AC0166E672E280E897E30E94EC08C7
:1008D0006B017C0120E030E0A9010E94590987FDED
:1008E00026C1C701B6010E94300B22E331E140E886
:1008F0005BE30E94EC082FE735E04BE955EB0E94E3
:100900005E096B017C0120E030E048EC52E4C70155
:10091000B6010E94BD0A6B017C0120E030E0A90114
:100920000E94B80A20E030E040E05FE387FD06C1A6
:10093000C701B6010E94ED080E94D0090E94080A72
:1009400020E030E048EC52E40E945E092A960FB69F
:10095000F894DEBF0FBECDBFDF91CF911F910F91F5
:10096000FF90EF90DF90CF90BF90AF909F908F90CF
:100970007F906F905F904F90089520E030E040E8C6
:100980005FE3C701B6010E94EC0822E331E140E8D1
:100990005BE30E945E096B017C0120E030E0A9016D
:1009A0000E94590987FD06C0C12CD12C98ECE92E74
:1009B00092ECF92E0EE110E022E331E140E85BE336
:1009C000C701B6010E94BD0A20E030E040E85FE3C5
:1009D0000E94ED084B015C012FE735E04BE155EB40
:1009E000C701B6010E94BD0AA70196010E94BD0A77
:1009F0009B01AC01C501B4010E94ED084B015C01F3
:100A000020E030E048EC52E4C701B6010E94EC0857
:100A10002DE13DE243E95CEA0E94BD0AA70196018F
:100A20000E94BD0AA70196010E94BD0AA701960176
:100A30000E94BD0A9B01AC01C501B4010E94ED08F2
:100A4000A30192010E94BD0A2B813C814D815E81F0
:100A50000E94EC086F83788789879A8720E030E0CE
:100A600040E850E4C701B6010E94BD0AA701960103
:100A70000E94BD0A4B015C0120E030E048EC51E4EB
:100A8000C701B6010E94EC089B01AC01C501B4018D
:100A90000E94BD0A2DE13DE243E95CEA0E94BD0AE5
:100AA0004B015C012FE735E04BE955EBC701B6017F
:100AB0000E94BD0A22E331E140E85BE30E94ED08B9
:100AC0009B01AC01C501B4010E94ED08A301920194
:100AD0000E94BD0A4B015C019F772DEB37E346E88E
:100AE00055E30E94590987FD0ECFA50194016F813E
:100AF000788589859A850E945E094B015C01AC016D
:100B00009B01C701B6010E94EC086B017C01C50185
:100B1000B4019F772DEB37E346E855E30E9459096E
:100B200087FDF1CE0150110909F046CFECCEC12C62
:100B3000D12C80ECE82E8FE7F82EE5CEC701B60168
:100B40000E94EC08F9CE1F920F920FB60F9211245B
:100B50002F933F938F939F93AF93BF938091920175
:100B600090919301A0919401B091950130919101E0
:100B700023E0230F2D3758F50196A11DB11D2093B9
:100B800091018093920190939301A0939401B0936B
:100B900095018091960190919701A0919801B09153
:100BA00099010196A11DB11D809396019093970123
:100BB000A0939801B0939901BF91AF919F918F91AC
:100BC0003F912F910F900FBE0F901F90189526E820
:100BD000230F0296A11DB11DD2CF1F920F920FB607
:100BE0000F9211242F933F934F935F936F937F93B3
:100BF0008F939F93AF93BF93EF93FF938BE991E014
:100C00000E94DA01FF91EF91BF91AF919F918F9177
:100C10007F916F915F914F913F912F910F900FBEF8
:100C20000F901F9018951F920F920FB60F921124DC
:100C30002F938F939F93EF93FF93E091AB01F091EC
:100C4000AC018081E091B101F091B20182FD1BC045
:100C500090818091B4018F5F8F732091B5018217CD
:100C600041F0E091B401F0E0E556FE4F958F80939E
:100C7000B401FF91EF919F918F912F910F900FBE33
:100C80000F901F9018958081F4CFCF93DF93EBE9FD
:100C9000F1E01382128288EE93E0A0E0B0E084835A
:100CA0009583A683B78384E091E09183808385EC6C
:100CB00090E09587848784EC90E09787868780EC26
:100CC00090E0918B808B81EC90E0938B828B82EC17
:100CD00090E0958B848B86EC90E0978B868B118EC1
:100CE000128E138E148EC8E3D2E08AE0888381E0EE
:100CF00089831A821B821C8283E090E09E838D830D
:100D000080E090E0A8ECB2E48F839887A987BA8747
:100D100080E090E0A7EDB3E48B879C87AD87BE872A
:100D20001F868AE00E948C0061E08881DF91CF916C
:100D30000C94D700CF93DF9300D000D01F92CDB793
:100D4000DEB7789484B5826084BD84B5816084BD4B
:100D500085B5826085BD85B5816085BD80916E0059
:100D6000816080936E00109281008091810082608A
:100D700080938100809181008160809381008091C7
:100D800080008160809380008091B10084608093B6
:100D9000B1008091B00081608093B00080917A00B2
:100DA000846080937A0080917A00826080937A00D8
:100DB00080917A00816080937A0080917A008068C7
:100DC00080937A001092C100E091AB01F091AC01E8
:100DD00082E08083E091A701F091A8011082E09168
:100DE000A901F091AA0180E180831092B301E09102
:100DF000AF01F091B00186E08083E091AD01F09108
:100E0000AE01808180618083E091AD01F091AE01FF
:100E1000808188608083E091AD01F091AE01808196
:100E200080688083E091AD01F091AE0180818F7D7B
:100E300080831FB7F89480919001811124C0E4EA67
:100E4000F0E08491E8EBF0E09491E82FF0E0EE0F11
:100E5000FF1FE057FF4FA591B491EC91E92321F4D6
:100E600061E08AE00E94D7008AE00E948C008CB585
:100E700080618CBD8CB580648CBD8DE00E948C003F
:100E80008BE00E948C00809190018F5F8093900195
:100E90001FBF80913D0290913E02039709F0B4C0BC
:100EA00080E18D83CE0105960E94D50280E00E94EC
:100EB000CF0382608C83CE0104960E94D50283E02A
:100EC00090E090933E0280933D0280E00E94CF0329
:100ED00080618B83CE0103960E94D50280E00E9440
:100EE000CF038E7F8A83CE0102960E94D50285E1D0
:100EF00091E00E94C70200E010E00E94DF036AE078
:100F000070E080E090E00E942A010E94DF0380E010
:100F10000E94CF0380628983CE0101960E94D50290
:100F200068EC70E080E090E00E942A0182E00E947C
:100F3000F1036B017C01AC019B010E94700B8823C3
:100F400009F464C085E391E00E94C70287E00E9433
:100F5000CF03F82E81E0F11001C080E080934702BA
:100F60008FE491E00E9476026F2D70E090E080E0C7
:100F700040E10E94830282E191E00E94760283E0D8
:100F80000E94F1036B017C01AC019B010E94700B7C
:100F9000811124C020E030E048EC52E4C701B601E2
:100FA0000E94BD0A6B017C0120E030E0A9010E9493
:100FB000B80A20E030E040E05FE387FDC3C0C7012E
:100FC000B6010E94ED080E94D0096B017C01C1149A
:100FD000D104E10480E8F80609F0B9C08FE691E099
:100FE0000E94C70268EE73E080E090E00E942A0150
:100FF0000115110509F481CF0E94C601882309F467
:101000007CCF0E94000079CF80E04BCF8DE591E04E
:101010000E94760246015701E894B7F82FEF3FEFA0
:101020004FE75FE7C501B4010E94700B811113C047
:101030002FEF3FEF4FE75FE7C501B4010E94590969
:1010400018164CF484E691E00E9476028CE691E05A
:101050000E94C70294CF2FEF3FEF4FE75FE4C70135
:10106000B6010E94B80A18161CF488E691E0ECCF8D
:101070002FEF3FEF4FE75FECC701B6010E94590920
:1010800087FDF3CF20E030E0A901C701B6010E943F
:10109000590987FF09C06DE28BE991E00E94FC01CC
:1010A000F7FAF094F7F8F0942AE037ED43EA5BE3BF
:1010B000C701B6010E94ED084B015C010E94D709EF
:1010C0006B017C010E94060A9B01AC01C501B401C1
:1010D0000E94EC084B015C014AE0C701B6010E9486
:1010E00083026EE28BE991E00E94FC0120E030E097
:1010F00040E251E4C501B4010E94BD0A4B015C010C
:101100000E94D7096B01F12CE12C4AE0C701B6011E
:101110000E948302C701B6010E94060A9B01AC012E
:10112000C501B4010E94EC0820E030E040E251E447
:101130000E94BD0A0E94D70990E080E04AE00E9428
:10114000830284CFC701B6010E94EC083CCF81E83E
:1011500091E00E9476024AE0C701B601F7FE0DC099
:101160006DE28BE991E00E94FC0166277727CB01B5
:101170006C197D098E099F094AE00E94830282E171
:1011800091E00E9476022ECFA1E21A2EAA1BBB1B71
:10119000FD010DC0AA1FBB1FEE1FFF1FA217B30743
:1011A000E407F50720F0A21BB30BE40BF50B661F59
:1011B000771F881F991F1A9469F76095709580951D
:1011C00090959B01AC01BD01CF010895EE0FFF1F6B
:1011D0000590F491E02D09945058BB27AA270E944E
:1011E00004090C947E0A0E94700A38F00E94770A63
:1011F00020F039F49F3F19F426F40C946D0A0EF494
:10120000E095E7FB0C94670AE92F0E948F0A58F3D8
:10121000BA17620773078407950720F079F4A6F5DB
:101220000C94B10A0EF4E0950B2EBA2FA02D0B01F1
:10123000B90190010C01CA01A0011124FF27591B1B
:1012400099F0593F50F4503E68F11A16F040A22F21
:10125000232F342F4427585FF3CF46953795279592
:10126000A795F0405395C9F77EF41F16BA0B620B91
:10127000730B840BBAF09150A1F0FF0FBB1F661FD8
:10128000771F881FC2F70EC0BA0F621F731F841F1B
:1012900048F4879577956795B795F7959E3F08F041
:1012A000B0CF9395880F08F09927EE0F9795879503
:1012B00008950E94430A08F481E008950E9472098B
:1012C0000C947E0A0E94770A58F00E94700A40F03F
:1012D00029F45F3F29F00C94670A51110C94B20A6B
:1012E0000C946D0A0E948F0A68F39923B1F3552379
:1012F00091F3951B550BBB27AA2762177307840729
:1013000038F09F5F5F4F220F331F441FAA1FA9F3BE
:1013100035D00E2E3AF0E0E832D091505040E695AC
:10132000001CCAF72BD0FE2F29D0660F771F881F0D
:10133000BB1F261737074807AB07B0E809F0BB0B00
:10134000802DBF01FF2793585F4F3AF09E3F510514
:1013500078F00C94670A0C94B20A5F3FE4F3983E6D
:10136000D4F3869577956795B795F7959F5FC9F7FD
:10137000880F911D9695879597F90895E1E0660F7E
:10138000771F881FBB1F621773078407BA0720F0F7
:10139000621B730B840BBA0BEE1F88F7E095089560
:1013A0000E94D7096894B1110C94B20A08950E9462
:1013B000970A88F09F5798F0B92F9927B751B0F046
:1013C000E1F0660F771F881F991F1AF0BA95C9F7C9
:1013D00014C0B13091F00E94B10AB1E008950C94AC
:1013E000B10A672F782F8827B85F39F0B93FCCF35F
:1013F000869577956795B395D9F73EF49095809546
:10140000709561957F4F8F4F9F4F0895E89409C065
:1014100097FB3EF490958095709561957F4F8F4F27
:101420009F4F9923A9F0F92F96E9BB279395F6953D
:10143000879577956795B795F111F8CFFAF4BB0FBB
:1014400011F460FF1BC06F5F7F4F8F4F9F4F16C01F
:10145000882311F096E911C0772321F09EE8872FA9
:10146000762F05C0662371F096E8862F70E060E065
:101470002AF09A95660F771F881FDAF7880F9695DE
:10148000879597F90895990F0008550FAA0BE0E882
:10149000FEEF16161706E807F907C0F01216130636
:1014A000E407F50798F0621B730B840B950B39F476
:1014B0000A2661F0232B242B252B21F408950A26DC
:1014C00009F4A140A6958FEF811D811D089597F91C
:1014D0009F6780E870E060E008959FEF80EC0895DA
:1014E00000240A9416161706180609060895002403
:1014F0000A9412161306140605060895092E03947D
:10150000000C11F4882352F0BB0F40F4BF2B11F4F0
:1015100060FF04C06F5F7F4F8F4F9F4F089557FD4F
:101520009058440F551F59F05F3F71F04795880F51
:1015300097FB991F61F09F3F79F0879508951216E8
:1015400013061406551FF2CF4695F1DF08C0161694
:1015500017061806991FF1CF869571056105089445
:101560000895E894BB2766277727CB0197F908955C
:101570000E94430A08F48FEF08950E94D00A0C9449
:101580007E0A0E94700A38F00E94770A20F09523A4
:1015900011F00C94670A0C946D0A11240C94B20A91
:1015A0000E948F0A70F3959FC1F3950F50E0551F6D
:1015B000629FF001729FBB27F00DB11D639FAA27A8
:1015C000F00DB11DAA1F649F6627B00DA11D661FF7
:1015D000829F2227B00DA11D621F739FB00DA11D18
:1015E000621F839FA00D611D221F749F3327A00DD2
:1015F000611D231F849F600D211D822F762F6A2F6E
:1016000011249F5750409AF0F1F088234AF0EE0FD2
:10161000FF1FBB1F661F771F881F91505040A9F7FF
:101620009E3F510580F00C94670A0C94B20A5F3F0C
:10163000E4F3983ED4F3869577956795B795F7953B
:10164000E7959F5FC1F7FE2B880F911D96958795B3
:1016500097F9089519F416F40C946D0A0C94750B0F
:101660000E94970AB8F39923C9F3B6F39F57550B15
:1016700087FF0E94830B0024A0E640EA9001805877
:101680005695979528F4805C660F771F881F20F089
:1016900026173707480730F4621B730B840B202989
:1016A00031294A2BA69517940794202531254A27DE
:1016B00058F7660F771F881F20F02617370748074F
:1016C00030F4620B730B840B200D311D411DA0956E
:1016D00081F7B901842F9158880F969587950895C1
:1016E0000E94430A880B990B08959F3F31F0915057
:1016F00020F4879577956795B795880F911D9695F6
:10170000879597F9089591505040660F771F881F6D
:08171000D2F70895F894FFCF11
:1017180000000000FC015C0189014902BA0198013E
:10172800AC010D0A004D415833313836352050543C
:10173800313030206578616D706C652028332D77E5
:1017480069726529004661756C74202F206F706579
:101758006E20525444206F72206572726F72004678
:1017680061756C74207265673A2030780054656D35
:10177800703A2000696E66006F7666002043005359
:1017880063616C65642072656164206572726F7252
:10179800005363616C656420783130303A20000072
:00000001FF
