:100000000C9462000C948A000C948A000C948A0070
:100010000C948A000C948A000C948A000C948A0038
:100020000C948A000C948A000C948A000C948A0028
:100030000C948A000C948A000C948A000C948A0018
:100040000C9403070C948A000C9473070C944D07CE
:100050000C948A000C948A000C948A000C948A00F8
:100060000C948A000C948A000000000023002600F3
:10007000290000000008000201000003040700003E
:1000800000000000000000000000250028002B00F8
:1000900000000000240027002A00040404040404D3
:1000A0000404020202020202030303030303010227
:1000B00004081020408001020408102001020408F6
:1000C0001020730A11241FBECFEFD8E0DEBFCDBFD2
:1000D00011E0A0E0B1E0E0EDFAE102C005900D9280
:1000E000A438B107D9F722E0A4E8B1E001C01D921D
:1000F000AF32B207E1F710E0C2E6D0E004C02197CA
:10010000FE010E94C20AC136D107C9F70E94A507A5
:100110000C94660D0C94000090E0FC01E255FF4F3A
:10012000249186569F4FFC018491882399F090E09A
:10013000880F991FFC01E057FF4FA591B491FC0176
:10014000EA57FF4F859194918FB7F894EC91E22B89
:10015000EC938FBF0895833081F028F4813099F0BB
:100160008230A9F008958730A9F08830C9F0843032
:10017000B1F4809180008F7D03C0809180008F77E3
:1001800080938000089584B58F7784BD089584B5E9
:100190008F7DFBCF8091B0008F778093B000089562
:1001A0008091B0008F7DF9CF1F93CF93DF93282FDD
:1001B00030E0F901EE58FF4F8491F901E255FF4F0D
:1001C000D491F901E656FF4FC491CC23A9F0162F24
:1001D00081110E94AB00EC2FF0E0EE0FFF1FEA57F9
:1001E000FF4FA591B4918FB7F894EC91111108C00D
:1001F000D095DE23DC938FBFDF91CF911F910895BF
:10020000DE2BF8CF3FB7F89480918E0190918F014B
:10021000A0919001B091910126B5A89B05C02F3FF8
:1002200019F00196A11DB11D3FBFBA2FA92F982F1C
:100230008827BC01CD01620F711D811D911D42E017
:10024000660F771F881F991F4A95D1F708958F92DF
:100250009F92AF92BF92CF92DF92EF92FF924B01AB
:100260005C010E9402016B017C010E9402016C1979
:100270007D098E099F09683E734081059105A8F3A9
:1002800021E0821A9108A108B10888EEC80E83E027
:10029000D81EE11CF11C81149104A104B10429F7BA
:1002A000FF90EF90DF90CF90BF90AF909F908F9096
:1002B0000895AF92BF92CF92DF92EF92FF920F9389
:1002C0001F93CF93DF936C017B018B01040F151FEC
:1002D000EB015E01AE18BF08C017D10759F0699154
:1002E000D601ED91FC910190F081E02DC6010995B8
:1002F000892B79F7C501DF91CF911F910F91FF9065
:10030000EF90DF90CF90BF90AF900895FC01538D98
:10031000448D252F30E0842F90E0821B930B5417DF
:1003200010F0CF96089501970895FC01918D828D6C
:10033000981761F0A28DAE0FBF2FB11D5D968C9105
:10034000928D9F5F9F73928F90E008958FEF9FEF44
:100350000895FC01918D828D981731F0828DE80F00
:10036000F11D858D90E008958FEF9FEF0895FC01BA
:10037000918D228D892F90E0805C9F4F821B910987
:100380008F739927089582E991E00E94B70121E0D7
:10039000892B09F420E0822F089580E090E0892BDA
:1003A00029F00E94C30181110C9400000895FC0102
:1003B000A48DA80FB92FB11DA35ABF4F2C91848DC6
:1003C00090E001968F739927848FA689B7892C9323
:1003D000A089B1898C91837080648C93938D848D76
:1003E000981306C00288F389E02D80818F7D808379
:1003F0000895EF92FF920F931F93CF93DF93EC0139
:1004000081E0888F9B8D8C8D98131AC0E889F989BB
:10041000808185FF15C09FB7F894EE89FF896083BE
:10042000E889F98980818370806480839FBF81E03F
:1004300090E0DF91CF911F910F91FF90EF90089581
:10044000F62E0B8D10E00F5F1F4F0F731127E02E5C
:100450008C8D8E110CC00FB607FCFACFE889F98994
:10046000808185FFF5CFCE010E94D701F1CFEB8DC2
:10047000EC0FFD2FF11DE35AFF4FF0829FB7F89468
:100480000B8FEA89FB8980818062CFCFCF93DF9386
:10049000EC01888D8823B9F0AA89BB89E889F9899C
:1004A0008C9185FD03C0808186FD0DC00FB607FCD1
:1004B000F7CF8C9185FFF2CF808185FFEDCFCE0104
:1004C0000E94D701E9CFDF91CF9108958FB7F894BB
:1004D000809184018FBF08958EBD00000DB407FE8A
:1004E000FDCF8EB508958CBD9DBD08950F931F93CC
:1004F000FC0100E012E12AE730E090E040175107EC
:100500006207730740F436952795179507959F5F07
:100510009630A1F797E0292F286A26952083909599
:10052000917091831F910F910895CF92DF92EF9276
:10053000FF920F931F93CF93DF9300D0CDB7DEB719
:10054000209186013091870121303105D1F57A0162
:100550008B01D82EC0900A0160E08C2D0E94D4003F
:1005600040910601509107016091080170910901C5
:10057000CE0101960E94760289819A810E947302BF
:100580008D2D0E946C0280E00E946C02F801808335
:10059000EA94EF2829F080E00E946C02F801818340
:1005A00061E08C2D0E94D40090E080E00F900F90CD
:1005B000DF91CF911F910F91FF90EF90DF90CF903F
:1005C00008958EEF9FEFF2CFFC0101900020E9F734
:1005D0003197AF01481B590BBC0182E991E00C94A3
:1005E00059018F929F92AF92BF920F931F93CF9317
:1005F000DF93CDB7DEB7A1970FB6F894DEBF0FBE7D
:10060000CDBF19A2423008F44AE08E010F5D1F4FA2
:10061000842E912CB12CA12CA50194010E94A00A3A
:10062000E62FB901CA01EA30F4F4E05DD801EE9397
:100630008D01232B242B252B79F790E080E0109758
:1006400019F0CD010E94E402A1960FB6F894DEBF26
:100650000FBECDBFDF91CF911F910F91BF90AF9093
:100660009F908F900895E95CE1CFCF93DF930E9434
:10067000E402EC0186E291E00E94E4028C0F9D1FEF
:10068000DF91CF9108952F923F924F925F926F9298
:100690007F928F929F92AF92BF92CF92DF92EF9212
:1006A000FF920F931F93CF93DF9300D01F92CDB78C
:1006B000DEB7E0918601F0918701329709F0BCC066
:1006C000A0900A01B0900B01B7FCB9C000910001E5
:1006D0001091010117FDB3C0409002015090030139
:1006E00057FCADC0E0910401F0910501FB83EA8362
:1006F000F7FDA5C03901252E342E6B01192F982E38
:1007000060E08A2D0E94D400E92CF12ECE0CDF1C73
:10071000502EF70181907F0107E010E0912CB40189
:10072000002E02C0759567950A94E2F761707727ED
:10073000842D0E94D40060E0852D0E94D40061E0E9
:10074000852D0E94D4000150110948F7EC14FD04D6
:1007500001F7032D122D600E711E8A819B8199274E
:100760009B838A838E589F4F4C01EA81FB81E2551F
:10077000FF4F6F018A819B8186569F4F9B838A839F
:100780006016710609F43CC0212C97E0E92EF12C8B
:1007900060E0842D0E94D40060E0852D0E94D4008A
:1007A000F4018491F601F491F983EA81FB8134909C
:1007B000332021F181110E94AB00E32DF0E0EE0F18
:1007C000FF1FE859FF4FA591B4918C91F9818F23B8
:1007D00031E009F430E0832F0E2C01C0880F0A9419
:1007E000EAF7282A61E0852D0E94D40081E0E81A0A
:1007F000F10870F6F80121928F01C2CF80E0ECCFB2
:1008000061E08A2D0E94D40090E080E00F900F906C
:100810000F90DF91CF911F910F91FF90EF90DF909C
:10082000CF90BF90AF909F908F907F906F905F9090
:100830004F903F902F9008958FEF9FEFE7CF8EEF6F
:100840009FEFE4CFCF92DF92EF92FF920F931F932F
:10085000CF93DF9300D01F92CDB7DEB78091860192
:10086000909187010297F1F581E08B8322E030E0DF
:10087000AE014F5F5F4F61E070E0CE0103960E94D2
:100880004303892BC1F569817A817627672776270B
:100890008B011695079520E030E040E058E3609129
:1008A0000C0170910D0180910E0190910F010E9439
:1008B000990C6B017C01B80190E080E00E94E20B92
:1008C0009B01AC01C701B6010E94990C0F900F90DB
:1008D0000F90DF91CF911F910F91FF90EF90DF90DC
:1008E000CF90089542E050E0BE016F5F7F4F81E0FE
:1008F0000E949502C6CF60E070E080EC9FE7E6CFF3
:100900000F931F93CF93DF9300D0CDB7DEB78C0149
:1009100080918601909187010297D9F487E08983BD
:1009200021E030E0AE014E5F5F4F61E070E0CE014C
:1009300001960E9443030097A9F42A81209388011D
:10094000F80120830F900F90DF91CF911F910F91AD
:10095000089541E050E0BE016E5F7F4F87E00E9446
:100960009502E9CF8EEF9FEFEDCFCF93DF931F92EC
:10097000CDB7DEB720918601309187012230310555
:1009800071F4198221E030E0AC0161E070E0CE0149
:1009900001960E9443030F90DF91CF91089541E0AB
:1009A00050E0BC0180E00E949502F5CF0F931F93A9
:1009B000CF93DF9300D0CDB7DEB7082F80918601AB
:1009C0009091870182309105A1F480E889830A83A0
:1009D00030E020E050E040E062E070E0CE010196BF
:1009E0000E9443030F900F90DF91CF911F910F91C1
:1009F0000895019719F510910A0160E0812F0E9476
:100A0000D400409106015091070160910801709156
:100A10000901CE0101960E94760289819A810E9485
:100A2000730280E80E946C02802F0E946C0261E0D9
:100A3000812F0E94D40090E080E0D4CF8FEF9FEF11
:100A4000D1CF1F93CF93DF931F92CDB7DEB7182F6F
:100A5000CE0101960E94B504892B99F48981112356
:100A600071F08068898389810E94D604009711F013
:100A70008EEF9FEF0F90DF91CF911F9108958F77A9
:100A8000F1CF8FEF9FEFF6CF4F925F926F927F92F1
:100A90008F929F92AF92BF92CF92DF92EF92FF928E
:100AA000CF93DF93CDB7DEB76A970FB6F894DEBF6A
:100AB0000FBECDBF282F220F292F221F2F3F09F451
:100AC0009BC169877A878B879C8720E030E0A901EA
:100AD0000E94350B18160CF08FC180911001909177
:100AE0001101A0911201B09113018D839E83AF83F8
:100AF000B8879C01AD0169857A858B859C850E94AC
:100B00003A0B9B01AC0160E070E080E89FE30E943B
:100B1000C80A2FE735E04BE156EB0E94990C9B0188
:100B2000AC0166E672E280E897E30E94C80A6B01B6
:100B30007C0120E030E0A9010E94940C87FD55C1A2
:100B4000C701B6010E940C0D6B017C0122E331E16B
:100B500040E85BE30E94C80A2FE735E04BE955EB1C
:100B60000E943A0B2B013C012DEB37E346E855EB95
:100B70000E94940C87FF22C1A701960162E371E1F4
:100B800080E89BEB0E94C80A2FE735E04BE955EB64
:100B90000E943A0B2B013C0120E030E0A9010E94A9
:100BA000350B87FF22C1AEE1B0E0BA8FA98FA30158
:100BB0009201C301B2010E94990C6B017C0122E3F6
:100BC00031E140E85BE3C301B2010E94990C20E0EF
:100BD00030E040E85FE30E94C90A4B015C012FE767
:100BE00035E04BE155EBC701B6010E94990C9B0122
:100BF000AC01C501B4010E94C90A4B015C0120E0AF
:100C000030E048EC52E4C301B2010E94C80A2DE171
:100C10003DE243E95CEA0E94990C69837A838B8305
:100C20009C83A7019601C301B2010E94990C9B010C
:100C3000AC0169817A818B819C810E94990C9B0116
:100C4000AC01C501B4010E94C90A2D813E814F81CA
:100C500058850E94990C69837A838B839C832985AC
:100C60003A854B855C850E94C80A6D877E878F8791
:100C7000988B9F772DEB37E346E855E30E94350BC1
:100C800087FD9CC027E137EB41ED58E3C301B2017A
:100C90000E94C90A6B017C01AC019B010E94990C66
:100CA000698B7A8B8B8B9C8B22E331E140E85BE391
:100CB000C701B6010E94990C20E030E040E85FE3F4
:100CC0000E94C90A4B015C012FE735E04BE155EB6F
:100CD00069897A898B899C890E94990C9B01AC0156
:100CE000C501B4010E94C90A6D8B7E8B8F8B988FD2
:100CF00020E030E048EC52E4C701B6010E94C80A87
:100D00002DE13DE243E95CEA0E94990C4B015C0154
:100D100029893A894B895C89C701B6010E94990CDF
:100D20009B01AC01C501B4010E94990C9B01AC016F
:100D30006D897E898F89988D0E94C90A2D813E8197
:100D40004F8158850E94990C29813A814B815C81A1
:100D50000E94C80A27E137EB41ED58E30E943A0BA5
:100D60006B017C0120E030E0A9010E94350B882353
:100D700029F1A70196016D857E858F8598890E944E
:100D80003A0B6B017C01AC019B01C301B2010E94D3
:100D9000C80A2B013C01C701B6019F772DEB37E351
:100DA00046E855E30E94350B87FD08C0898D9A8D72
:100DB00001979A8F898F892B09F0F9CEC301B2016F
:100DC0006A960FB6F894DEBF0FBECDBFDF91CF910C
:100DD000FF90EF90DF90CF90BF90AF909F908F905B
:100DE0007F906F905F904F900895412C512C98E424
:100DF000692E92EC792ED7CE412C512C80EC682EA6
:100E00008FE7782EDBCF1F920F920FB60F9211242F
:100E10002F933F938F939F93AF93BF9380918A01BA
:100E200090918B01A0918C01B0918D01309189013D
:100E300023E0230F2D3758F50196A11DB11D2093F6
:100E4000890180938A0190938B01A0938C01B093C8
:100E50008D0180918E0190918F01A0919001B091B0
:100E600091010196A11DB11D80938E0190938F0178
:100E7000A0939001B0939101BF91AF919F918F91F9
:100E80003F912F910F900FBE0F901F90189526E85D
:100E9000230F0296A11DB11DD2CF1F920F920FB644
:100EA0000F9211242F933F934F935F936F937F93F0
:100EB0008F939F93AF93BF93EF93FF9382E991E05A
:100EC0000E94D701FF91EF91BF91AF919F918F91B8
:100ED0007F916F915F914F913F912F910F900FBE36
:100EE0000F901F9018951F920F920FB60F9211241A
:100EF0002F938F939F93EF93FF93E091A201F09133
:100F0000A3018081E091A801F091A90182FD1BC09D
:100F100090818091AB018F5F8F732091AC0182171C
:100F200041F0E091AB01F0E0EE56FE4F958F8093DB
:100F3000AB01FF91EF919F918F912F910F900FBE79
:100F40000F901F9018958081F4CFCF93DF931F925D
:100F5000CDB7DEB7789484B5826084BD84B58160F6
:100F600084BD85B5826085BD85B5816085BD809174
:100F70006E00816080936E001092810080918100EC
:100F800082608093810080918100816080938100E4
:100F9000809180008160809380008091B1008460A6
:100FA0008093B1008091B00081608093B000809107
:100FB0007A00846080937A0080917A0082608093C6
:100FC0007A0080917A00816080937A0080917A0023
:100FD000806880937A001092C100E091A201F091A4
:100FE000A30182E08083E0919E01F0919F01108235
:100FF000E091A001F091A10180E180831092AA010B
:10100000E091A601F091A70186E08083E091A40120
:10101000F091A501808180618083E091A401F0912D
:10102000A501808188608083E091A401F091A501F1
:10103000808180688083E091A401F091A501808186
:101040008F7D808364E670E080E090E00E9427015D
:1010500089E291E00E943503109287011092860187
:101060008FEF9FEF9093050180930401909303010C
:101070008093020190930101809300018AE090E047
:1010800090930B0180930A0180E492E4AFE0B0E01A
:101090008093060190930701A0930801B093090182
:1010A0008AE00E948C0061E08AE00E94D4001FB7B1
:1010B000F89480918501811124C0E4EAF0E08491E4
:1010C000E8EBF0E09491E82FF0E0EE0FFF1FE0571F
:1010D000FF4FA591B491EC91E92321F461E08AE0FE
:1010E0000E94D4008AE00E948C008CB580618CBD87
:1010F0008CB580648CBD8DE00E948C008BE00E94DA
:101100008C00809185018F5F809385011FBF809146
:10111000060190910701A0910801B0910901009783
:10112000A105B10521F480E492E4AFE0B0E0809342
:10113000060190930701A0930801B093090181E093
:1011400090E0909387018093860180E090E0A8EC86
:10115000B2E48093100190931101A0931201B09317
:10116000130180E090E0A7EDB3E480930C0190932D
:101170000D01A0930E01B0930F01CE0101960E94C4
:10118000B504892B29F48981806189830E94D60462
:10119000CE0101960E94B504892B29F489818E7FA6
:1011A00089830E94D6046AE070E080E090E00E94AB
:1011B000270100E010E081E00E9421056AE070E074
:1011C00080E090E00E942701CE0101960E94B504C4
:1011D000892B29F48981806289830E94D60468EC76
:1011E00070E080E090E00E94270180E00E942105ED
:1011F0000E9422046B017C018E2D880F8F2D881F89
:101200008F3F09F06DC0C12CD12C90ECE92E9FE7E7
:10121000F92E0E9422044B015C018A2D880F8B2D30
:10122000881F8F3F09F09EC0812C912CA12C80E853
:10123000B82EA7019601C701B6010E944C0D81117D
:1012400042C186E491E00E94E40226013701E8945D
:1012500077F82FEF3FEF4FE75FE7C301B2010E943E
:101260004C0D8111B9C02FEF3FEF4FE75FE7C3018E
:10127000B2010E94350B18160CF0AEC08FE491E05D
:101280000E94E40287E591E00E94E4024AE0C50181
:10129000B401B7FE0DC06DE282E991E00E94F90150
:1012A00066277727CB01681979098A099B094AE0E3
:1012B0000E94F10286E291E00E94E40268EE73E08F
:1012C00080E090E00E9427010115110509F473CF19
:1012D0000E94C301882309F46ECF0E9400006BCFE7
:1012E000CE0101960E948004892B89F11092880119
:1012F000C701B6010E944405282F220F292F221F63
:101300002F3F09F480CF20E030E048EC52E40E9407
:10131000990C6B017C0120E030E0A9010E94940C43
:1013200020E030E040E05FE387FD17C0C701B60171
:101330000E94C90A0E94AC0B0E94E40B20E030E03E
:1013400048EC52E40E943A0B6B017C0162CF898128
:1013500080938801882361F256CFC701B6010E94AD
:10136000C80AE8CFCE0101960E948004892B49F17A
:1013700010928801C501B4010E944405282F220F54
:10138000292F221F2F3F09F44FCF20E030E048ECF7
:1013900052E40E94990C4B015C0120E030E0A9016D
:1013A0000E94940C20E030E040E05FE387FD0FC036
:1013B000C501B4010E94C90A0E94AC0B4B015C013B
:1013C00038CF8981809388018823A1F22DCFC50170
:1013D000B4010E94C80AF0CF2FEF3FEF4FE75FE460
:1013E000C701B6010E94940C18161CF483E591E025
:1013F00047CF2FEF3FEF4FE75FECC701B6010E94E9
:10140000350B87FDF3CF20E030E0A901C701B6011D
:101410000E94350B87FF09C06DE282E991E00E94CE
:10142000F901F7FAF094F7F8F0942AE037ED43EA7F
:101430005BE3C701B6010E94C90A2B013C010E946F
:10144000B30B6B017C010E94E20B9B01AC01C30159
:10145000B2010E94C80A2B013C014AE0C701B60153
:101460000E94F1026EE282E991E00E94F90120E01F
:1014700030E040E251E4C301B2010E94990C2B011B
:101480003C010E94B30B6B01F12CE12C4AE0C70137
:10149000B6010E94F102C701B6010E94E20B9B0156
:1014A000AC01C301B2010E94C80A20E030E040E272
:1014B00051E40E94990C0E94B30B90E080E04AE056
:1014C0000E94F102DFCE84E691E00E943503F090A5
:1014D00088018AE791E00E94E4026F2D70E090E0BD
:1014E00080E040E1E5CEE2E9F1E01382128288EE8D
:1014F00093E0A0E0B0E084839583A683B78388E17E
:1015000091E09183808385EC90E09587848784ECDB
:1015100090E09787868780EC90E0918B808B81ECC0
:1015200090E0938B828B82EC90E0958B848B86ECA1
:1015300090E0978B868B118E128E138E148E0895E9
:10154000A1E21A2EAA1BBB1BFD010DC0AA1FBB1FC7
:10155000EE1FFF1FA217B307E407F50720F0A21B39
:10156000B30BE40BF50B661F771F881F991F1A94A6
:1015700069F760957095809590959B01AC01BD01D0
:10158000CF010895EE0FFF1F0590F491E02D09940F
:101590005058BB27AA270E94E00A0C945A0C0E94BC
:1015A0004C0C38F00E94530C20F039F49F3F19F492
:1015B00026F40C94490C0EF4E095E7FB0C94430CD4
:1015C000E92F0E946B0C58F3BA1762077307840760
:1015D000950720F079F4A6F50C948D0C0EF4E095A7
:1015E0000B2EBA2FA02D0B01B90190010C01CA01DD
:1015F000A0011124FF27591B99F0593F50F4503E88
:1016000068F11A16F040A22F232F342F4427585F79
:10161000F3CF469537952795A795F0405395C9F791
:101620007EF41F16BA0B620B730B840BBAF0915049
:10163000A1F0FF0FBB1F661F771F881FC2F70EC0E8
:10164000BA0F621F731F841F48F4879577956795BB
:10165000B795F7959E3F08F0B0CF9395880F08F0A7
:101660009927EE0F9795879508950E941F0C08F40F
:1016700081E008950E944E0B0C945A0C0E94530C6A
:1016800058F00E944C0C40F029F45F3F29F00C9474
:10169000430C51110C948E0C0C94490C0E946B0C51
:1016A00068F39923B1F3552391F3951B550BBB2791
:1016B000AA2762177307840738F09F5F5F4F220FD6
:1016C000331F441FAA1FA9F335D00E2E3AF0E0E8CD
:1016D00032D091505040E695001CCAF72BD0FE2F17
:1016E00029D0660F771F881FBB1F261737074807AB
:1016F000AB07B0E809F0BB0B802DBF01FF27935863
:101700005F4F3AF09E3F510578F00C94430C0C94D7
:101710008E0C5F3FE4F3983ED4F3869577956795FA
:10172000B795F7959F5FC9F7880F911D9695879597
:1017300097F90895E1E0660F771F881FBB1F6217B6
:1017400073078407BA0720F0621B730B840BBA0B74
:10175000EE1F88F7E09508950E94B30B6894B111CD
:101760000C948E0C08950E94730C88F09F5798F08B
:10177000B92F9927B751B0F0E1F0660F771F881F96
:10178000991F1AF0BA95C9F714C0B13091F00E94B0
:101790008D0CB1E008950C948D0C672F782F88275D
:1017A000B85F39F0B93FCCF3869577956795B395D7
:1017B000D9F73EF490958095709561957F4F8F4F46
:1017C0009F4F0895E89409C097FB3EF4909580954B
:1017D000709561957F4F8F4F9F4F9923A9F0F92FF7
:1017E00096E9BB279395F695879577956795B79575
:1017F000F111F8CFFAF4BB0F11F460FF1BC06F5F5B
:101800007F4F8F4F9F4F16C0882311F096E911C06C
:10181000772321F09EE8872F762F05C0662371F08D
:1018200096E8862F70E060E02AF09A95660F771FA1
:10183000881FDAF7880F9695879597F90895990F7D
:101840000008550FAA0BE0E8FEEF16161706E8078A
:10185000F907C0F012161306E407F50798F0621BAB
:10186000730B840B950B39F40A2661F0232B242B80
:10187000252B21F408950A2609F4A140A6958FEF9F
:10188000811D811D089597F99F6780E870E060E0F1
:1018900008959FEF80EC089500240A941616170609
:1018A00018060906089500240A9412161306140651
:1018B00005060895092E0394000C11F4882352F0B4
:1018C000BB0F40F4BF2B11F460FF04C06F5F7F4F6C
:1018D0008F4F9F4F089557FD9058440F551F59F053
:1018E0005F3F71F04795880F97FB991F61F09F3F0D
:1018F00079F087950895121613061406551FF2CF36
:101900004695F1DF08C0161617061806991FF1CF85
:1019100086957105610508940895E894BB276627AC
:101920007727CB0197F908950E941F0C08F48FEFD9
:1019300008950E94AC0C0C945A0C0E944C0C38F088
:101940000E94530C20F0952311F00C94430C0C943E
:10195000490C11240C948E0C0E946B0C70F3959F13
:10196000C1F3950F50E0551F629FF001729FBB2796
:10197000F00DB11D639FAA27F00DB11DAA1F649F32
:101980006627B00DA11D661F829F2227B00DA11DE5
:10199000621F739FB00DA11D621F839FA00D611D6B
:1019A000221F749F3327A00D611D231F849F600D8C
:1019B000211D822F762F6A2F11249F5750409AF0B5
:1019C000F1F088234AF0EE0FFF1FBB1F661F771F41
:1019D000881F91505040A9F79E3F510580F00C940C
:1019E000430C0C948E0C5F3FE4F3983ED4F3869541
:1019F00077956795B795F795E7959F5FC1F7FE2BAC
:101A0000880F911D9695879597F9089519F416F406
:101A10000C94490C0C94510D0E94730CB8F399234B
:101A2000C9F3B6F39F57550B87FF0E945F0D002443
:101A3000A0E640EA900180585695979528F4805C7E
:101A4000660F771F881F20F026173707480730F4E6
:101A5000621B730B840B202931294A2BA6951794FE
:101A60000794202531254A2758F7660F771F881FCE
:101A700020F026173707480730F4620B730B840BEE
:101A8000200D311D411DA09581F7B901842F91587A
:101A9000880F9695879508950E941F0C880B990BC7
:101AA00008959F3F31F0915020F487957795679581
:101AB000B795880F911D9695879597F90895915040
:101AC0005040660F771F881FD2F70895F894FFCF14
:101AD000FFFFFFFFFFFF40420F00FFFF0000D74363
:101AE0000000C84200000000F901590186014602C9
:101AF000B7019501A9010D0A004D4158333138361F
:101B0000352041726475696E6F20554E4F2065789F
:101B1000616D706C650054656D7020433A200069FA
:101B20006E66006F7666002020696E742078313012
:101B3000303A200052656164206661696C656420FA
:101B40006F72206661756C7421004661756C743A21
:041B500020307800C9
:00000001FF
