:100000000C945C000C9479000C9479000C947900A9
:100010000C9479000C9479000C947D0B0C9479006D
:100020000C9479000C9479000C9479000C9479006C
:100030000C9479000C9479000C9479000C9479005C
:100040000C9422010C9479000C9479000C947900A2
:100050000C9479000C9479000C9479000C9479003C
:100060000C9479000C947900000000002400270013
:100070002A0000000000250028002B0004040404CE
:100080000404040402020202020203030303030342
:10009000010204081020408001020408102001021F
:1000A00004081020000000080002010000030407FB
:1000B000000000000000000011241FBECFEFD8E0B8
:1000C000DEBFCDBF11E0A0E0B1E0EEEEFBE102C08B
:1000D00005900D92AC32B107D9F721E0ACE2B1E066
:1000E00001C01D92AE3BB207E1F70E94800B0C9459
:1000F000F50D0C940000E1EBF0E02491EDE9F0E067
:100100009491E9E8F0E0E491EE23C9F0222339F07C
:10011000233001F1A8F4213019F1223029F1F0E067
:10012000EE0FFF1FEE58FF4FA591B4912FB7F89433
:10013000EC91811126C090959E239C932FBF08952A
:100140002730A9F02830C9F0243049F720918000E9
:100150002F7D03C0209180002F7720938000DFCF78
:1001600024B52F7724BDDBCF24B52F7DFBCF209185
:10017000B0002F772093B000D2CF2091B0002F7D18
:10018000F9CF9E2BDACFEDE9F0E02491E9E8F0E039
:100190008491882399F090E0880F991FFC01E85919
:1001A000FF4FA591B491FC01EE58FF4F85919491BA
:1001B0008FB7F894EC91E22BEC938FBF81E00E9413
:1001C0007B00E7E0F1E0819181110DC00E949F0664
:1001D00080E00E947B00EFE0F1E0819181110AC094
:1001E0000E949F06EBCF9091C00095FFFCCF8093BB
:1001F000C600E9CF9091C00095FFFCCF8093C60068
:10020000ECCF0F931F931092C50087E68093C40034
:1002100088E18093C10086E08093C20010E000E096
:1002200021E040E850E068E171E083EC90E00E945A
:100230007E09009721F01F910F910C94AD061F913C
:100240000F9108951F920F920FB60F9211242F93C2
:100250003F938F939F93AF93BF9380914901909168
:100260004A01A0914B01B0914C013091480123E02B
:10027000230F2D3758F50196A11DB11D209348017C
:100280008093490190934A01A0934B01B0934C0194
:100290008091440190914501A0914601B0914701A0
:1002A0000196A11DB11D8093440190934501A09337
:1002B0004601B0934701BF91AF919F918F913F91BC
:1002C0002F910F900FBE0F901F90189526E8230FC7
:1002D0000296A11DB11DD2CF0FB6F8940F92FC016A
:1002E000928D0F900FBE81E0911180E00895E09112
:1002F0008B01F0918C018081811107C08FEF9FEFFE
:1003000090938701809386010895E0918B01F0918D
:100310008C010580F681E02D80819181F1CFCF9312
:10032000DF93FC01A085B185828193812481358191
:10033000EC013D832C83C481D5819B838A831196F4
:100340008D919C9112978E179F0721F41296DC9342
:10035000CE931197118610868C9181508C93DF91EA
:10036000CF9108950F931F93CF93DF938C01FB01DF
:1003700080819181D80113968F3F9807F1F4E801AD
:10038000AF81B88512968D919C9113979383828348
:10039000EC01FD83EC83B583A4831396FC93EE9369
:1003A000129711870087F80180818F5F8083DF912A
:1003B000CF911F910F910895D90112962D913C91E3
:1003C0001397E9014881598184179507A8F7DACF77
:1003D000FC010396928381832FEF3FEF34832383C5
:1003E000968385839087878310820895FC017383A9
:1003F0006283918780874617570790F0421B530B03
:100400008485958548175907C8F4BF016E5F7F4FF3
:1004100080918201909183010E94B20180E0089551
:100420004217530718F46217730740F4BF016E5F59
:100430007F4F8091840190918501EECF81E00895F6
:10044000EF92FF920F931F93CF93DF93EC018B01F9
:100450007A016C857D85600F711F9801A701CE011F
:100460000E94F601811107C0DF91CF911F910F917A
:10047000FF90EF9008958C859D85080F191FE889DE
:10048000F989CE010995E5CFEF92FF920F931F9363
:10049000CF93DF938C017B01E0918401F091850182
:1004A0000580F681E02DC681D781CE0102960E949B
:1004B0008F018A8982FF0FC0A701B801CE010E9477
:1004C0002002E889F989CE01DF91CF911F910F9128
:1004D000FF90EF9009948E7F8A8BF3CFE091840197
:1004E000F0918501808181110DC0809182019091F0
:1004F00083019093850180938401F0938301E093BD
:10050000820108950580F681E02D6FEF7FEF8081F5
:1005100091810E944402E2CFBF92CF92DF92EF928C
:10052000FF920F931F93CF93DF93EC01B62EC090F1
:100530008D01D0908E0100918B0110918C01E09083
:100540008901F0908A018091B6019091B7010296DD
:100550000E948F01CF3FDC0709F042C0BB2009F4A5
:100560003FC0E0917601F0917701A091B601B09182
:10057000B7011596FC93EE931497A091B601B09134
:10058000B7018481958117969C938E9316978091DD
:10059000B6019091B701A481B581029613969C9300
:1005A0008E9312978091B6019091B7010296958330
:1005B0008483E091B601F091B70185E791E09387DC
:1005C0008287809175018F5F80937501DF91CF9154
:1005D0001F910F91FF90EF90DF90CF90BF90089503
:1005E000CC0DDD1DE091B601F091B701D383C2833C
:1005F0006091B6017091B7016E5F7F4FCC15DD053C
:1006000060F4C701DF91CF911F910F91FF90EF90A0
:10061000DF90CF90BF900C94B201C8010E94B2014C
:100620008091860190918701C817D90778F6D093F9
:100630008701C0938601CACFCF93DF93DC01159663
:10064000ED91FC910680F781E02DA489B58986851E
:10065000978520893189EC013D832C83C089D1891C
:100660009B838A83CF010C9611962D913C91129712
:100670002817390721F41296DC93CE931197158A27
:10068000148A2C9121502C932091B801211157C02C
:10069000A285B3858481958126813781EC013D83D4
:1006A0002C83C681D7819B838A83CF0102961196C2
:1006B0002D913C9112972817390721F41296DC935B
:1006C000CE931197138612862C9121502C93C689B4
:1006D0002091B5012C1710F4C093B50129E02C9F8F
:1006E000E0011124CF56DE4F0980DA81C02DD58379
:1006F000C4834C815D8157834683AC81BD81139651
:100700009C938E9312979D838C83A689A29FD00180
:100710001124AF56BE4FB387A2878C918F5F8C9305
:10072000A091B601B091B701968956968C91891720
:1007300030F581E08093B901DF91CF910895A091C8
:100740006201B0916301B787A68714962D913C9101
:100750001597318B208B1496CD91DC9115979B8347
:100760008A8315969C938E93149781E691E0958BDE
:10077000848B809161018F5F80936101D1CF80E094
:10078000DBCFEF92FF920F931F93CF93DF93EC0198
:100790000FB6F8940F921E8D7C0181E1E80EF11CDA
:1007A00001E01116D4F08FEF8E8F0F900FBE0FB6B1
:1007B000F8940F921D8D7E0188E0E80EF11C01E097
:1007C0001116B4F08FEF8D8F0F900FBEDF91CF9188
:1007D0001F910F91FF90EF9008958989882319F355
:1007E000C7010E941C0381110093B9011150D9CF98
:1007F0008885882339F3C7010E941C038111009367
:10080000B9011150DDCF0FB6F8940F9280918D0190
:1008100090918E010F900FBE08958091B8018F5F67
:100820008093B80108950F920FB6F8940F921F921B
:1008300011242F923F924F925F926F927F928F92EC
:100840009F92AF92BF92CF92DF92EF92FF920F935F
:100850001F932F933F934F935F936F937F938F9348
:100860009F93AF93BF93CF93DF93EF93FF93A091A9
:10087000B601B091B7010DB60D920EB60D928091F2
:10088000B801882321F081E08093B90161C0109202
:10089000B901A091B601B091B701E091B601F09114
:1008A000B7012D913C918789908D82179307A8F00D
:1008B0008091B6019091B7018091B6019091B701F6
:1008C000259A2D9A2FEF87EA91E62150804090409B
:1008D000E1F700C000001D9AF5CF2091B50189E035
:1008E00001C02150422F50E0849FF001859FF00D00
:1008F0001124EF56FE4F9081992399F3A181B28183
:1009000012966D917C9172836183289FC00111249E
:100910008C569E4F6817790721F4858196819283C2
:10092000818389E0849FF001859FF00D1124EF56AB
:10093000FE4F0180F281E02D868197819093B7016F
:100940008093B6012093B5018091B6019091B701D3
:10095000A091B601B091B701CD91CDBFDD91DEBFC1
:10096000FF91EF91DF91CF91BF91AF919F918F91C7
:100970007F916F915F914F913F912F911F910F91B7
:10098000FF90EF90DF90CF90BF90AF909F908F90AF
:100990007F906F905F904F903F902F901F900F909F
:1009A0000FBE0F9008958F929F92BF92CF92DF92C9
:1009B000EF92FF920F931F93CF93DF930FB6F894AC
:1009C0000F928091B80181508093B8018091B80155
:1009D000882379F080E00F900FBEDF91CF911F91B7
:1009E0000F91FF90EF90DF90CF90BF909F908F90EE
:1009F000089580916B01882369F3E0906601F0907F
:100A00006701F0E0E0E039E041E0809161018111AF
:100A10005EC0EF2B11F00E947701E0908F01F09003
:100A20009001E114F10409F47DC189E0D82ECC24B1
:100A3000C3940FEF1FEF8091B801811161C1C09184
:100A40008D01D0918E014E018FEF881A980A9092F5
:100A50008E0180928D0181149104B9F480918B01F3
:100A600090918C012091890130918A0130938C0101
:100A700020938B0190938A01809389018091880152
:100A80008F5F809388010E94770180918601909109
:100A90008701B12C8816990608F026C1E091B601AD
:100AA000F091B701E689DE9EF0011124EF56FE4F6A
:100AB0008081823010F0BB24B3948091B901811100
:100AC00003C0BB2009F425C1C092B90122C1D701DE
:100AD0001696ED91FC91A489B58966857785808904
:100AE0009189EB019D838C8380899189EC017B83C3
:100AF0006A83BF01645F7F4F11960D911C9112971D
:100B00000617170721F412969C938E931197158A56
:100B1000148A8C9181508C93A285B38584819581B0
:100B200066817781EC017D836C8366817781EB013F
:100B30009B838A83CF01029611960D911C91129787
:100B40000817190721F412967C936E931197138658
:100B500012862C9121502C93A6892091B5012A1739
:100B600010F4A093B5013A9FD0011124AF56BE4FA7
:100B700011960D90BC91A02DB583A48314966D9110
:100B80007C9115977783668314966D917C91159768
:100B9000EB019B838A8315969C938E931497968979
:100BA000939FD0011124AF56BE4FB387A2878C917B
:100BB0008F5F8C93A091B601B091B70156968C913E
:100BC000891708F022CF4093B9011FCFE0918B0124
:100BD000F0918C010580F681E02D0680F781E02DF3
:100BE000828193818816990628F4909387018093D7
:100BF000860154CFC285D385848195812681378132
:100C0000DC0115963C932E93149726813781D901E8
:100C100013969C938E931297CF01029649815A8125
:100C20004817590711F43A832983138612862881BD
:100C300021502883A489B5891097F9F02685378536
:100C400040895189E9015D834C8340895189EA01DA
:100C50003B832A8311966D917C9112979F01245FAB
:100C60003F4F6217730721F412965C934E931197CE
:100C7000158A148A2C9121502C93A6892091B501B4
:100C80002A1710F4A093B501DA9ED0011124AF56B3
:100C9000BE4F11960D90BC91A02DB583A4831496E0
:100CA0002D913C9115973783268314962D913C9175
:100CB0001597E9019B838A8315969C938E931497CD
:100CC00096899D9DD0011124AF56BE4FB387A28750
:100CD0008C918F5F8C93E091B601F091B70186897A
:100CE000891710F4BB24B394E0918B01F0918C012F
:100CF000808181116BCF1093870100938601CECE46
:100D000080918F0190919001019690939001809332
:100D10008F01D1E0ED1AF10809F08DCE109290010B
:100D200010928F018091B901882309F453CE8091EC
:100D3000B6019091B7010E94130481E04CCE0E944D
:100D40000D0460E08EE390E00E948C020E94D304C8
:100D5000811102C00E9413040895CF93DF93EC0128
:100D60000FB6F8940F9280916B018F5F80936B01A7
:100D70008091B6019091B701892B09F080C0D09382
:100D8000B701C093B60180916B01813081F581E993
:100D900091E00E94E8018AE991E00E94E80183EA7B
:100DA00091E00E94E8018CEA91E00E94E80186E56A
:100DB00091E00E94E8018DE491E00E94E80181E663
:100DC00091E00E94E8018CE691E00E94E80185E74D
:100DD00091E00E94E80186E591E090938C01809378
:100DE0008B018DE491E090938A0180938901809139
:100DF0005F018F5F80935F01AE898091B5018A1793
:100E000010F4A093B50129E02A9FD0011124AF5618
:100E1000BE4F11960D90BC91A02DBD83AC8314964E
:100E20008D919C9115979F838E831496ED91FC91E3
:100E30001597CE0102969383828315969C938E9389
:100E40001497EE89E29FF0011124EF56FE4FFB87C5
:100E5000EA8780818F5F80830F900FBE8091600151
:100E6000882351F0E091B601F091B70196898E89FF
:100E7000981710F40E941304DF91CF910895809188
:100E800060018111B4CFE091B601F091B70196896C
:100E90008E89891708F4ABCFD093B701C093B60100
:100EA000A6CF0F920FB6F8940F921F9211242F9293
:100EB0003F924F925F926F927F928F929F92AF92EA
:100EC000BF92CF92DF92EF92FF920F931F932F93D7
:100ED0003F934F935F936F937F938F939F93AF93C2
:100EE000BF93CF93DF93EF93FF93A091B601B0919F
:100EF000B7010DB60D920EB60D9213BE8091B801DA
:100F00008111F9C080918D0190918E01019690938D
:100F10008E0180938D01009781F520918B01309196
:100F20008C014091890150918A0150938C0140932A
:100F30008B0130938A0120938901209188012F5FD2
:100F400020938801E0918B01F0918C012081211187
:100F500007C02FEF3FEF30938701209386010DC02C
:100F6000E0918B01F0918C010580F681E02D2081CC
:100F70003181309387012093860120918601309141
:100F800087018217930710F420E0A1C020E039E028
:100F9000D32EE0918B01F0918C013081311107C08B
:100FA0008FEF9FEF909387018093860190C0E0912F
:100FB0008B01F0918C010580F681E02D0680F78190
:100FC000E02D428153818417950728F450938701BF
:100FD000409386017CC0A285B3854481558166819A
:100FE0007781EA017D836C8366817781EB015B8386
:100FF0004A83AF014E5F5F4F11960D911C9112977E
:101000000417150721F412967C936E93119713869B
:1010100012863C9131503C93A489B5891097F9F020
:101020006685778500891189EB011D830C83008912
:101030001189E8017B836A831196ED90FC901297E9
:10104000BF01645F7F4FE616F70621F412961C93EA
:101050000E931197158A148A3C9131503C93A689BE
:101060003091B5013A1710F4A093B501DA9ED00182
:101070001124AF56BE4F11960D90BC91A02DB58393
:10108000A48314966D917C9115977783668314964B
:101090006D917C911597EB015B834A8315965C9368
:1010A0004E93149746894D9DD0011124AF56BE4FE3
:1010B000B387A2873C913F5F3C93E091B601F091EA
:1010C000B7013689341708F064CF21E062CFE09190
:1010D000B601F091B701E689D9E0ED9FF001112446
:1010E000EF56FE4F8081823008F021E08091B901F7
:1010F00081110EC00AC080918F01909190010196DC
:101100009093900180938F016CC0222309F469C0F1
:101110008091B801882321F081E08093B90161C0FA
:101120001092B901A091B601B091B701E091B6015A
:10113000F091B7012D913C918789908D821793078B
:10114000A8F08091B6019091B7018091B60190917D
:10115000B701259A2D9A2FEF87EA91E6215080401A
:101160009040E1F700C000001D9AF5CF2091B50135
:1011700089E001C02150422F50E0849FF001859FFB
:10118000F00D1124EF56FE4F9081992399F3A18120
:10119000B28112966D917C9172836183289FC00108
:1011A00011248C569E4F6817790721F4858196810A
:1011B0009283818389E0849FF001859FF00D112443
:1011C000EF56FE4F0180F281E02D8681978190934A
:1011D000B7018093B6012093B5018091B60190913B
:1011E000B701A091B601B091B701CD91CDBFDD910E
:1011F000DEBFFF91EF91DF91CF91BF91AF919F91B2
:101200008F917F916F915F914F913F912F911F919E
:101210000F91FF90EF90DF90CF90BF90AF909F9095
:101220008F907F906F905F904F903F902F901F9086
:101230000F900FBE0F900895CF93DF93009751F05A
:10124000EC010E940D04CE010E94560DDF91CF915A
:101250000C94D304DF91CF91089500E010E08091C9
:101260006A0181110CC080919101823010F00E94BE
:1012700013040115110599F30E940000F0CF0FB679
:10128000F8940F92E0917101F0917201C681D781BB
:10129000CE0102960E948F0180916B018150809354
:1012A0006B0180916A01815080936A010F900FBE9B
:1012B0008F89988D0E941C09CE010E941C09CFCFF6
:1012C000CF93DF93EC010E940D04CE010E94BA0C73
:1012D000EC010E94D304209769F4259A2D9A2FEFF0
:1012E00080E792E0215080409040E1F700C000008C
:1012F0001D9AF5CFCE01DF91CF9108957F928F9205
:101300009F92AF92BF92CF92DF92EF92FF920F9394
:101310001F93CF93DF93982EA92E762E872E7A01D6
:10132000B22ECA010E9460096C01D0E0C0E0892B96
:1013300009F460C080E390E00E946009EC01892B11
:1013400009F455C080E3DE011D928A95E9F7D88E35
:10135000CF8AA70165EA70E0C6010E94EE0DB1E0F8
:10136000EB1AF108EF89F88DEE0DFF1D672D782D32
:10137000CE0149969B01205F3F4FDB014D91BD019E
:10138000DC014D93CD01AB0141505109DA014C9183
:10139000442319F02617370781F718A6BE8AB9A685
:1013A0001B861A861D8A1C8AD987C88784E090E02C
:1013B0008B1991099D878C87DB8BCA8B9082DF010B
:1013C0001197AC9211971C92119780E88C9311970A
:1013D0001C9257971C9211971C92B397F983E8833C
:1013E0000115110539F0F801D183C08303C0C6018E
:1013F0000E941C09CE01DF91CF911F910F91FF90A8
:10140000EF90DF90CF90BF90AF909F908F907F90A4
:101410000895CF93DF9300D000D01F92CDB7DEB7F1
:1014200085E0B82ECE0101967C01E0918401F09117
:1014300085011081D12CC12C112329F00580F68162
:10144000E02DC080D1800E940D040E9403044C0155
:1014500080917E0190917F018816990608F089C0DD
:101460000E946E0290927F0180927E010E94D304BE
:10147000D701EB2D1D92EA95E9F7009180011091BB
:1014800081010FB6F8940F92D8015A96DC905A97C2
:10149000DD2009F42FC15C964C915C974423F9F050
:1014A00050E016968D919C911797840F951F179673
:1014B0009C938E93169714962D913C9115978217B5
:1014C000930738F08D919C91119717969C938E936A
:1014D0001697F80166817781C7010E94E50DDA94BD
:1014E000D8015A96DC925A9718968C91882339F035
:1014F000C80108960E941C0381110E9413040F90DA
:101500000FBEA980A7FCB9CF0C811D81D8011A9606
:101510008D919C91892B21F0C80102960E948F0128
:101520000E9403046C0180917E0190917F01C81696
:10153000D90610F40E946E02D0927F01C0927E0103
:10154000EFEFEA0DE93008F098CF0E2E000CFF0BFC
:10155000E055F54FD80152968C9152970C94DF0DBF
:10156000330B330B760B5E0B700B330B330B760B9D
:101570005E0B90927F0180927E01112351F08C14BA
:101580009D0470F00E94D304B401C6010E9444027D
:101590006FCFE0918201F091830161E08081811140
:1015A00060E000918001109181010FB6F8940F92D4
:1015B000D8015D968C915D978F3F11F45D961C92DA
:1015C000F801868D8F3F09F4168E0F900FBED8015B
:1015D0005A968C915A9781113CC05296ED91FC918C
:1015E000A091B601B091B7011F96FC93EE931E97A0
:1015F000A091B601B091B7018481958151969C93D9
:101600008E9350978091B6019091B701A481B581D6
:101610000C9613969C938E9312978091B60190919D
:10162000B7010C9695838483E091B601F091B701E0
:10163000C8014196958B848BF80181898F5F818BDE
:10164000C60188199909662311F08FEF9FEF0E9458
:101650008C02C8010E94C1030E94D304811108CFEB
:101660000E94130405CF8160F801828B8A809B80E1
:1016700064857585680D791D9401A601C8010E94D5
:10168000F601882309F4F9CED80152968C9152972D
:1016900082FF10C01C966D917C91680D791DA6018A
:1016A000C8010E942002D8015096ED91FC91C8011A
:1016B0000995E3CE8E7FF801828BF5CF816052963B
:1016C0008C9352976A817B811D967C936E931C97B5
:1016D0006C0D7D1D9601A601C8010E94F601CDCEBC
:1016E00081FD04C0C8010E941C09C7CE8E7FF8018D
:1016F000828BC3CE0F900FBE98CE0E9451071895D3
:10170000CF93DF93CDB7DEB760970FB6F894DEBF07
:101710000FBECDBF789484B5826084BD84B58160EE
:1017200084BD85B5826085BD85B5816085BD8091AC
:101730006E00816080936E00109281008091810024
:10174000826080938100809181008160809381001C
:10175000809180008160809380008091B1008460DE
:101760008093B1008091B00081608093B00080913F
:101770007A00846080937A0080917A0082608093FE
:101780007A0080917A00816080937A0080917A005B
:10179000806880937A001092C100209105013091F9
:1017A00006018FEF98E0821B930B909302018093C8
:1017B00001010E940101AEE1B1E0FE0131962EE28D
:1017C00031E0BF018D918193882319F02A173B07DF
:1017D000C9F70EE211E020E040EC50E08DE299E024
:1017E0000E947E09009709F4B9C00E94AD060FB6A9
:1017F000F8940F928091800190918101892B09F0DA
:1018000050C089E391E00E94E80180E391E00E94EA
:10181000E80189E391E0909385018093840180E35E
:1018200091E0909383018093820181E590E00E9492
:1018300060098C01009789F14F96F80191838083AC
:101840008AE0838F85E0848F0FB6F8940F928081B1
:101850009181238D448DBC01249F600D711D112445
:1018600075836483128E938382832150330B429F4E
:10187000B001439F700D1124860F971F97838683B5
:101880008FEF858F868FC80108960E94E801C801F6
:1018900041960E94E8010F900FBE109381010093C2
:1018A00080010F900FBE8091800190918101892B62
:1018B00009F454C002E411E023E04CE550E063E297
:1018C00071E089E09AE00E947E09009709F446C021
:1018D0000E94AD06F8948FEF9FEF9093870180935D
:1018E000860181E08093600110928E0110928D013B
:1018F000A89588E190EC0FB6F894A89580936000C5
:101900000FBE90936000A091B601B091B701CD9148
:10191000CDBFDD91DEBFFF91EF91DF91CF91BF9100
:10192000AF919F918F917F916F915F914F913F9177
:101930002F911F910F91FF90EF90DF90CF90BF906C
:10194000AF909F908F907F906F905F904F903F905F
:101950002F901F900F900FBE0F900895809100015F
:101960000E94010100E010E001151105E9F30E9459
:101970000000FACF0F931F93CF93DF93823091052E
:1019800010F482E090E0E091BC01F091BD0130E004
:1019900020E0B0E0A0E0309799F42115310509F47A
:1019A0004AC0281B390B24303105D8F58A819B8128
:1019B0006115710589F1FB0193838283FE0111C0DA
:1019C000408151810281138148175907E0F048177F
:1019D000590799F4109761F012960C931297139689
:1019E0001C933296CF01DF91CF911F910F910895F3
:1019F0000093BC011093BD01F4CF2115310551F0C6
:101A00004217530738F0A901DB019A01BD01DF013C
:101A1000F801C1CFEF01F9CF9093BD018093BC01D4
:101A2000CDCFFE01E20FF31F819391932250310934
:101A300039832883D7CF2091BA013091BB01232B62
:101A400041F420910301309104013093BB012093B4
:101A5000BA0120910101309102012115310541F4B3
:101A60002DB73EB74091050150910601241B350B5F
:101A7000E091BA01F091BB01E217F307A0F42E1B2D
:101A80003F0B2817390778F0AC014E5F5F4F2417E2
:101A9000350748F04E0F5F1F5093BB014093BA01CA
:101AA000819391939FCFF0E0E0E09CCFCF93DF93C1
:101AB0000097E9F0FC01329713821282A091BC01D9
:101AC000B091BD01ED0130E020E01097A1F420813C
:101AD0003181820F931F2091BA013091BB012817E9
:101AE000390709F061C0F093BB01E093BA01DF91BF
:101AF000CF910895EA01CE17DF07E8F54A815B81AF
:101B00009E0141155105B1F7E901FB83EA83499133
:101B10005991C40FD51FEC17FD0761F480819181A5
:101B20000296840F951FE9019983888382819381AE
:101B30009B838A83F0E0E0E012968D919C9113974D
:101B40000097B9F52D913C911197CD010296820F26
:101B5000931F2091BA013091BB012817390739F63C
:101B6000309751F51092BD011092BC01B093BB01AA
:101B7000A093BA01BCCFD383C28340815181840F2B
:101B8000951FC817D90761F44E5F5F4F888199810F
:101B9000480F591F518340838A819B81938382839D
:101BA0002115310509F0B0CFF093BD01E093BC01E0
:101BB0009ECFFD01DC01C0CF13821282D7CFEE0F82
:101BC000FF1F0590F491E02D0994FB01DC0102C098
:101BD00001900D9241505040D8F70895DC0101C0AA
:0E1BE0006D9341505040E0F70895F894FFCF08
:101BEE00030000BE0180004C4544204F4E0A004CBD
:101BFE004544204F46460A00426C696E6B004944CC
:0C1C0E004C4500546D72205376630000BA
:00000001FF
